{"abi":[{"inputs":[{"internalType":"address","name":"authorp","type":"address"},{"internalType":"address","name":"editorp","type":"address"},{"internalType":"string","name":"doccidp","type":"string"},{"internalType":"string","name":"titlep","type":"string"},{"internalType":"string","name":"descriptionp","type":"string"},{"internalType":"string[]","name":"tagsp","type":"string[]"},{"internalType":"enum FieldResearchDef.FieldResearch","name":"fieldp","type":"uint8"}],"stateMutability":"nonpayable","type":"constructor"},{"inputs":[{"internalType":"address","name":"reviewerp","type":"address"}],"name":"assignReviewer","outputs":[],"stateMutability":"nonpayable","type":"function"},{"inputs":[],"name":"author","outputs":[{"internalType":"address","name":"","type":"address"}],"stateMutability":"view","type":"function"},{"inputs":[],"name":"description","outputs":[{"internalType":"string","name":"","type":"string"}],"stateMutability":"view","type":"function"},{"inputs":[],"name":"doccid","outputs":[{"internalType":"string","name":"","type":"string"}],"stateMutability":"view","type":"function"},{"inputs":[],"name":"editor","outputs":[{"internalType":"address","name":"","type":"address"}],"stateMutability":"view","type":"function"},{"inputs":[],"name":"field","outputs":[{"internalType":"enum FieldResearchDef.FieldResearch","name":"","type":"uint8"}],"stateMutability":"view","type":"function"},{"inputs":[],"name":"getReviewersList","outputs":[{"internalType":"address payable[]","name":"","type":"address[]"}],"stateMutability":"view","type":"function"},{"inputs":[],"name":"getReviews","outputs":[{"components":[{"internalType":"address","name":"reviewer","type":"address"},{"internalType":"string","name":"doccid","type":"string"}],"internalType":"struct Manuscript.Review[]","name":"","type":"tuple[]"}],"stateMutability":"view","type":"function"},{"inputs":[],"name":"getReviewsCount","outputs":[{"internalType":"uint256","name":"","type":"uint256"}],"stateMutability":"view","type":"function"},{"inputs":[],"name":"getSummary","outputs":[{"internalType":"string","name":"","type":"string"},{"internalType":"address","name":"","type":"address"},{"internalType":"address","name":"","type":"address"},{"internalType":"string","name":"","type":"string"},{"internalType":"string","name":"","type":"string"},{"internalType":"string[]","name":"","type":"string[]"},{"internalType":"enum FieldResearchDef.FieldResearch","name":"","type":"uint8"}],"stateMutability":"view","type":"function"},{"inputs":[{"internalType":"address","name":"","type":"address"}],"name":"reviewers","outputs":[{"internalType":"bool","name":"","type":"bool"}],"stateMutability":"view","type":"function"},{"inputs":[{"internalType":"uint256","name":"","type":"uint256"}],"name":"reviewersList","outputs":[{"internalType":"address payable","name":"","type":"address"}],"stateMutability":"view","type":"function"},{"inputs":[{"internalType":"uint256","name":"","type":"uint256"}],"name":"reviews","outputs":[{"internalType":"address","name":"reviewer","type":"address"},{"internalType":"string","name":"doccid","type":"string"}],"stateMutability":"view","type":"function"},{"inputs":[{"internalType":"string","name":"doccidp","type":"string"}],"name":"submitReview","outputs":[],"stateMutability":"nonpayable","type":"function"},{"inputs":[{"internalType":"uint256","name":"","type":"uint256"}],"name":"tags","outputs":[{"internalType":"string","name":"","type":"string"}],"stateMutability":"view","type":"function"},{"inputs":[],"name":"title","outputs":[{"internalType":"string","name":"","type":"string"}],"stateMutability":"view","type":"function"}],"devdoc":{"kind":"dev","methods":{},"version":1},"evm":{"assembly":"    /* \"Manuscript.sol\":803:2791  contract Manuscript is FieldResearchDef {... */\n  mstore(0x40, 0x80)\n    /* \"Manuscript.sol\":1267:1637  constructor(address authorp, address editorp, string memory doccidp, string memory titlep, string memory descriptionp, string[] memory tagsp, FieldResearch fieldp) public {... */\n  callvalue\n  dup1\n  iszero\n  tag_1\n  jumpi\n  0x00\n  dup1\n  revert\ntag_1:\n  pop\n  mload(0x40)\n  sub(codesize, bytecodeSize)\n  dup1\n  bytecodeSize\n  dup4\n  codecopy\n  dup2\n  dup2\n  add\n  0x40\n  mstore\n  dup2\n  add\n  swap1\n  tag_2\n  swap2\n  swap1\n  tag_3\n  jump\t// in\ntag_2:\n    /* \"Manuscript.sol\":1458:1465  authorp */\n  dup7\n    /* \"Manuscript.sol\":1449:1455  author */\n  0x00\n  dup1\n    /* \"Manuscript.sol\":1449:1465  author = authorp */\n  0x0100\n  exp\n  dup2\n  sload\n  dup2\n  0xffffffffffffffffffffffffffffffffffffffff\n  mul\n  not\n  and\n  swap1\n  dup4\n  0xffffffffffffffffffffffffffffffffffffffff\n  and\n  mul\n  or\n  swap1\n  sstore\n  pop\n    /* \"Manuscript.sol\":1485:1492  editorp */\n  dup6\n    /* \"Manuscript.sol\":1476:1482  editor */\n  0x01\n  0x00\n    /* \"Manuscript.sol\":1476:1492  editor = editorp */\n  0x0100\n  exp\n  dup2\n  sload\n  dup2\n  0xffffffffffffffffffffffffffffffffffffffff\n  mul\n  not\n  and\n  swap1\n  dup4\n  0xffffffffffffffffffffffffffffffffffffffff\n  and\n  mul\n  or\n  swap1\n  sstore\n  pop\n    /* \"Manuscript.sol\":1512:1519  doccidp */\n  dup5\n    /* \"Manuscript.sol\":1503:1509  doccid */\n  0x04\n    /* \"Manuscript.sol\":1503:1519  doccid = doccidp */\n  swap1\n  dup1\n  mload\n  swap1\n  0x20\n  add\n  swap1\n  tag_6\n  swap3\n  swap2\n  swap1\n  tag_7\n  jump\t// in\ntag_6:\n  pop\n    /* \"Manuscript.sol\":1538:1544  titlep */\n  dup4\n    /* \"Manuscript.sol\":1530:1535  title */\n  0x05\n    /* \"Manuscript.sol\":1530:1544  title = titlep */\n  swap1\n  dup1\n  mload\n  swap1\n  0x20\n  add\n  swap1\n  tag_8\n  swap3\n  swap2\n  swap1\n  tag_7\n  jump\t// in\ntag_8:\n  pop\n    /* \"Manuscript.sol\":1569:1581  descriptionp */\n  dup3\n    /* \"Manuscript.sol\":1555:1566  description */\n  0x06\n    /* \"Manuscript.sol\":1555:1581  description = descriptionp */\n  swap1\n  dup1\n  mload\n  swap1\n  0x20\n  add\n  swap1\n  tag_9\n  swap3\n  swap2\n  swap1\n  tag_7\n  jump\t// in\ntag_9:\n  pop\n    /* \"Manuscript.sol\":1599:1604  tagsp */\n  dup2\n    /* \"Manuscript.sol\":1592:1596  tags */\n  0x07\n    /* \"Manuscript.sol\":1592:1604  tags = tagsp */\n  swap1\n  dup1\n  mload\n  swap1\n  0x20\n  add\n  swap1\n  tag_10\n  swap3\n  swap2\n  swap1\n  tag_11\n  jump\t// in\ntag_10:\n  pop\n    /* \"Manuscript.sol\":1623:1629  fieldp */\n  dup1\n    /* \"Manuscript.sol\":1615:1620  field */\n  0x08\n  0x00\n    /* \"Manuscript.sol\":1615:1629  field = fieldp */\n  0x0100\n  exp\n  dup2\n  sload\n  dup2\n  0xff\n  mul\n  not\n  and\n  swap1\n  dup4\n  0x07\n  dup2\n  gt\n  iszero\n  tag_12\n  jumpi\n  tag_13\n  tag_14\n  jump\t// in\ntag_13:\ntag_12:\n  mul\n  or\n  swap1\n  sstore\n  pop\n    /* \"Manuscript.sol\":1267:1637  constructor(address authorp, address editorp, string memory doccidp, string memory titlep, string memory descriptionp, string[] memory tagsp, FieldResearch fieldp) public {... */\n  pop\n  pop\n  pop\n  pop\n  pop\n  pop\n  pop\n    /* \"Manuscript.sol\":803:2791  contract Manuscript is FieldResearchDef {... */\n  jump(tag_15)\ntag_7:\n  dup3\n  dup1\n  sload\n  tag_16\n  swap1\n  tag_17\n  jump\t// in\ntag_16:\n  swap1\n  0x00\n  mstore\n  keccak256(0x00, 0x20)\n  swap1\n  0x1f\n  add\n  0x20\n  swap1\n  div\n  dup2\n  add\n  swap3\n  dup3\n  tag_19\n  jumpi\n  0x00\n  dup6\n  sstore\n  jump(tag_18)\ntag_19:\n  dup3\n  0x1f\n  lt\n  tag_20\n  jumpi\n  dup1\n  mload\n  not(0xff)\n  and\n  dup4\n  dup1\n  add\n  or\n  dup6\n  sstore\n  jump(tag_18)\ntag_20:\n  dup3\n  dup1\n  add\n  0x01\n  add\n  dup6\n  sstore\n  dup3\n  iszero\n  tag_18\n  jumpi\n  swap2\n  dup3\n  add\ntag_21:\n  dup3\n  dup2\n  gt\n  iszero\n  tag_22\n  jumpi\n  dup3\n  mload\n  dup3\n  sstore\n  swap2\n  0x20\n  add\n  swap2\n  swap1\n  0x01\n  add\n  swap1\n  jump(tag_21)\ntag_22:\ntag_18:\n  pop\n  swap1\n  pop\n  tag_23\n  swap2\n  swap1\n  tag_24\n  jump\t// in\ntag_23:\n  pop\n  swap1\n  jump\t// out\ntag_11:\n  dup3\n  dup1\n  sload\n  dup3\n  dup3\n  sstore\n  swap1\n  0x00\n  mstore\n  keccak256(0x00, 0x20)\n  swap1\n  dup2\n  add\n  swap3\n  dup3\n  iszero\n  tag_25\n  jumpi\n  swap2\n  0x20\n  mul\n  dup3\n  add\ntag_26:\n  dup3\n  dup2\n  gt\n  iszero\n  tag_27\n  jumpi\n  dup3\n  mload\n  dup3\n  swap1\n  dup1\n  mload\n  swap1\n  0x20\n  add\n  swap1\n  tag_28\n  swap3\n  swap2\n  swap1\n  tag_7\n  jump\t// in\ntag_28:\n  pop\n  swap2\n  0x20\n  add\n  swap2\n  swap1\n  0x01\n  add\n  swap1\n  jump(tag_26)\ntag_27:\ntag_25:\n  pop\n  swap1\n  pop\n  tag_29\n  swap2\n  swap1\n  tag_30\n  jump\t// in\ntag_29:\n  pop\n  swap1\n  jump\t// out\ntag_24:\ntag_31:\n  dup1\n  dup3\n  gt\n  iszero\n  tag_32\n  jumpi\n  0x00\n  dup2\n  0x00\n  swap1\n  sstore\n  pop\n  0x01\n  add\n  jump(tag_31)\ntag_32:\n  pop\n  swap1\n  jump\t// out\ntag_30:\ntag_33:\n  dup1\n  dup3\n  gt\n  iszero\n  tag_34\n  jumpi\n  0x00\n  dup2\n  dup2\n  tag_35\n  swap2\n  swap1\n  tag_36\n  jump\t// in\ntag_35:\n  pop\n  0x01\n  add\n  jump(tag_33)\ntag_34:\n  pop\n  swap1\n  jump\t// out\ntag_36:\n  pop\n  dup1\n  sload\n  tag_37\n  swap1\n  tag_17\n  jump\t// in\ntag_37:\n  0x00\n  dup3\n  sstore\n  dup1\n  0x1f\n  lt\n  tag_39\n  jumpi\n  pop\n  jump(tag_38)\ntag_39:\n  0x1f\n  add\n  0x20\n  swap1\n  div\n  swap1\n  0x00\n  mstore\n  keccak256(0x00, 0x20)\n  swap1\n  dup2\n  add\n  swap1\n  tag_40\n  swap2\n  swap1\n  tag_24\n  jump\t// in\ntag_40:\ntag_38:\n  pop\n  jump\t// out\n    /* \"#utility.yul\":7:82   */\ntag_41:\n    /* \"#utility.yul\":40:46   */\n  0x00\n    /* \"#utility.yul\":73:75   */\n  0x40\n    /* \"#utility.yul\":67:76   */\n  mload\n    /* \"#utility.yul\":57:76   */\n  swap1\n  pop\n    /* \"#utility.yul\":7:82   */\n  swap1\n  jump\t// out\n    /* \"#utility.yul\":88:205   */\ntag_42:\n    /* \"#utility.yul\":197:198   */\n  0x00\n    /* \"#utility.yul\":194:195   */\n  dup1\n    /* \"#utility.yul\":187:199   */\n  revert\n    /* \"#utility.yul\":211:328   */\ntag_43:\n    /* \"#utility.yul\":320:321   */\n  0x00\n    /* \"#utility.yul\":317:318   */\n  dup1\n    /* \"#utility.yul\":310:322   */\n  revert\n    /* \"#utility.yul\":334:460   */\ntag_44:\n    /* \"#utility.yul\":371:378   */\n  0x00\n    /* \"#utility.yul\":411:453   */\n  0xffffffffffffffffffffffffffffffffffffffff\n    /* \"#utility.yul\":404:409   */\n  dup3\n    /* \"#utility.yul\":400:454   */\n  and\n    /* \"#utility.yul\":389:454   */\n  swap1\n  pop\n    /* \"#utility.yul\":334:460   */\n  swap2\n  swap1\n  pop\n  jump\t// out\n    /* \"#utility.yul\":466:562   */\ntag_45:\n    /* \"#utility.yul\":503:510   */\n  0x00\n    /* \"#utility.yul\":532:556   */\n  tag_71\n    /* \"#utility.yul\":550:555   */\n  dup3\n    /* \"#utility.yul\":532:556   */\n  tag_44\n  jump\t// in\ntag_71:\n    /* \"#utility.yul\":521:556   */\n  swap1\n  pop\n    /* \"#utility.yul\":466:562   */\n  swap2\n  swap1\n  pop\n  jump\t// out\n    /* \"#utility.yul\":568:690   */\ntag_46:\n    /* \"#utility.yul\":641:665   */\n  tag_73\n    /* \"#utility.yul\":659:664   */\n  dup2\n    /* \"#utility.yul\":641:665   */\n  tag_45\n  jump\t// in\ntag_73:\n    /* \"#utility.yul\":634:639   */\n  dup2\n    /* \"#utility.yul\":631:666   */\n  eq\n    /* \"#utility.yul\":621:684   */\n  tag_74\n  jumpi\n    /* \"#utility.yul\":680:681   */\n  0x00\n    /* \"#utility.yul\":677:678   */\n  dup1\n    /* \"#utility.yul\":670:682   */\n  revert\n    /* \"#utility.yul\":621:684   */\ntag_74:\n    /* \"#utility.yul\":568:690   */\n  pop\n  jump\t// out\n    /* \"#utility.yul\":696:839   */\ntag_47:\n    /* \"#utility.yul\":753:758   */\n  0x00\n    /* \"#utility.yul\":784:790   */\n  dup2\n    /* \"#utility.yul\":778:791   */\n  mload\n    /* \"#utility.yul\":769:791   */\n  swap1\n  pop\n    /* \"#utility.yul\":800:833   */\n  tag_76\n    /* \"#utility.yul\":827:832   */\n  dup2\n    /* \"#utility.yul\":800:833   */\n  tag_46\n  jump\t// in\ntag_76:\n    /* \"#utility.yul\":696:839   */\n  swap3\n  swap2\n  pop\n  pop\n  jump\t// out\n    /* \"#utility.yul\":845:962   */\ntag_48:\n    /* \"#utility.yul\":954:955   */\n  0x00\n    /* \"#utility.yul\":951:952   */\n  dup1\n    /* \"#utility.yul\":944:956   */\n  revert\n    /* \"#utility.yul\":968:1085   */\ntag_49:\n    /* \"#utility.yul\":1077:1078   */\n  0x00\n    /* \"#utility.yul\":1074:1075   */\n  dup1\n    /* \"#utility.yul\":1067:1079   */\n  revert\n    /* \"#utility.yul\":1091:1193   */\ntag_50:\n    /* \"#utility.yul\":1132:1138   */\n  0x00\n    /* \"#utility.yul\":1183:1185   */\n  0x1f\n    /* \"#utility.yul\":1179:1186   */\n  not\n    /* \"#utility.yul\":1174:1176   */\n  0x1f\n    /* \"#utility.yul\":1167:1172   */\n  dup4\n    /* \"#utility.yul\":1163:1177   */\n  add\n    /* \"#utility.yul\":1159:1187   */\n  and\n    /* \"#utility.yul\":1149:1187   */\n  swap1\n  pop\n    /* \"#utility.yul\":1091:1193   */\n  swap2\n  swap1\n  pop\n  jump\t// out\n    /* \"#utility.yul\":1199:1379   */\ntag_51:\n    /* \"#utility.yul\":1247:1324   */\n  0x4e487b7100000000000000000000000000000000000000000000000000000000\n    /* \"#utility.yul\":1244:1245   */\n  0x00\n    /* \"#utility.yul\":1237:1325   */\n  mstore\n    /* \"#utility.yul\":1344:1348   */\n  0x41\n    /* \"#utility.yul\":1341:1342   */\n  0x04\n    /* \"#utility.yul\":1334:1349   */\n  mstore\n    /* \"#utility.yul\":1368:1372   */\n  0x24\n    /* \"#utility.yul\":1365:1366   */\n  0x00\n    /* \"#utility.yul\":1358:1373   */\n  revert\n    /* \"#utility.yul\":1385:1666   */\ntag_52:\n    /* \"#utility.yul\":1468:1495   */\n  tag_82\n    /* \"#utility.yul\":1490:1494   */\n  dup3\n    /* \"#utility.yul\":1468:1495   */\n  tag_50\n  jump\t// in\ntag_82:\n    /* \"#utility.yul\":1460:1466   */\n  dup2\n    /* \"#utility.yul\":1456:1496   */\n  add\n    /* \"#utility.yul\":1598:1604   */\n  dup2\n    /* \"#utility.yul\":1586:1596   */\n  dup2\n    /* \"#utility.yul\":1583:1605   */\n  lt\n    /* \"#utility.yul\":1562:1580   */\n  0xffffffffffffffff\n    /* \"#utility.yul\":1550:1560   */\n  dup3\n    /* \"#utility.yul\":1547:1581   */\n  gt\n    /* \"#utility.yul\":1544:1606   */\n  or\n    /* \"#utility.yul\":1541:1629   */\n  iszero\n  tag_83\n  jumpi\n    /* \"#utility.yul\":1609:1627   */\n  tag_84\n  tag_51\n  jump\t// in\ntag_84:\n    /* \"#utility.yul\":1541:1629   */\ntag_83:\n    /* \"#utility.yul\":1649:1659   */\n  dup1\n    /* \"#utility.yul\":1645:1647   */\n  0x40\n    /* \"#utility.yul\":1638:1660   */\n  mstore\n    /* \"#utility.yul\":1428:1666   */\n  pop\n    /* \"#utility.yul\":1385:1666   */\n  pop\n  pop\n  jump\t// out\n    /* \"#utility.yul\":1672:1801   */\ntag_53:\n    /* \"#utility.yul\":1706:1712   */\n  0x00\n    /* \"#utility.yul\":1733:1753   */\n  tag_86\n  tag_41\n  jump\t// in\ntag_86:\n    /* \"#utility.yul\":1723:1753   */\n  swap1\n  pop\n    /* \"#utility.yul\":1762:1795   */\n  tag_87\n    /* \"#utility.yul\":1790:1794   */\n  dup3\n    /* \"#utility.yul\":1782:1788   */\n  dup3\n    /* \"#utility.yul\":1762:1795   */\n  tag_52\n  jump\t// in\ntag_87:\n    /* \"#utility.yul\":1672:1801   */\n  swap2\n  swap1\n  pop\n  jump\t// out\n    /* \"#utility.yul\":1807:2115   */\ntag_54:\n    /* \"#utility.yul\":1869:1873   */\n  0x00\n    /* \"#utility.yul\":1959:1977   */\n  0xffffffffffffffff\n    /* \"#utility.yul\":1951:1957   */\n  dup3\n    /* \"#utility.yul\":1948:1978   */\n  gt\n    /* \"#utility.yul\":1945:2001   */\n  iszero\n  tag_89\n  jumpi\n    /* \"#utility.yul\":1981:1999   */\n  tag_90\n  tag_51\n  jump\t// in\ntag_90:\n    /* \"#utility.yul\":1945:2001   */\ntag_89:\n    /* \"#utility.yul\":2019:2048   */\n  tag_91\n    /* \"#utility.yul\":2041:2047   */\n  dup3\n    /* \"#utility.yul\":2019:2048   */\n  tag_50\n  jump\t// in\ntag_91:\n    /* \"#utility.yul\":2011:2048   */\n  swap1\n  pop\n    /* \"#utility.yul\":2103:2107   */\n  0x20\n    /* \"#utility.yul\":2097:2101   */\n  dup2\n    /* \"#utility.yul\":2093:2108   */\n  add\n    /* \"#utility.yul\":2085:2108   */\n  swap1\n  pop\n    /* \"#utility.yul\":1807:2115   */\n  swap2\n  swap1\n  pop\n  jump\t// out\n    /* \"#utility.yul\":2121:2428   */\ntag_55:\n    /* \"#utility.yul\":2189:2190   */\n  0x00\n    /* \"#utility.yul\":2199:2312   */\ntag_93:\n    /* \"#utility.yul\":2213:2219   */\n  dup4\n    /* \"#utility.yul\":2210:2211   */\n  dup2\n    /* \"#utility.yul\":2207:2220   */\n  lt\n    /* \"#utility.yul\":2199:2312   */\n  iszero\n  tag_95\n  jumpi\n    /* \"#utility.yul\":2298:2299   */\n  dup1\n    /* \"#utility.yul\":2293:2296   */\n  dup3\n    /* \"#utility.yul\":2289:2300   */\n  add\n    /* \"#utility.yul\":2283:2301   */\n  mload\n    /* \"#utility.yul\":2279:2280   */\n  dup2\n    /* \"#utility.yul\":2274:2277   */\n  dup5\n    /* \"#utility.yul\":2270:2281   */\n  add\n    /* \"#utility.yul\":2263:2302   */\n  mstore\n    /* \"#utility.yul\":2235:2237   */\n  0x20\n    /* \"#utility.yul\":2232:2233   */\n  dup2\n    /* \"#utility.yul\":2228:2238   */\n  add\n    /* \"#utility.yul\":2223:2238   */\n  swap1\n  pop\n    /* \"#utility.yul\":2199:2312   */\n  jump(tag_93)\ntag_95:\n    /* \"#utility.yul\":2330:2336   */\n  dup4\n    /* \"#utility.yul\":2327:2328   */\n  dup2\n    /* \"#utility.yul\":2324:2337   */\n  gt\n    /* \"#utility.yul\":2321:2422   */\n  iszero\n  tag_96\n  jumpi\n    /* \"#utility.yul\":2410:2411   */\n  0x00\n    /* \"#utility.yul\":2401:2407   */\n  dup5\n    /* \"#utility.yul\":2396:2399   */\n  dup5\n    /* \"#utility.yul\":2392:2408   */\n  add\n    /* \"#utility.yul\":2385:2412   */\n  mstore\n    /* \"#utility.yul\":2321:2422   */\ntag_96:\n    /* \"#utility.yul\":2170:2428   */\n  pop\n    /* \"#utility.yul\":2121:2428   */\n  pop\n  pop\n  pop\n  jump\t// out\n    /* \"#utility.yul\":2434:2855   */\ntag_56:\n    /* \"#utility.yul\":2523:2528   */\n  0x00\n    /* \"#utility.yul\":2548:2614   */\n  tag_98\n    /* \"#utility.yul\":2564:2613   */\n  tag_99\n    /* \"#utility.yul\":2606:2612   */\n  dup5\n    /* \"#utility.yul\":2564:2613   */\n  tag_54\n  jump\t// in\ntag_99:\n    /* \"#utility.yul\":2548:2614   */\n  tag_53\n  jump\t// in\ntag_98:\n    /* \"#utility.yul\":2539:2614   */\n  swap1\n  pop\n    /* \"#utility.yul\":2637:2643   */\n  dup3\n    /* \"#utility.yul\":2630:2635   */\n  dup2\n    /* \"#utility.yul\":2623:2644   */\n  mstore\n    /* \"#utility.yul\":2675:2679   */\n  0x20\n    /* \"#utility.yul\":2668:2673   */\n  dup2\n    /* \"#utility.yul\":2664:2680   */\n  add\n    /* \"#utility.yul\":2713:2716   */\n  dup5\n    /* \"#utility.yul\":2704:2710   */\n  dup5\n    /* \"#utility.yul\":2699:2702   */\n  dup5\n    /* \"#utility.yul\":2695:2711   */\n  add\n    /* \"#utility.yul\":2692:2717   */\n  gt\n    /* \"#utility.yul\":2689:2801   */\n  iszero\n  tag_100\n  jumpi\n    /* \"#utility.yul\":2720:2799   */\n  tag_101\n  tag_49\n  jump\t// in\ntag_101:\n    /* \"#utility.yul\":2689:2801   */\ntag_100:\n    /* \"#utility.yul\":2810:2849   */\n  tag_102\n    /* \"#utility.yul\":2842:2848   */\n  dup5\n    /* \"#utility.yul\":2837:2840   */\n  dup3\n    /* \"#utility.yul\":2832:2835   */\n  dup6\n    /* \"#utility.yul\":2810:2849   */\n  tag_55\n  jump\t// in\ntag_102:\n    /* \"#utility.yul\":2529:2855   */\n  pop\n    /* \"#utility.yul\":2434:2855   */\n  swap4\n  swap3\n  pop\n  pop\n  pop\n  jump\t// out\n    /* \"#utility.yul\":2875:3230   */\ntag_57:\n    /* \"#utility.yul\":2942:2947   */\n  0x00\n    /* \"#utility.yul\":2991:2994   */\n  dup3\n    /* \"#utility.yul\":2984:2988   */\n  0x1f\n    /* \"#utility.yul\":2976:2982   */\n  dup4\n    /* \"#utility.yul\":2972:2989   */\n  add\n    /* \"#utility.yul\":2968:2995   */\n  slt\n    /* \"#utility.yul\":2958:3080   */\n  tag_104\n  jumpi\n    /* \"#utility.yul\":2999:3078   */\n  tag_105\n  tag_48\n  jump\t// in\ntag_105:\n    /* \"#utility.yul\":2958:3080   */\ntag_104:\n    /* \"#utility.yul\":3109:3115   */\n  dup2\n    /* \"#utility.yul\":3103:3116   */\n  mload\n    /* \"#utility.yul\":3134:3224   */\n  tag_106\n    /* \"#utility.yul\":3220:3223   */\n  dup5\n    /* \"#utility.yul\":3212:3218   */\n  dup3\n    /* \"#utility.yul\":3205:3209   */\n  0x20\n    /* \"#utility.yul\":3197:3203   */\n  dup7\n    /* \"#utility.yul\":3193:3210   */\n  add\n    /* \"#utility.yul\":3134:3224   */\n  tag_56\n  jump\t// in\ntag_106:\n    /* \"#utility.yul\":3125:3224   */\n  swap2\n  pop\n    /* \"#utility.yul\":2948:3230   */\n  pop\n    /* \"#utility.yul\":2875:3230   */\n  swap3\n  swap2\n  pop\n  pop\n  jump\t// out\n    /* \"#utility.yul\":3236:3557   */\ntag_58:\n    /* \"#utility.yul\":3323:3327   */\n  0x00\n    /* \"#utility.yul\":3413:3431   */\n  0xffffffffffffffff\n    /* \"#utility.yul\":3405:3411   */\n  dup3\n    /* \"#utility.yul\":3402:3432   */\n  gt\n    /* \"#utility.yul\":3399:3455   */\n  iszero\n  tag_108\n  jumpi\n    /* \"#utility.yul\":3435:3453   */\n  tag_109\n  tag_51\n  jump\t// in\ntag_109:\n    /* \"#utility.yul\":3399:3455   */\ntag_108:\n    /* \"#utility.yul\":3485:3489   */\n  0x20\n    /* \"#utility.yul\":3477:3483   */\n  dup3\n    /* \"#utility.yul\":3473:3490   */\n  mul\n    /* \"#utility.yul\":3465:3490   */\n  swap1\n  pop\n    /* \"#utility.yul\":3545:3549   */\n  0x20\n    /* \"#utility.yul\":3539:3543   */\n  dup2\n    /* \"#utility.yul\":3535:3550   */\n  add\n    /* \"#utility.yul\":3527:3550   */\n  swap1\n  pop\n    /* \"#utility.yul\":3236:3557   */\n  swap2\n  swap1\n  pop\n  jump\t// out\n    /* \"#utility.yul\":3563:3680   */\ntag_59:\n    /* \"#utility.yul\":3672:3673   */\n  0x00\n    /* \"#utility.yul\":3669:3670   */\n  dup1\n    /* \"#utility.yul\":3662:3674   */\n  revert\n    /* \"#utility.yul\":3702:4662   */\ntag_60:\n    /* \"#utility.yul\":3819:3824   */\n  0x00\n    /* \"#utility.yul\":3844:3935   */\n  tag_112\n    /* \"#utility.yul\":3860:3934   */\n  tag_113\n    /* \"#utility.yul\":3927:3933   */\n  dup5\n    /* \"#utility.yul\":3860:3934   */\n  tag_58\n  jump\t// in\ntag_113:\n    /* \"#utility.yul\":3844:3935   */\n  tag_53\n  jump\t// in\ntag_112:\n    /* \"#utility.yul\":3835:3935   */\n  swap1\n  pop\n    /* \"#utility.yul\":3955:3960   */\n  dup1\n    /* \"#utility.yul\":3984:3990   */\n  dup4\n    /* \"#utility.yul\":3977:3982   */\n  dup3\n    /* \"#utility.yul\":3970:3991   */\n  mstore\n    /* \"#utility.yul\":4018:4022   */\n  0x20\n    /* \"#utility.yul\":4011:4016   */\n  dup3\n    /* \"#utility.yul\":4007:4023   */\n  add\n    /* \"#utility.yul\":4000:4023   */\n  swap1\n  pop\n    /* \"#utility.yul\":4071:4075   */\n  0x20\n    /* \"#utility.yul\":4063:4069   */\n  dup5\n    /* \"#utility.yul\":4059:4076   */\n  mul\n    /* \"#utility.yul\":4051:4057   */\n  dup4\n    /* \"#utility.yul\":4047:4077   */\n  add\n    /* \"#utility.yul\":4100:4103   */\n  dup6\n    /* \"#utility.yul\":4092:4098   */\n  dup2\n    /* \"#utility.yul\":4089:4104   */\n  gt\n    /* \"#utility.yul\":4086:4208   */\n  iszero\n  tag_114\n  jumpi\n    /* \"#utility.yul\":4119:4198   */\n  tag_115\n  tag_59\n  jump\t// in\ntag_115:\n    /* \"#utility.yul\":4086:4208   */\ntag_114:\n    /* \"#utility.yul\":4234:4240   */\n  dup4\n    /* \"#utility.yul\":4217:4656   */\ntag_116:\n    /* \"#utility.yul\":4251:4257   */\n  dup2\n    /* \"#utility.yul\":4246:4249   */\n  dup2\n    /* \"#utility.yul\":4243:4258   */\n  lt\n    /* \"#utility.yul\":4217:4656   */\n  iszero\n  tag_118\n  jumpi\n    /* \"#utility.yul\":4333:4336   */\n  dup1\n    /* \"#utility.yul\":4327:4337   */\n  mload\n    /* \"#utility.yul\":4369:4387   */\n  0xffffffffffffffff\n    /* \"#utility.yul\":4356:4367   */\n  dup2\n    /* \"#utility.yul\":4353:4388   */\n  gt\n    /* \"#utility.yul\":4350:4472   */\n  iszero\n  tag_119\n  jumpi\n    /* \"#utility.yul\":4391:4470   */\n  tag_120\n  tag_48\n  jump\t// in\ntag_120:\n    /* \"#utility.yul\":4350:4472   */\ntag_119:\n    /* \"#utility.yul\":4515:4526   */\n  dup1\n    /* \"#utility.yul\":4507:4513   */\n  dup7\n    /* \"#utility.yul\":4503:4527   */\n  add\n    /* \"#utility.yul\":4553:4611   */\n  tag_121\n    /* \"#utility.yul\":4607:4610   */\n  dup10\n    /* \"#utility.yul\":4595:4605   */\n  dup3\n    /* \"#utility.yul\":4553:4611   */\n  tag_57\n  jump\t// in\ntag_121:\n    /* \"#utility.yul\":4548:4551   */\n  dup6\n    /* \"#utility.yul\":4541:4612   */\n  mstore\n    /* \"#utility.yul\":4641:4645   */\n  0x20\n    /* \"#utility.yul\":4636:4639   */\n  dup6\n    /* \"#utility.yul\":4632:4646   */\n  add\n    /* \"#utility.yul\":4625:4646   */\n  swap5\n  pop\n    /* \"#utility.yul\":4293:4656   */\n  pop\n  pop\n    /* \"#utility.yul\":4277:4281   */\n  0x20\n    /* \"#utility.yul\":4272:4275   */\n  dup2\n    /* \"#utility.yul\":4268:4282   */\n  add\n    /* \"#utility.yul\":4261:4282   */\n  swap1\n  pop\n    /* \"#utility.yul\":4217:4656   */\n  jump(tag_116)\ntag_118:\n    /* \"#utility.yul\":4221:4242   */\n  pop\n    /* \"#utility.yul\":3825:4662   */\n  pop\n  pop\n    /* \"#utility.yul\":3702:4662   */\n  swap4\n  swap3\n  pop\n  pop\n  pop\n  jump\t// out\n    /* \"#utility.yul\":4684:5089   */\ntag_61:\n    /* \"#utility.yul\":4776:4781   */\n  0x00\n    /* \"#utility.yul\":4825:4828   */\n  dup3\n    /* \"#utility.yul\":4818:4822   */\n  0x1f\n    /* \"#utility.yul\":4810:4816   */\n  dup4\n    /* \"#utility.yul\":4806:4823   */\n  add\n    /* \"#utility.yul\":4802:4829   */\n  slt\n    /* \"#utility.yul\":4792:4914   */\n  tag_123\n  jumpi\n    /* \"#utility.yul\":4833:4912   */\n  tag_124\n  tag_48\n  jump\t// in\ntag_124:\n    /* \"#utility.yul\":4792:4914   */\ntag_123:\n    /* \"#utility.yul\":4943:4949   */\n  dup2\n    /* \"#utility.yul\":4937:4950   */\n  mload\n    /* \"#utility.yul\":4968:5083   */\n  tag_125\n    /* \"#utility.yul\":5079:5082   */\n  dup5\n    /* \"#utility.yul\":5071:5077   */\n  dup3\n    /* \"#utility.yul\":5064:5068   */\n  0x20\n    /* \"#utility.yul\":5056:5062   */\n  dup7\n    /* \"#utility.yul\":5052:5069   */\n  add\n    /* \"#utility.yul\":4968:5083   */\n  tag_60\n  jump\t// in\ntag_125:\n    /* \"#utility.yul\":4959:5083   */\n  swap2\n  pop\n    /* \"#utility.yul\":4782:5089   */\n  pop\n    /* \"#utility.yul\":4684:5089   */\n  swap3\n  swap2\n  pop\n  pop\n  jump\t// out\n    /* \"#utility.yul\":5095:5210   */\ntag_62:\n    /* \"#utility.yul\":5184:5185   */\n  0x08\n    /* \"#utility.yul\":5177:5182   */\n  dup2\n    /* \"#utility.yul\":5174:5186   */\n  lt\n    /* \"#utility.yul\":5164:5204   */\n  tag_127\n  jumpi\n    /* \"#utility.yul\":5200:5201   */\n  0x00\n    /* \"#utility.yul\":5197:5198   */\n  dup1\n    /* \"#utility.yul\":5190:5202   */\n  revert\n    /* \"#utility.yul\":5164:5204   */\ntag_127:\n    /* \"#utility.yul\":5095:5210   */\n  pop\n  jump\t// out\n    /* \"#utility.yul\":5216:5391   */\ntag_63:\n    /* \"#utility.yul\":5289:5294   */\n  0x00\n    /* \"#utility.yul\":5320:5326   */\n  dup2\n    /* \"#utility.yul\":5314:5327   */\n  mload\n    /* \"#utility.yul\":5305:5327   */\n  swap1\n  pop\n    /* \"#utility.yul\":5336:5385   */\n  tag_129\n    /* \"#utility.yul\":5379:5384   */\n  dup2\n    /* \"#utility.yul\":5336:5385   */\n  tag_62\n  jump\t// in\ntag_129:\n    /* \"#utility.yul\":5216:5391   */\n  swap3\n  swap2\n  pop\n  pop\n  jump\t// out\n    /* \"#utility.yul\":5397:7462   */\ntag_3:\n    /* \"#utility.yul\":5602:5608   */\n  0x00\n    /* \"#utility.yul\":5610:5616   */\n  dup1\n    /* \"#utility.yul\":5618:5624   */\n  0x00\n    /* \"#utility.yul\":5626:5632   */\n  dup1\n    /* \"#utility.yul\":5634:5640   */\n  0x00\n    /* \"#utility.yul\":5642:5648   */\n  dup1\n    /* \"#utility.yul\":5650:5656   */\n  0x00\n    /* \"#utility.yul\":5699:5702   */\n  0xe0\n    /* \"#utility.yul\":5687:5696   */\n  dup9\n    /* \"#utility.yul\":5678:5685   */\n  dup11\n    /* \"#utility.yul\":5674:5697   */\n  sub\n    /* \"#utility.yul\":5670:5703   */\n  slt\n    /* \"#utility.yul\":5667:5787   */\n  iszero\n  tag_131\n  jumpi\n    /* \"#utility.yul\":5706:5785   */\n  tag_132\n  tag_42\n  jump\t// in\ntag_132:\n    /* \"#utility.yul\":5667:5787   */\ntag_131:\n    /* \"#utility.yul\":5826:5827   */\n  0x00\n    /* \"#utility.yul\":5851:5915   */\n  tag_133\n    /* \"#utility.yul\":5907:5914   */\n  dup11\n    /* \"#utility.yul\":5898:5904   */\n  dup3\n    /* \"#utility.yul\":5887:5896   */\n  dup12\n    /* \"#utility.yul\":5883:5905   */\n  add\n    /* \"#utility.yul\":5851:5915   */\n  tag_47\n  jump\t// in\ntag_133:\n    /* \"#utility.yul\":5841:5915   */\n  swap8\n  pop\n    /* \"#utility.yul\":5797:5925   */\n  pop\n    /* \"#utility.yul\":5964:5966   */\n  0x20\n    /* \"#utility.yul\":5990:6054   */\n  tag_134\n    /* \"#utility.yul\":6046:6053   */\n  dup11\n    /* \"#utility.yul\":6037:6043   */\n  dup3\n    /* \"#utility.yul\":6026:6035   */\n  dup12\n    /* \"#utility.yul\":6022:6044   */\n  add\n    /* \"#utility.yul\":5990:6054   */\n  tag_47\n  jump\t// in\ntag_134:\n    /* \"#utility.yul\":5980:6054   */\n  swap7\n  pop\n    /* \"#utility.yul\":5935:6064   */\n  pop\n    /* \"#utility.yul\":6124:6126   */\n  0x40\n    /* \"#utility.yul\":6113:6122   */\n  dup9\n    /* \"#utility.yul\":6109:6127   */\n  add\n    /* \"#utility.yul\":6103:6128   */\n  mload\n    /* \"#utility.yul\":6155:6173   */\n  0xffffffffffffffff\n    /* \"#utility.yul\":6147:6153   */\n  dup2\n    /* \"#utility.yul\":6144:6174   */\n  gt\n    /* \"#utility.yul\":6141:6258   */\n  iszero\n  tag_135\n  jumpi\n    /* \"#utility.yul\":6177:6256   */\n  tag_136\n  tag_43\n  jump\t// in\ntag_136:\n    /* \"#utility.yul\":6141:6258   */\ntag_135:\n    /* \"#utility.yul\":6282:6356   */\n  tag_137\n    /* \"#utility.yul\":6348:6355   */\n  dup11\n    /* \"#utility.yul\":6339:6345   */\n  dup3\n    /* \"#utility.yul\":6328:6337   */\n  dup12\n    /* \"#utility.yul\":6324:6346   */\n  add\n    /* \"#utility.yul\":6282:6356   */\n  tag_57\n  jump\t// in\ntag_137:\n    /* \"#utility.yul\":6272:6356   */\n  swap6\n  pop\n    /* \"#utility.yul\":6074:6366   */\n  pop\n    /* \"#utility.yul\":6426:6428   */\n  0x60\n    /* \"#utility.yul\":6415:6424   */\n  dup9\n    /* \"#utility.yul\":6411:6429   */\n  add\n    /* \"#utility.yul\":6405:6430   */\n  mload\n    /* \"#utility.yul\":6457:6475   */\n  0xffffffffffffffff\n    /* \"#utility.yul\":6449:6455   */\n  dup2\n    /* \"#utility.yul\":6446:6476   */\n  gt\n    /* \"#utility.yul\":6443:6560   */\n  iszero\n  tag_138\n  jumpi\n    /* \"#utility.yul\":6479:6558   */\n  tag_139\n  tag_43\n  jump\t// in\ntag_139:\n    /* \"#utility.yul\":6443:6560   */\ntag_138:\n    /* \"#utility.yul\":6584:6658   */\n  tag_140\n    /* \"#utility.yul\":6650:6657   */\n  dup11\n    /* \"#utility.yul\":6641:6647   */\n  dup3\n    /* \"#utility.yul\":6630:6639   */\n  dup12\n    /* \"#utility.yul\":6626:6648   */\n  add\n    /* \"#utility.yul\":6584:6658   */\n  tag_57\n  jump\t// in\ntag_140:\n    /* \"#utility.yul\":6574:6658   */\n  swap5\n  pop\n    /* \"#utility.yul\":6376:6668   */\n  pop\n    /* \"#utility.yul\":6728:6731   */\n  0x80\n    /* \"#utility.yul\":6717:6726   */\n  dup9\n    /* \"#utility.yul\":6713:6732   */\n  add\n    /* \"#utility.yul\":6707:6733   */\n  mload\n    /* \"#utility.yul\":6760:6778   */\n  0xffffffffffffffff\n    /* \"#utility.yul\":6752:6758   */\n  dup2\n    /* \"#utility.yul\":6749:6779   */\n  gt\n    /* \"#utility.yul\":6746:6863   */\n  iszero\n  tag_141\n  jumpi\n    /* \"#utility.yul\":6782:6861   */\n  tag_142\n  tag_43\n  jump\t// in\ntag_142:\n    /* \"#utility.yul\":6746:6863   */\ntag_141:\n    /* \"#utility.yul\":6887:6961   */\n  tag_143\n    /* \"#utility.yul\":6953:6960   */\n  dup11\n    /* \"#utility.yul\":6944:6950   */\n  dup3\n    /* \"#utility.yul\":6933:6942   */\n  dup12\n    /* \"#utility.yul\":6929:6951   */\n  add\n    /* \"#utility.yul\":6887:6961   */\n  tag_57\n  jump\t// in\ntag_143:\n    /* \"#utility.yul\":6877:6961   */\n  swap4\n  pop\n    /* \"#utility.yul\":6678:6971   */\n  pop\n    /* \"#utility.yul\":7031:7034   */\n  0xa0\n    /* \"#utility.yul\":7020:7029   */\n  dup9\n    /* \"#utility.yul\":7016:7035   */\n  add\n    /* \"#utility.yul\":7010:7036   */\n  mload\n    /* \"#utility.yul\":7063:7081   */\n  0xffffffffffffffff\n    /* \"#utility.yul\":7055:7061   */\n  dup2\n    /* \"#utility.yul\":7052:7082   */\n  gt\n    /* \"#utility.yul\":7049:7166   */\n  iszero\n  tag_144\n  jumpi\n    /* \"#utility.yul\":7085:7164   */\n  tag_145\n  tag_43\n  jump\t// in\ntag_145:\n    /* \"#utility.yul\":7049:7166   */\ntag_144:\n    /* \"#utility.yul\":7190:7289   */\n  tag_146\n    /* \"#utility.yul\":7281:7288   */\n  dup11\n    /* \"#utility.yul\":7272:7278   */\n  dup3\n    /* \"#utility.yul\":7261:7270   */\n  dup12\n    /* \"#utility.yul\":7257:7279   */\n  add\n    /* \"#utility.yul\":7190:7289   */\n  tag_61\n  jump\t// in\ntag_146:\n    /* \"#utility.yul\":7180:7289   */\n  swap3\n  pop\n    /* \"#utility.yul\":6981:7299   */\n  pop\n    /* \"#utility.yul\":7338:7341   */\n  0xc0\n    /* \"#utility.yul\":7365:7445   */\n  tag_147\n    /* \"#utility.yul\":7437:7444   */\n  dup11\n    /* \"#utility.yul\":7428:7434   */\n  dup3\n    /* \"#utility.yul\":7417:7426   */\n  dup12\n    /* \"#utility.yul\":7413:7435   */\n  add\n    /* \"#utility.yul\":7365:7445   */\n  tag_63\n  jump\t// in\ntag_147:\n    /* \"#utility.yul\":7355:7445   */\n  swap2\n  pop\n    /* \"#utility.yul\":7309:7455   */\n  pop\n    /* \"#utility.yul\":5397:7462   */\n  swap3\n  swap6\n  swap9\n  swap2\n  swap5\n  swap8\n  pop\n  swap3\n  swap6\n  pop\n  jump\t// out\n    /* \"#utility.yul\":7468:7648   */\ntag_14:\n    /* \"#utility.yul\":7516:7593   */\n  0x4e487b7100000000000000000000000000000000000000000000000000000000\n    /* \"#utility.yul\":7513:7514   */\n  0x00\n    /* \"#utility.yul\":7506:7594   */\n  mstore\n    /* \"#utility.yul\":7613:7617   */\n  0x21\n    /* \"#utility.yul\":7610:7611   */\n  0x04\n    /* \"#utility.yul\":7603:7618   */\n  mstore\n    /* \"#utility.yul\":7637:7641   */\n  0x24\n    /* \"#utility.yul\":7634:7635   */\n  0x00\n    /* \"#utility.yul\":7627:7642   */\n  revert\n    /* \"#utility.yul\":7654:7834   */\ntag_64:\n    /* \"#utility.yul\":7702:7779   */\n  0x4e487b7100000000000000000000000000000000000000000000000000000000\n    /* \"#utility.yul\":7699:7700   */\n  0x00\n    /* \"#utility.yul\":7692:7780   */\n  mstore\n    /* \"#utility.yul\":7799:7803   */\n  0x22\n    /* \"#utility.yul\":7796:7797   */\n  0x04\n    /* \"#utility.yul\":7789:7804   */\n  mstore\n    /* \"#utility.yul\":7823:7827   */\n  0x24\n    /* \"#utility.yul\":7820:7821   */\n  0x00\n    /* \"#utility.yul\":7813:7828   */\n  revert\n    /* \"#utility.yul\":7840:8160   */\ntag_17:\n    /* \"#utility.yul\":7884:7890   */\n  0x00\n    /* \"#utility.yul\":7921:7922   */\n  0x02\n    /* \"#utility.yul\":7915:7919   */\n  dup3\n    /* \"#utility.yul\":7911:7923   */\n  div\n    /* \"#utility.yul\":7901:7923   */\n  swap1\n  pop\n    /* \"#utility.yul\":7968:7969   */\n  0x01\n    /* \"#utility.yul\":7962:7966   */\n  dup3\n    /* \"#utility.yul\":7958:7970   */\n  and\n    /* \"#utility.yul\":7989:8007   */\n  dup1\n    /* \"#utility.yul\":7979:8060   */\n  tag_151\n  jumpi\n    /* \"#utility.yul\":8045:8049   */\n  0x7f\n    /* \"#utility.yul\":8037:8043   */\n  dup3\n    /* \"#utility.yul\":8033:8050   */\n  and\n    /* \"#utility.yul\":8023:8050   */\n  swap2\n  pop\n    /* \"#utility.yul\":7979:8060   */\ntag_151:\n    /* \"#utility.yul\":8107:8109   */\n  0x20\n    /* \"#utility.yul\":8099:8105   */\n  dup3\n    /* \"#utility.yul\":8096:8110   */\n  lt\n    /* \"#utility.yul\":8076:8094   */\n  dup2\n    /* \"#utility.yul\":8073:8111   */\n  eq\n    /* \"#utility.yul\":8070:8154   */\n  iszero\n  tag_152\n  jumpi\n    /* \"#utility.yul\":8126:8144   */\n  tag_153\n  tag_64\n  jump\t// in\ntag_153:\n    /* \"#utility.yul\":8070:8154   */\ntag_152:\n    /* \"#utility.yul\":7891:8160   */\n  pop\n    /* \"#utility.yul\":7840:8160   */\n  swap2\n  swap1\n  pop\n  jump\t// out\n    /* \"Manuscript.sol\":803:2791  contract Manuscript is FieldResearchDef {... */\ntag_15:\n  dataSize(sub_0)\n  dup1\n  dataOffset(sub_0)\n  0x00\n  codecopy\n  0x00\n  return\nstop\n\nsub_0: assembly {\n        /* \"Manuscript.sol\":803:2791  contract Manuscript is FieldResearchDef {... */\n      mstore(0x40, 0x80)\n      callvalue\n      dup1\n      iszero\n      tag_1\n      jumpi\n      0x00\n      dup1\n      revert\n    tag_1:\n      pop\n      jumpi(tag_2, lt(calldatasize, 0x04))\n      shr(0xe0, calldataload(0x00))\n      dup1\n      0x6604b722\n      gt\n      tag_19\n      jumpi\n      dup1\n      0xa6c3e6b9\n      gt\n      tag_20\n      jumpi\n      dup1\n      0xa6c3e6b9\n      eq\n      tag_15\n      jumpi\n      dup1\n      0xcccf1cfd\n      eq\n      tag_16\n      jumpi\n      dup1\n      0xe83ddcea\n      eq\n      tag_17\n      jumpi\n      dup1\n      0xf7cbb1b2\n      eq\n      tag_18\n      jumpi\n      jump(tag_2)\n    tag_20:\n      dup1\n      0x6604b722\n      eq\n      tag_11\n      jumpi\n      dup1\n      0x7284e416\n      eq\n      tag_12\n      jumpi\n      dup1\n      0x8fbbff8d\n      eq\n      tag_13\n      jumpi\n      dup1\n      0xa464d265\n      eq\n      tag_14\n      jumpi\n      jump(tag_2)\n    tag_19:\n      dup1\n      0x20822abc\n      gt\n      tag_21\n      jumpi\n      dup1\n      0x20822abc\n      eq\n      tag_7\n      jumpi\n      dup1\n      0x4051ddac\n      eq\n      tag_8\n      jumpi\n      dup1\n      0x4a79d50c\n      eq\n      tag_9\n      jumpi\n      dup1\n      0x4f28bf0e\n      eq\n      tag_10\n      jumpi\n      jump(tag_2)\n    tag_21:\n      dup1\n      0x02a5d5f0\n      eq\n      tag_3\n      jumpi\n      dup1\n      0x1435ba3c\n      eq\n      tag_4\n      jumpi\n      dup1\n      0x1b1e1324\n      eq\n      tag_5\n      jumpi\n      dup1\n      0x1c2cd130\n      eq\n      tag_6\n      jumpi\n    tag_2:\n      0x00\n      dup1\n      revert\n        /* \"Manuscript.sol\":908:946  address payable[] public reviewersList */\n    tag_3:\n      tag_22\n      0x04\n      dup1\n      calldatasize\n      sub\n      dup2\n      add\n      swap1\n      tag_23\n      swap2\n      swap1\n      tag_24\n      jump\t// in\n    tag_23:\n      tag_25\n      jump\t// in\n    tag_22:\n      mload(0x40)\n      tag_26\n      swap2\n      swap1\n      tag_27\n      jump\t// in\n    tag_26:\n      mload(0x40)\n      dup1\n      swap2\n      sub\n      swap1\n      return\n        /* \"Manuscript.sol\":2570:2664  function getReviewsCount() public view returns (uint) {... */\n    tag_4:\n      tag_28\n      tag_29\n      jump\t// in\n    tag_28:\n      mload(0x40)\n      tag_30\n      swap2\n      swap1\n      tag_31\n      jump\t// in\n    tag_30:\n      mload(0x40)\n      dup1\n      swap2\n      sub\n      swap1\n      return\n        /* \"Manuscript.sol\":2138:2231  function getReviews() public view returns (Review[] memory) {... */\n    tag_5:\n      tag_32\n      tag_33\n      jump\t// in\n    tag_32:\n      mload(0x40)\n      tag_34\n      swap2\n      swap1\n      tag_35\n      jump\t// in\n    tag_34:\n      mload(0x40)\n      dup1\n      swap2\n      sub\n      swap1\n      return\n        /* \"Manuscript.sol\":1001:1021  string public doccid */\n    tag_6:\n      tag_36\n      tag_37\n      jump\t// in\n    tag_36:\n      mload(0x40)\n      tag_38\n      swap2\n      swap1\n      tag_39\n      jump\t// in\n    tag_38:\n      mload(0x40)\n      dup1\n      swap2\n      sub\n      swap1\n      return\n        /* \"Manuscript.sol\":1086:1106  string[] public tags */\n    tag_7:\n      tag_40\n      0x04\n      dup1\n      calldatasize\n      sub\n      dup2\n      add\n      swap1\n      tag_41\n      swap2\n      swap1\n      tag_24\n      jump\t// in\n    tag_41:\n      tag_42\n      jump\t// in\n    tag_40:\n      mload(0x40)\n      tag_43\n      swap2\n      swap1\n      tag_39\n      jump\t// in\n    tag_43:\n      mload(0x40)\n      dup1\n      swap2\n      sub\n      swap1\n      return\n        /* \"Manuscript.sol\":2239:2562  function getSummary() public view returns (string memory, address, address, string memory, string memory, string[] memory, FieldResearch) {... */\n    tag_8:\n      tag_44\n      tag_45\n      jump\t// in\n    tag_44:\n      mload(0x40)\n      tag_46\n      swap8\n      swap7\n      swap6\n      swap5\n      swap4\n      swap3\n      swap2\n      swap1\n      tag_47\n      jump\t// in\n    tag_46:\n      mload(0x40)\n      dup1\n      swap2\n      sub\n      swap1\n      return\n        /* \"Manuscript.sol\":1028:1047  string public title */\n    tag_9:\n      tag_48\n      tag_49\n      jump\t// in\n    tag_48:\n      mload(0x40)\n      tag_50\n      swap2\n      swap1\n      tag_39\n      jump\t// in\n    tag_50:\n      mload(0x40)\n      dup1\n      swap2\n      sub\n      swap1\n      return\n        /* \"Manuscript.sol\":1115:1141  FieldResearch public field */\n    tag_10:\n      tag_51\n      tag_52\n      jump\t// in\n    tag_51:\n      mload(0x40)\n      tag_53\n      swap2\n      swap1\n      tag_54\n      jump\t// in\n    tag_53:\n      mload(0x40)\n      dup1\n      swap2\n      sub\n      swap1\n      return\n        /* \"Manuscript.sol\":1645:1881  function submitReview(string memory doccidp) public {... */\n    tag_11:\n      tag_55\n      0x04\n      dup1\n      calldatasize\n      sub\n      dup2\n      add\n      swap1\n      tag_56\n      swap2\n      swap1\n      tag_57\n      jump\t// in\n    tag_56:\n      tag_58\n      jump\t// in\n    tag_55:\n      stop\n        /* \"Manuscript.sol\":1054:1079  string public description */\n    tag_12:\n      tag_59\n      tag_60\n      jump\t// in\n    tag_59:\n      mload(0x40)\n      tag_61\n      swap2\n      swap1\n      tag_39\n      jump\t// in\n    tag_61:\n      mload(0x40)\n      dup1\n      swap2\n      sub\n      swap1\n      return\n        /* \"Manuscript.sol\":2672:2786  function getReviewersList() public view returns (address payable[] memory) {... */\n    tag_13:\n      tag_62\n      tag_63\n      jump\t// in\n    tag_62:\n      mload(0x40)\n      tag_64\n      swap2\n      swap1\n      tag_65\n      jump\t// in\n    tag_64:\n      mload(0x40)\n      dup1\n      swap2\n      sub\n      swap1\n      return\n        /* \"Manuscript.sol\":880:901  address public editor */\n    tag_14:\n      tag_66\n      tag_67\n      jump\t// in\n    tag_66:\n      mload(0x40)\n      tag_68\n      swap2\n      swap1\n      tag_69\n      jump\t// in\n    tag_68:\n      mload(0x40)\n      dup1\n      swap2\n      sub\n      swap1\n      return\n        /* \"Manuscript.sol\":852:873  address public author */\n    tag_15:\n      tag_70\n      tag_71\n      jump\t// in\n    tag_70:\n      mload(0x40)\n      tag_72\n      swap2\n      swap1\n      tag_69\n      jump\t// in\n    tag_72:\n      mload(0x40)\n      dup1\n      swap2\n      sub\n      swap1\n      return\n        /* \"Manuscript.sol\":1889:2130  function assignReviewer(address reviewerp) public {... */\n    tag_16:\n      tag_73\n      0x04\n      dup1\n      calldatasize\n      sub\n      dup2\n      add\n      swap1\n      tag_74\n      swap2\n      swap1\n      tag_75\n      jump\t// in\n    tag_74:\n      tag_76\n      jump\t// in\n    tag_73:\n      stop\n        /* \"Manuscript.sol\":1235:1258  Review[] public reviews */\n    tag_17:\n      tag_77\n      0x04\n      dup1\n      calldatasize\n      sub\n      dup2\n      add\n      swap1\n      tag_78\n      swap2\n      swap1\n      tag_24\n      jump\t// in\n    tag_78:\n      tag_79\n      jump\t// in\n    tag_77:\n      mload(0x40)\n      tag_80\n      swap3\n      swap2\n      swap1\n      tag_81\n      jump\t// in\n    tag_80:\n      mload(0x40)\n      dup1\n      swap2\n      sub\n      swap1\n      return\n        /* \"Manuscript.sol\":953:994  mapping(address => bool) public reviewers */\n    tag_18:\n      tag_82\n      0x04\n      dup1\n      calldatasize\n      sub\n      dup2\n      add\n      swap1\n      tag_83\n      swap2\n      swap1\n      tag_75\n      jump\t// in\n    tag_83:\n      tag_84\n      jump\t// in\n    tag_82:\n      mload(0x40)\n      tag_85\n      swap2\n      swap1\n      tag_86\n      jump\t// in\n    tag_85:\n      mload(0x40)\n      dup1\n      swap2\n      sub\n      swap1\n      return\n        /* \"Manuscript.sol\":908:946  address payable[] public reviewersList */\n    tag_25:\n      0x02\n      dup2\n      dup2\n      sload\n      dup2\n      lt\n      tag_87\n      jumpi\n      0x00\n      dup1\n      revert\n    tag_87:\n      swap1\n      0x00\n      mstore\n      keccak256(0x00, 0x20)\n      add\n      0x00\n      swap2\n      pop\n      sload\n      swap1\n      0x0100\n      exp\n      swap1\n      div\n      0xffffffffffffffffffffffffffffffffffffffff\n      and\n      dup2\n      jump\t// out\n        /* \"Manuscript.sol\":2570:2664  function getReviewsCount() public view returns (uint) {... */\n    tag_29:\n        /* \"Manuscript.sol\":2618:2622  uint */\n      0x00\n        /* \"Manuscript.sol\":2642:2649  reviews */\n      0x09\n        /* \"Manuscript.sol\":2642:2656  reviews.length */\n      dup1\n      sload\n      swap1\n      pop\n        /* \"Manuscript.sol\":2635:2656  return reviews.length */\n      swap1\n      pop\n        /* \"Manuscript.sol\":2570:2664  function getReviewsCount() public view returns (uint) {... */\n      swap1\n      jump\t// out\n        /* \"Manuscript.sol\":2138:2231  function getReviews() public view returns (Review[] memory) {... */\n    tag_33:\n        /* \"Manuscript.sol\":2181:2196  Review[] memory */\n      0x60\n        /* \"Manuscript.sol\":2216:2223  reviews */\n      0x09\n        /* \"Manuscript.sol\":2209:2223  return reviews */\n      dup1\n      sload\n      dup1\n      0x20\n      mul\n      0x20\n      add\n      mload(0x40)\n      swap1\n      dup2\n      add\n      0x40\n      mstore\n      dup1\n      swap3\n      swap2\n      swap1\n      dup2\n      dup2\n      mstore\n      0x20\n      add\n      0x00\n      swap1\n    tag_91:\n      dup3\n      dup3\n      lt\n      iszero\n      tag_92\n      jumpi\n      dup4\n      dup3\n      swap1\n      0x00\n      mstore\n      keccak256(0x00, 0x20)\n      swap1\n      0x02\n      mul\n      add\n      mload(0x40)\n      dup1\n      0x40\n      add\n      0x40\n      mstore\n      swap1\n      dup2\n      0x00\n      dup3\n      add\n      0x00\n      swap1\n      sload\n      swap1\n      0x0100\n      exp\n      swap1\n      div\n      0xffffffffffffffffffffffffffffffffffffffff\n      and\n      0xffffffffffffffffffffffffffffffffffffffff\n      and\n      0xffffffffffffffffffffffffffffffffffffffff\n      and\n      dup2\n      mstore\n      0x20\n      add\n      0x01\n      dup3\n      add\n      dup1\n      sload\n      tag_94\n      swap1\n      tag_95\n      jump\t// in\n    tag_94:\n      dup1\n      0x1f\n      add\n      0x20\n      dup1\n      swap2\n      div\n      mul\n      0x20\n      add\n      mload(0x40)\n      swap1\n      dup2\n      add\n      0x40\n      mstore\n      dup1\n      swap3\n      swap2\n      swap1\n      dup2\n      dup2\n      mstore\n      0x20\n      add\n      dup3\n      dup1\n      sload\n      tag_96\n      swap1\n      tag_95\n      jump\t// in\n    tag_96:\n      dup1\n      iszero\n      tag_97\n      jumpi\n      dup1\n      0x1f\n      lt\n      tag_98\n      jumpi\n      0x0100\n      dup1\n      dup4\n      sload\n      div\n      mul\n      dup4\n      mstore\n      swap2\n      0x20\n      add\n      swap2\n      jump(tag_97)\n    tag_98:\n      dup3\n      add\n      swap2\n      swap1\n      0x00\n      mstore\n      keccak256(0x00, 0x20)\n      swap1\n    tag_99:\n      dup2\n      sload\n      dup2\n      mstore\n      swap1\n      0x01\n      add\n      swap1\n      0x20\n      add\n      dup1\n      dup4\n      gt\n      tag_99\n      jumpi\n      dup3\n      swap1\n      sub\n      0x1f\n      and\n      dup3\n      add\n      swap2\n    tag_97:\n      pop\n      pop\n      pop\n      pop\n      pop\n      dup2\n      mstore\n      pop\n      pop\n      dup2\n      mstore\n      0x20\n      add\n      swap1\n      0x01\n      add\n      swap1\n      jump(tag_91)\n    tag_92:\n      pop\n      pop\n      pop\n      pop\n      swap1\n      pop\n        /* \"Manuscript.sol\":2138:2231  function getReviews() public view returns (Review[] memory) {... */\n      swap1\n      jump\t// out\n        /* \"Manuscript.sol\":1001:1021  string public doccid */\n    tag_37:\n      0x04\n      dup1\n      sload\n      tag_100\n      swap1\n      tag_95\n      jump\t// in\n    tag_100:\n      dup1\n      0x1f\n      add\n      0x20\n      dup1\n      swap2\n      div\n      mul\n      0x20\n      add\n      mload(0x40)\n      swap1\n      dup2\n      add\n      0x40\n      mstore\n      dup1\n      swap3\n      swap2\n      swap1\n      dup2\n      dup2\n      mstore\n      0x20\n      add\n      dup3\n      dup1\n      sload\n      tag_101\n      swap1\n      tag_95\n      jump\t// in\n    tag_101:\n      dup1\n      iszero\n      tag_102\n      jumpi\n      dup1\n      0x1f\n      lt\n      tag_103\n      jumpi\n      0x0100\n      dup1\n      dup4\n      sload\n      div\n      mul\n      dup4\n      mstore\n      swap2\n      0x20\n      add\n      swap2\n      jump(tag_102)\n    tag_103:\n      dup3\n      add\n      swap2\n      swap1\n      0x00\n      mstore\n      keccak256(0x00, 0x20)\n      swap1\n    tag_104:\n      dup2\n      sload\n      dup2\n      mstore\n      swap1\n      0x01\n      add\n      swap1\n      0x20\n      add\n      dup1\n      dup4\n      gt\n      tag_104\n      jumpi\n      dup3\n      swap1\n      sub\n      0x1f\n      and\n      dup3\n      add\n      swap2\n    tag_102:\n      pop\n      pop\n      pop\n      pop\n      pop\n      dup2\n      jump\t// out\n        /* \"Manuscript.sol\":1086:1106  string[] public tags */\n    tag_42:\n      0x07\n      dup2\n      dup2\n      sload\n      dup2\n      lt\n      tag_105\n      jumpi\n      0x00\n      dup1\n      revert\n    tag_105:\n      swap1\n      0x00\n      mstore\n      keccak256(0x00, 0x20)\n      add\n      0x00\n      swap2\n      pop\n      swap1\n      pop\n      dup1\n      sload\n      tag_107\n      swap1\n      tag_95\n      jump\t// in\n    tag_107:\n      dup1\n      0x1f\n      add\n      0x20\n      dup1\n      swap2\n      div\n      mul\n      0x20\n      add\n      mload(0x40)\n      swap1\n      dup2\n      add\n      0x40\n      mstore\n      dup1\n      swap3\n      swap2\n      swap1\n      dup2\n      dup2\n      mstore\n      0x20\n      add\n      dup3\n      dup1\n      sload\n      tag_108\n      swap1\n      tag_95\n      jump\t// in\n    tag_108:\n      dup1\n      iszero\n      tag_109\n      jumpi\n      dup1\n      0x1f\n      lt\n      tag_110\n      jumpi\n      0x0100\n      dup1\n      dup4\n      sload\n      div\n      mul\n      dup4\n      mstore\n      swap2\n      0x20\n      add\n      swap2\n      jump(tag_109)\n    tag_110:\n      dup3\n      add\n      swap2\n      swap1\n      0x00\n      mstore\n      keccak256(0x00, 0x20)\n      swap1\n    tag_111:\n      dup2\n      sload\n      dup2\n      mstore\n      swap1\n      0x01\n      add\n      swap1\n      0x20\n      add\n      dup1\n      dup4\n      gt\n      tag_111\n      jumpi\n      dup3\n      swap1\n      sub\n      0x1f\n      and\n      dup3\n      add\n      swap2\n    tag_109:\n      pop\n      pop\n      pop\n      pop\n      pop\n      dup2\n      jump\t// out\n        /* \"Manuscript.sol\":2239:2562  function getSummary() public view returns (string memory, address, address, string memory, string memory, string[] memory, FieldResearch) {... */\n    tag_45:\n        /* \"Manuscript.sol\":2282:2295  string memory */\n      0x60\n        /* \"Manuscript.sol\":2297:2304  address */\n      0x00\n        /* \"Manuscript.sol\":2306:2313  address */\n      dup1\n        /* \"Manuscript.sol\":2315:2328  string memory */\n      0x60\n        /* \"Manuscript.sol\":2330:2343  string memory */\n      dup1\n        /* \"Manuscript.sol\":2345:2360  string[] memory */\n      0x60\n        /* \"Manuscript.sol\":2362:2375  FieldResearch */\n      0x00\n        /* \"Manuscript.sol\":2410:2415  title */\n      0x05\n        /* \"Manuscript.sol\":2430:2436  author */\n      0x00\n      dup1\n      sload\n      swap1\n      0x0100\n      exp\n      swap1\n      div\n      0xffffffffffffffffffffffffffffffffffffffff\n      and\n        /* \"Manuscript.sol\":2451:2457  editor */\n      0x01\n      0x00\n      swap1\n      sload\n      swap1\n      0x0100\n      exp\n      swap1\n      div\n      0xffffffffffffffffffffffffffffffffffffffff\n      and\n        /* \"Manuscript.sol\":2472:2478  doccid */\n      0x04\n        /* \"Manuscript.sol\":2493:2504  description */\n      0x06\n        /* \"Manuscript.sol\":2519:2523  tags */\n      0x07\n        /* \"Manuscript.sol\":2538:2543  field */\n      0x08\n      0x00\n      swap1\n      sload\n      swap1\n      0x0100\n      exp\n      swap1\n      div\n      0xff\n      and\n        /* \"Manuscript.sol\":2388:2554  return (... */\n      dup7\n      dup1\n      sload\n      tag_113\n      swap1\n      tag_95\n      jump\t// in\n    tag_113:\n      dup1\n      0x1f\n      add\n      0x20\n      dup1\n      swap2\n      div\n      mul\n      0x20\n      add\n      mload(0x40)\n      swap1\n      dup2\n      add\n      0x40\n      mstore\n      dup1\n      swap3\n      swap2\n      swap1\n      dup2\n      dup2\n      mstore\n      0x20\n      add\n      dup3\n      dup1\n      sload\n      tag_114\n      swap1\n      tag_95\n      jump\t// in\n    tag_114:\n      dup1\n      iszero\n      tag_115\n      jumpi\n      dup1\n      0x1f\n      lt\n      tag_116\n      jumpi\n      0x0100\n      dup1\n      dup4\n      sload\n      div\n      mul\n      dup4\n      mstore\n      swap2\n      0x20\n      add\n      swap2\n      jump(tag_115)\n    tag_116:\n      dup3\n      add\n      swap2\n      swap1\n      0x00\n      mstore\n      keccak256(0x00, 0x20)\n      swap1\n    tag_117:\n      dup2\n      sload\n      dup2\n      mstore\n      swap1\n      0x01\n      add\n      swap1\n      0x20\n      add\n      dup1\n      dup4\n      gt\n      tag_117\n      jumpi\n      dup3\n      swap1\n      sub\n      0x1f\n      and\n      dup3\n      add\n      swap2\n    tag_115:\n      pop\n      pop\n      pop\n      pop\n      pop\n      swap7\n      pop\n      dup4\n      dup1\n      sload\n      tag_118\n      swap1\n      tag_95\n      jump\t// in\n    tag_118:\n      dup1\n      0x1f\n      add\n      0x20\n      dup1\n      swap2\n      div\n      mul\n      0x20\n      add\n      mload(0x40)\n      swap1\n      dup2\n      add\n      0x40\n      mstore\n      dup1\n      swap3\n      swap2\n      swap1\n      dup2\n      dup2\n      mstore\n      0x20\n      add\n      dup3\n      dup1\n      sload\n      tag_119\n      swap1\n      tag_95\n      jump\t// in\n    tag_119:\n      dup1\n      iszero\n      tag_120\n      jumpi\n      dup1\n      0x1f\n      lt\n      tag_121\n      jumpi\n      0x0100\n      dup1\n      dup4\n      sload\n      div\n      mul\n      dup4\n      mstore\n      swap2\n      0x20\n      add\n      swap2\n      jump(tag_120)\n    tag_121:\n      dup3\n      add\n      swap2\n      swap1\n      0x00\n      mstore\n      keccak256(0x00, 0x20)\n      swap1\n    tag_122:\n      dup2\n      sload\n      dup2\n      mstore\n      swap1\n      0x01\n      add\n      swap1\n      0x20\n      add\n      dup1\n      dup4\n      gt\n      tag_122\n      jumpi\n      dup3\n      swap1\n      sub\n      0x1f\n      and\n      dup3\n      add\n      swap2\n    tag_120:\n      pop\n      pop\n      pop\n      pop\n      pop\n      swap4\n      pop\n      dup3\n      dup1\n      sload\n      tag_123\n      swap1\n      tag_95\n      jump\t// in\n    tag_123:\n      dup1\n      0x1f\n      add\n      0x20\n      dup1\n      swap2\n      div\n      mul\n      0x20\n      add\n      mload(0x40)\n      swap1\n      dup2\n      add\n      0x40\n      mstore\n      dup1\n      swap3\n      swap2\n      swap1\n      dup2\n      dup2\n      mstore\n      0x20\n      add\n      dup3\n      dup1\n      sload\n      tag_124\n      swap1\n      tag_95\n      jump\t// in\n    tag_124:\n      dup1\n      iszero\n      tag_125\n      jumpi\n      dup1\n      0x1f\n      lt\n      tag_126\n      jumpi\n      0x0100\n      dup1\n      dup4\n      sload\n      div\n      mul\n      dup4\n      mstore\n      swap2\n      0x20\n      add\n      swap2\n      jump(tag_125)\n    tag_126:\n      dup3\n      add\n      swap2\n      swap1\n      0x00\n      mstore\n      keccak256(0x00, 0x20)\n      swap1\n    tag_127:\n      dup2\n      sload\n      dup2\n      mstore\n      swap1\n      0x01\n      add\n      swap1\n      0x20\n      add\n      dup1\n      dup4\n      gt\n      tag_127\n      jumpi\n      dup3\n      swap1\n      sub\n      0x1f\n      and\n      dup3\n      add\n      swap2\n    tag_125:\n      pop\n      pop\n      pop\n      pop\n      pop\n      swap3\n      pop\n      dup2\n      dup1\n      sload\n      dup1\n      0x20\n      mul\n      0x20\n      add\n      mload(0x40)\n      swap1\n      dup2\n      add\n      0x40\n      mstore\n      dup1\n      swap3\n      swap2\n      swap1\n      dup2\n      dup2\n      mstore\n      0x20\n      add\n      0x00\n      swap1\n    tag_128:\n      dup3\n      dup3\n      lt\n      iszero\n      tag_129\n      jumpi\n      dup4\n      dup3\n      swap1\n      0x00\n      mstore\n      keccak256(0x00, 0x20)\n      add\n      dup1\n      sload\n      tag_131\n      swap1\n      tag_95\n      jump\t// in\n    tag_131:\n      dup1\n      0x1f\n      add\n      0x20\n      dup1\n      swap2\n      div\n      mul\n      0x20\n      add\n      mload(0x40)\n      swap1\n      dup2\n      add\n      0x40\n      mstore\n      dup1\n      swap3\n      swap2\n      swap1\n      dup2\n      dup2\n      mstore\n      0x20\n      add\n      dup3\n      dup1\n      sload\n      tag_132\n      swap1\n      tag_95\n      jump\t// in\n    tag_132:\n      dup1\n      iszero\n      tag_133\n      jumpi\n      dup1\n      0x1f\n      lt\n      tag_134\n      jumpi\n      0x0100\n      dup1\n      dup4\n      sload\n      div\n      mul\n      dup4\n      mstore\n      swap2\n      0x20\n      add\n      swap2\n      jump(tag_133)\n    tag_134:\n      dup3\n      add\n      swap2\n      swap1\n      0x00\n      mstore\n      keccak256(0x00, 0x20)\n      swap1\n    tag_135:\n      dup2\n      sload\n      dup2\n      mstore\n      swap1\n      0x01\n      add\n      swap1\n      0x20\n      add\n      dup1\n      dup4\n      gt\n      tag_135\n      jumpi\n      dup3\n      swap1\n      sub\n      0x1f\n      and\n      dup3\n      add\n      swap2\n    tag_133:\n      pop\n      pop\n      pop\n      pop\n      pop\n      dup2\n      mstore\n      0x20\n      add\n      swap1\n      0x01\n      add\n      swap1\n      jump(tag_128)\n    tag_129:\n      pop\n      pop\n      pop\n      pop\n      swap2\n      pop\n      swap7\n      pop\n      swap7\n      pop\n      swap7\n      pop\n      swap7\n      pop\n      swap7\n      pop\n      swap7\n      pop\n      swap7\n      pop\n        /* \"Manuscript.sol\":2239:2562  function getSummary() public view returns (string memory, address, address, string memory, string memory, string[] memory, FieldResearch) {... */\n      swap1\n      swap2\n      swap3\n      swap4\n      swap5\n      swap6\n      swap7\n      jump\t// out\n        /* \"Manuscript.sol\":1028:1047  string public title */\n    tag_49:\n      0x05\n      dup1\n      sload\n      tag_136\n      swap1\n      tag_95\n      jump\t// in\n    tag_136:\n      dup1\n      0x1f\n      add\n      0x20\n      dup1\n      swap2\n      div\n      mul\n      0x20\n      add\n      mload(0x40)\n      swap1\n      dup2\n      add\n      0x40\n      mstore\n      dup1\n      swap3\n      swap2\n      swap1\n      dup2\n      dup2\n      mstore\n      0x20\n      add\n      dup3\n      dup1\n      sload\n      tag_137\n      swap1\n      tag_95\n      jump\t// in\n    tag_137:\n      dup1\n      iszero\n      tag_138\n      jumpi\n      dup1\n      0x1f\n      lt\n      tag_139\n      jumpi\n      0x0100\n      dup1\n      dup4\n      sload\n      div\n      mul\n      dup4\n      mstore\n      swap2\n      0x20\n      add\n      swap2\n      jump(tag_138)\n    tag_139:\n      dup3\n      add\n      swap2\n      swap1\n      0x00\n      mstore\n      keccak256(0x00, 0x20)\n      swap1\n    tag_140:\n      dup2\n      sload\n      dup2\n      mstore\n      swap1\n      0x01\n      add\n      swap1\n      0x20\n      add\n      dup1\n      dup4\n      gt\n      tag_140\n      jumpi\n      dup3\n      swap1\n      sub\n      0x1f\n      and\n      dup3\n      add\n      swap2\n    tag_138:\n      pop\n      pop\n      pop\n      pop\n      pop\n      dup2\n      jump\t// out\n        /* \"Manuscript.sol\":1115:1141  FieldResearch public field */\n    tag_52:\n      0x08\n      0x00\n      swap1\n      sload\n      swap1\n      0x0100\n      exp\n      swap1\n      div\n      0xff\n      and\n      dup2\n      jump\t// out\n        /* \"Manuscript.sol\":1645:1881  function submitReview(string memory doccidp) public {... */\n    tag_58:\n        /* \"Manuscript.sol\":1718:1727  reviewers */\n      0x03\n        /* \"Manuscript.sol\":1718:1739  reviewers[msg.sender] */\n      0x00\n        /* \"Manuscript.sol\":1728:1738  msg.sender */\n      caller\n        /* \"Manuscript.sol\":1718:1739  reviewers[msg.sender] */\n      0xffffffffffffffffffffffffffffffffffffffff\n      and\n      0xffffffffffffffffffffffffffffffffffffffff\n      and\n      dup2\n      mstore\n      0x20\n      add\n      swap1\n      dup2\n      mstore\n      0x20\n      add\n      0x00\n      keccak256\n      0x00\n      swap1\n      sload\n      swap1\n      0x0100\n      exp\n      swap1\n      div\n      0xff\n      and\n        /* \"Manuscript.sol\":1710:1740  require(reviewers[msg.sender]) */\n      tag_142\n      jumpi\n      0x00\n      dup1\n      revert\n    tag_142:\n        /* \"Manuscript.sol\":1753:1777  Review storage newReview */\n      0x00\n        /* \"Manuscript.sol\":1780:1787  reviews */\n      0x09\n        /* \"Manuscript.sol\":1780:1794  reviews.push() */\n      0x01\n      dup2\n      0x01\n      dup2\n      sload\n      add\n      dup1\n      dup3\n      sstore\n      dup1\n      swap2\n      pop\n      pop\n      sub\n      swap1\n      0x00\n      mstore\n      keccak256(0x00, 0x20)\n      swap1\n      0x02\n      mul\n      add\n        /* \"Manuscript.sol\":1753:1794  Review storage newReview = reviews.push() */\n      swap1\n      pop\n        /* \"Manuscript.sol\":1826:1836  msg.sender */\n      caller\n        /* \"Manuscript.sol\":1805:1814  newReview */\n      dup2\n        /* \"Manuscript.sol\":1805:1823  newReview.reviewer */\n      0x00\n      add\n      0x00\n        /* \"Manuscript.sol\":1805:1836  newReview.reviewer = msg.sender */\n      0x0100\n      exp\n      dup2\n      sload\n      dup2\n      0xffffffffffffffffffffffffffffffffffffffff\n      mul\n      not\n      and\n      swap1\n      dup4\n      0xffffffffffffffffffffffffffffffffffffffff\n      and\n      mul\n      or\n      swap1\n      sstore\n      pop\n        /* \"Manuscript.sol\":1866:1873  doccidp */\n      dup2\n        /* \"Manuscript.sol\":1847:1856  newReview */\n      dup2\n        /* \"Manuscript.sol\":1847:1863  newReview.doccid */\n      0x01\n      add\n        /* \"Manuscript.sol\":1847:1873  newReview.doccid = doccidp */\n      swap1\n      dup1\n      mload\n      swap1\n      0x20\n      add\n      swap1\n      tag_144\n      swap3\n      swap2\n      swap1\n      tag_145\n      jump\t// in\n    tag_144:\n      pop\n        /* \"Manuscript.sol\":1697:1881  {... */\n      pop\n        /* \"Manuscript.sol\":1645:1881  function submitReview(string memory doccidp) public {... */\n      pop\n      jump\t// out\n        /* \"Manuscript.sol\":1054:1079  string public description */\n    tag_60:\n      0x06\n      dup1\n      sload\n      tag_146\n      swap1\n      tag_95\n      jump\t// in\n    tag_146:\n      dup1\n      0x1f\n      add\n      0x20\n      dup1\n      swap2\n      div\n      mul\n      0x20\n      add\n      mload(0x40)\n      swap1\n      dup2\n      add\n      0x40\n      mstore\n      dup1\n      swap3\n      swap2\n      swap1\n      dup2\n      dup2\n      mstore\n      0x20\n      add\n      dup3\n      dup1\n      sload\n      tag_147\n      swap1\n      tag_95\n      jump\t// in\n    tag_147:\n      dup1\n      iszero\n      tag_148\n      jumpi\n      dup1\n      0x1f\n      lt\n      tag_149\n      jumpi\n      0x0100\n      dup1\n      dup4\n      sload\n      div\n      mul\n      dup4\n      mstore\n      swap2\n      0x20\n      add\n      swap2\n      jump(tag_148)\n    tag_149:\n      dup3\n      add\n      swap2\n      swap1\n      0x00\n      mstore\n      keccak256(0x00, 0x20)\n      swap1\n    tag_150:\n      dup2\n      sload\n      dup2\n      mstore\n      swap1\n      0x01\n      add\n      swap1\n      0x20\n      add\n      dup1\n      dup4\n      gt\n      tag_150\n      jumpi\n      dup3\n      swap1\n      sub\n      0x1f\n      and\n      dup3\n      add\n      swap2\n    tag_148:\n      pop\n      pop\n      pop\n      pop\n      pop\n      dup2\n      jump\t// out\n        /* \"Manuscript.sol\":2672:2786  function getReviewersList() public view returns (address payable[] memory) {... */\n    tag_63:\n        /* \"Manuscript.sol\":2721:2745  address payable[] memory */\n      0x60\n        /* \"Manuscript.sol\":2765:2778  reviewersList */\n      0x02\n        /* \"Manuscript.sol\":2758:2778  return reviewersList */\n      dup1\n      sload\n      dup1\n      0x20\n      mul\n      0x20\n      add\n      mload(0x40)\n      swap1\n      dup2\n      add\n      0x40\n      mstore\n      dup1\n      swap3\n      swap2\n      swap1\n      dup2\n      dup2\n      mstore\n      0x20\n      add\n      dup3\n      dup1\n      sload\n      dup1\n      iszero\n      tag_152\n      jumpi\n      0x20\n      mul\n      dup3\n      add\n      swap2\n      swap1\n      0x00\n      mstore\n      keccak256(0x00, 0x20)\n      swap1\n    tag_153:\n      dup2\n      0x00\n      swap1\n      sload\n      swap1\n      0x0100\n      exp\n      swap1\n      div\n      0xffffffffffffffffffffffffffffffffffffffff\n      and\n      0xffffffffffffffffffffffffffffffffffffffff\n      and\n      dup2\n      mstore\n      0x20\n      add\n      swap1\n      0x01\n      add\n      swap1\n      dup1\n      dup4\n      gt\n      tag_153\n      jumpi\n    tag_152:\n      pop\n      pop\n      pop\n      pop\n      pop\n      swap1\n      pop\n        /* \"Manuscript.sol\":2672:2786  function getReviewersList() public view returns (address payable[] memory) {... */\n      swap1\n      jump\t// out\n        /* \"Manuscript.sol\":880:901  address public editor */\n    tag_67:\n      0x01\n      0x00\n      swap1\n      sload\n      swap1\n      0x0100\n      exp\n      swap1\n      div\n      0xffffffffffffffffffffffffffffffffffffffff\n      and\n      dup2\n      jump\t// out\n        /* \"Manuscript.sol\":852:873  address public author */\n    tag_71:\n      0x00\n      dup1\n      sload\n      swap1\n      0x0100\n      exp\n      swap1\n      div\n      0xffffffffffffffffffffffffffffffffffffffff\n      and\n      dup2\n      jump\t// out\n        /* \"Manuscript.sol\":1889:2130  function assignReviewer(address reviewerp) public {... */\n    tag_76:\n        /* \"Manuscript.sol\":1972:1978  editor */\n      0x01\n      0x00\n      swap1\n      sload\n      swap1\n      0x0100\n      exp\n      swap1\n      div\n      0xffffffffffffffffffffffffffffffffffffffff\n      and\n        /* \"Manuscript.sol\":1958:1978  msg.sender == editor */\n      0xffffffffffffffffffffffffffffffffffffffff\n      and\n        /* \"Manuscript.sol\":1958:1968  msg.sender */\n      caller\n        /* \"Manuscript.sol\":1958:1978  msg.sender == editor */\n      0xffffffffffffffffffffffffffffffffffffffff\n      and\n      eq\n        /* \"Manuscript.sol\":1950:1979  require(msg.sender == editor) */\n      tag_155\n      jumpi\n      0x00\n      dup1\n      revert\n    tag_155:\n        /* \"Manuscript.sol\":1994:2003  reviewers */\n      0x03\n        /* \"Manuscript.sol\":1994:2014  reviewers[reviewerp] */\n      0x00\n        /* \"Manuscript.sol\":2004:2013  reviewerp */\n      dup3\n        /* \"Manuscript.sol\":1994:2014  reviewers[reviewerp] */\n      0xffffffffffffffffffffffffffffffffffffffff\n      and\n      0xffffffffffffffffffffffffffffffffffffffff\n      and\n      dup2\n      mstore\n      0x20\n      add\n      swap1\n      dup2\n      mstore\n      0x20\n      add\n      0x00\n      keccak256\n      0x00\n      swap1\n      sload\n      swap1\n      0x0100\n      exp\n      swap1\n      div\n      0xff\n      and\n        /* \"Manuscript.sol\":1990:2123  if(!reviewers[reviewerp]) {... */\n      tag_156\n      jumpi\n        /* \"Manuscript.sol\":2054:2058  true */\n      0x01\n        /* \"Manuscript.sol\":2031:2040  reviewers */\n      0x03\n        /* \"Manuscript.sol\":2031:2051  reviewers[reviewerp] */\n      0x00\n        /* \"Manuscript.sol\":2041:2050  reviewerp */\n      dup4\n        /* \"Manuscript.sol\":2031:2051  reviewers[reviewerp] */\n      0xffffffffffffffffffffffffffffffffffffffff\n      and\n      0xffffffffffffffffffffffffffffffffffffffff\n      and\n      dup2\n      mstore\n      0x20\n      add\n      swap1\n      dup2\n      mstore\n      0x20\n      add\n      0x00\n      keccak256\n      0x00\n        /* \"Manuscript.sol\":2031:2058  reviewers[reviewerp] = true */\n      0x0100\n      exp\n      dup2\n      sload\n      dup2\n      0xff\n      mul\n      not\n      and\n      swap1\n      dup4\n      iszero\n      iszero\n      mul\n      or\n      swap1\n      sstore\n      pop\n        /* \"Manuscript.sol\":2073:2086  reviewersList */\n      0x02\n        /* \"Manuscript.sol\":2100:2109  reviewerp */\n      dup2\n        /* \"Manuscript.sol\":2073:2111  reviewersList.push(payable(reviewerp)) */\n      swap1\n      dup1\n      0x01\n      dup2\n      sload\n      add\n      dup1\n      dup3\n      sstore\n      dup1\n      swap2\n      pop\n      pop\n      0x01\n      swap1\n      sub\n      swap1\n      0x00\n      mstore\n      keccak256(0x00, 0x20)\n      add\n      0x00\n      swap1\n      swap2\n      swap1\n      swap2\n      swap1\n      swap2\n      0x0100\n      exp\n      dup2\n      sload\n      dup2\n      0xffffffffffffffffffffffffffffffffffffffff\n      mul\n      not\n      and\n      swap1\n      dup4\n      0xffffffffffffffffffffffffffffffffffffffff\n      and\n      mul\n      or\n      swap1\n      sstore\n      pop\n        /* \"Manuscript.sol\":1990:2123  if(!reviewers[reviewerp]) {... */\n    tag_156:\n        /* \"Manuscript.sol\":1889:2130  function assignReviewer(address reviewerp) public {... */\n      pop\n      jump\t// out\n        /* \"Manuscript.sol\":1235:1258  Review[] public reviews */\n    tag_79:\n      0x09\n      dup2\n      dup2\n      sload\n      dup2\n      lt\n      tag_158\n      jumpi\n      0x00\n      dup1\n      revert\n    tag_158:\n      swap1\n      0x00\n      mstore\n      keccak256(0x00, 0x20)\n      swap1\n      0x02\n      mul\n      add\n      0x00\n      swap2\n      pop\n      swap1\n      pop\n      dup1\n      0x00\n      add\n      0x00\n      swap1\n      sload\n      swap1\n      0x0100\n      exp\n      swap1\n      div\n      0xffffffffffffffffffffffffffffffffffffffff\n      and\n      swap1\n      dup1\n      0x01\n      add\n      dup1\n      sload\n      tag_160\n      swap1\n      tag_95\n      jump\t// in\n    tag_160:\n      dup1\n      0x1f\n      add\n      0x20\n      dup1\n      swap2\n      div\n      mul\n      0x20\n      add\n      mload(0x40)\n      swap1\n      dup2\n      add\n      0x40\n      mstore\n      dup1\n      swap3\n      swap2\n      swap1\n      dup2\n      dup2\n      mstore\n      0x20\n      add\n      dup3\n      dup1\n      sload\n      tag_161\n      swap1\n      tag_95\n      jump\t// in\n    tag_161:\n      dup1\n      iszero\n      tag_162\n      jumpi\n      dup1\n      0x1f\n      lt\n      tag_163\n      jumpi\n      0x0100\n      dup1\n      dup4\n      sload\n      div\n      mul\n      dup4\n      mstore\n      swap2\n      0x20\n      add\n      swap2\n      jump(tag_162)\n    tag_163:\n      dup3\n      add\n      swap2\n      swap1\n      0x00\n      mstore\n      keccak256(0x00, 0x20)\n      swap1\n    tag_164:\n      dup2\n      sload\n      dup2\n      mstore\n      swap1\n      0x01\n      add\n      swap1\n      0x20\n      add\n      dup1\n      dup4\n      gt\n      tag_164\n      jumpi\n      dup3\n      swap1\n      sub\n      0x1f\n      and\n      dup3\n      add\n      swap2\n    tag_162:\n      pop\n      pop\n      pop\n      pop\n      pop\n      swap1\n      pop\n      dup3\n      jump\t// out\n        /* \"Manuscript.sol\":953:994  mapping(address => bool) public reviewers */\n    tag_84:\n      mstore(0x20, 0x03)\n      dup1\n      0x00\n      mstore\n      keccak256(0x00, 0x40)\n      0x00\n      swap2\n      pop\n      sload\n      swap1\n      0x0100\n      exp\n      swap1\n      div\n      0xff\n      and\n      dup2\n      jump\t// out\n    tag_145:\n      dup3\n      dup1\n      sload\n      tag_165\n      swap1\n      tag_95\n      jump\t// in\n    tag_165:\n      swap1\n      0x00\n      mstore\n      keccak256(0x00, 0x20)\n      swap1\n      0x1f\n      add\n      0x20\n      swap1\n      div\n      dup2\n      add\n      swap3\n      dup3\n      tag_167\n      jumpi\n      0x00\n      dup6\n      sstore\n      jump(tag_166)\n    tag_167:\n      dup3\n      0x1f\n      lt\n      tag_168\n      jumpi\n      dup1\n      mload\n      not(0xff)\n      and\n      dup4\n      dup1\n      add\n      or\n      dup6\n      sstore\n      jump(tag_166)\n    tag_168:\n      dup3\n      dup1\n      add\n      0x01\n      add\n      dup6\n      sstore\n      dup3\n      iszero\n      tag_166\n      jumpi\n      swap2\n      dup3\n      add\n    tag_169:\n      dup3\n      dup2\n      gt\n      iszero\n      tag_170\n      jumpi\n      dup3\n      mload\n      dup3\n      sstore\n      swap2\n      0x20\n      add\n      swap2\n      swap1\n      0x01\n      add\n      swap1\n      jump(tag_169)\n    tag_170:\n    tag_166:\n      pop\n      swap1\n      pop\n      tag_171\n      swap2\n      swap1\n      tag_172\n      jump\t// in\n    tag_171:\n      pop\n      swap1\n      jump\t// out\n    tag_172:\n    tag_173:\n      dup1\n      dup3\n      gt\n      iszero\n      tag_174\n      jumpi\n      0x00\n      dup2\n      0x00\n      swap1\n      sstore\n      pop\n      0x01\n      add\n      jump(tag_173)\n    tag_174:\n      pop\n      swap1\n      jump\t// out\n        /* \"#utility.yul\":7:82   */\n    tag_175:\n        /* \"#utility.yul\":40:46   */\n      0x00\n        /* \"#utility.yul\":73:75   */\n      0x40\n        /* \"#utility.yul\":67:76   */\n      mload\n        /* \"#utility.yul\":57:76   */\n      swap1\n      pop\n        /* \"#utility.yul\":7:82   */\n      swap1\n      jump\t// out\n        /* \"#utility.yul\":88:205   */\n    tag_176:\n        /* \"#utility.yul\":197:198   */\n      0x00\n        /* \"#utility.yul\":194:195   */\n      dup1\n        /* \"#utility.yul\":187:199   */\n      revert\n        /* \"#utility.yul\":211:328   */\n    tag_177:\n        /* \"#utility.yul\":320:321   */\n      0x00\n        /* \"#utility.yul\":317:318   */\n      dup1\n        /* \"#utility.yul\":310:322   */\n      revert\n        /* \"#utility.yul\":334:411   */\n    tag_178:\n        /* \"#utility.yul\":371:378   */\n      0x00\n        /* \"#utility.yul\":400:405   */\n      dup2\n        /* \"#utility.yul\":389:405   */\n      swap1\n      pop\n        /* \"#utility.yul\":334:411   */\n      swap2\n      swap1\n      pop\n      jump\t// out\n        /* \"#utility.yul\":417:539   */\n    tag_179:\n        /* \"#utility.yul\":490:514   */\n      tag_240\n        /* \"#utility.yul\":508:513   */\n      dup2\n        /* \"#utility.yul\":490:514   */\n      tag_178\n      jump\t// in\n    tag_240:\n        /* \"#utility.yul\":483:488   */\n      dup2\n        /* \"#utility.yul\":480:515   */\n      eq\n        /* \"#utility.yul\":470:533   */\n      tag_241\n      jumpi\n        /* \"#utility.yul\":529:530   */\n      0x00\n        /* \"#utility.yul\":526:527   */\n      dup1\n        /* \"#utility.yul\":519:531   */\n      revert\n        /* \"#utility.yul\":470:533   */\n    tag_241:\n        /* \"#utility.yul\":417:539   */\n      pop\n      jump\t// out\n        /* \"#utility.yul\":545:684   */\n    tag_180:\n        /* \"#utility.yul\":591:596   */\n      0x00\n        /* \"#utility.yul\":629:635   */\n      dup2\n        /* \"#utility.yul\":616:636   */\n      calldataload\n        /* \"#utility.yul\":607:636   */\n      swap1\n      pop\n        /* \"#utility.yul\":645:678   */\n      tag_243\n        /* \"#utility.yul\":672:677   */\n      dup2\n        /* \"#utility.yul\":645:678   */\n      tag_179\n      jump\t// in\n    tag_243:\n        /* \"#utility.yul\":545:684   */\n      swap3\n      swap2\n      pop\n      pop\n      jump\t// out\n        /* \"#utility.yul\":690:1019   */\n    tag_24:\n        /* \"#utility.yul\":749:755   */\n      0x00\n        /* \"#utility.yul\":798:800   */\n      0x20\n        /* \"#utility.yul\":786:795   */\n      dup3\n        /* \"#utility.yul\":777:784   */\n      dup5\n        /* \"#utility.yul\":773:796   */\n      sub\n        /* \"#utility.yul\":769:801   */\n      slt\n        /* \"#utility.yul\":766:885   */\n      iszero\n      tag_245\n      jumpi\n        /* \"#utility.yul\":804:883   */\n      tag_246\n      tag_176\n      jump\t// in\n    tag_246:\n        /* \"#utility.yul\":766:885   */\n    tag_245:\n        /* \"#utility.yul\":924:925   */\n      0x00\n        /* \"#utility.yul\":949:1002   */\n      tag_247\n        /* \"#utility.yul\":994:1001   */\n      dup5\n        /* \"#utility.yul\":985:991   */\n      dup3\n        /* \"#utility.yul\":974:983   */\n      dup6\n        /* \"#utility.yul\":970:992   */\n      add\n        /* \"#utility.yul\":949:1002   */\n      tag_180\n      jump\t// in\n    tag_247:\n        /* \"#utility.yul\":939:1002   */\n      swap2\n      pop\n        /* \"#utility.yul\":895:1012   */\n      pop\n        /* \"#utility.yul\":690:1019   */\n      swap3\n      swap2\n      pop\n      pop\n      jump\t// out\n        /* \"#utility.yul\":1025:1151   */\n    tag_181:\n        /* \"#utility.yul\":1062:1069   */\n      0x00\n        /* \"#utility.yul\":1102:1144   */\n      0xffffffffffffffffffffffffffffffffffffffff\n        /* \"#utility.yul\":1095:1100   */\n      dup3\n        /* \"#utility.yul\":1091:1145   */\n      and\n        /* \"#utility.yul\":1080:1145   */\n      swap1\n      pop\n        /* \"#utility.yul\":1025:1151   */\n      swap2\n      swap1\n      pop\n      jump\t// out\n        /* \"#utility.yul\":1157:1261   */\n    tag_182:\n        /* \"#utility.yul\":1202:1209   */\n      0x00\n        /* \"#utility.yul\":1231:1255   */\n      tag_250\n        /* \"#utility.yul\":1249:1254   */\n      dup3\n        /* \"#utility.yul\":1231:1255   */\n      tag_181\n      jump\t// in\n    tag_250:\n        /* \"#utility.yul\":1220:1255   */\n      swap1\n      pop\n        /* \"#utility.yul\":1157:1261   */\n      swap2\n      swap1\n      pop\n      jump\t// out\n        /* \"#utility.yul\":1267:1409   */\n    tag_183:\n        /* \"#utility.yul\":1370:1402   */\n      tag_252\n        /* \"#utility.yul\":1396:1401   */\n      dup2\n        /* \"#utility.yul\":1370:1402   */\n      tag_182\n      jump\t// in\n    tag_252:\n        /* \"#utility.yul\":1365:1368   */\n      dup3\n        /* \"#utility.yul\":1358:1403   */\n      mstore\n        /* \"#utility.yul\":1267:1409   */\n      pop\n      pop\n      jump\t// out\n        /* \"#utility.yul\":1415:1669   */\n    tag_27:\n        /* \"#utility.yul\":1524:1528   */\n      0x00\n        /* \"#utility.yul\":1562:1564   */\n      0x20\n        /* \"#utility.yul\":1551:1560   */\n      dup3\n        /* \"#utility.yul\":1547:1565   */\n      add\n        /* \"#utility.yul\":1539:1565   */\n      swap1\n      pop\n        /* \"#utility.yul\":1575:1662   */\n      tag_254\n        /* \"#utility.yul\":1659:1660   */\n      0x00\n        /* \"#utility.yul\":1648:1657   */\n      dup4\n        /* \"#utility.yul\":1644:1661   */\n      add\n        /* \"#utility.yul\":1635:1641   */\n      dup5\n        /* \"#utility.yul\":1575:1662   */\n      tag_183\n      jump\t// in\n    tag_254:\n        /* \"#utility.yul\":1415:1669   */\n      swap3\n      swap2\n      pop\n      pop\n      jump\t// out\n        /* \"#utility.yul\":1675:1793   */\n    tag_184:\n        /* \"#utility.yul\":1762:1786   */\n      tag_256\n        /* \"#utility.yul\":1780:1785   */\n      dup2\n        /* \"#utility.yul\":1762:1786   */\n      tag_178\n      jump\t// in\n    tag_256:\n        /* \"#utility.yul\":1757:1760   */\n      dup3\n        /* \"#utility.yul\":1750:1787   */\n      mstore\n        /* \"#utility.yul\":1675:1793   */\n      pop\n      pop\n      jump\t// out\n        /* \"#utility.yul\":1799:2021   */\n    tag_31:\n        /* \"#utility.yul\":1892:1896   */\n      0x00\n        /* \"#utility.yul\":1930:1932   */\n      0x20\n        /* \"#utility.yul\":1919:1928   */\n      dup3\n        /* \"#utility.yul\":1915:1933   */\n      add\n        /* \"#utility.yul\":1907:1933   */\n      swap1\n      pop\n        /* \"#utility.yul\":1943:2014   */\n      tag_258\n        /* \"#utility.yul\":2011:2012   */\n      0x00\n        /* \"#utility.yul\":2000:2009   */\n      dup4\n        /* \"#utility.yul\":1996:2013   */\n      add\n        /* \"#utility.yul\":1987:1993   */\n      dup5\n        /* \"#utility.yul\":1943:2014   */\n      tag_184\n      jump\t// in\n    tag_258:\n        /* \"#utility.yul\":1799:2021   */\n      swap3\n      swap2\n      pop\n      pop\n      jump\t// out\n        /* \"#utility.yul\":2027:2164   */\n    tag_185:\n        /* \"#utility.yul\":2117:2123   */\n      0x00\n        /* \"#utility.yul\":2151:2156   */\n      dup2\n        /* \"#utility.yul\":2145:2157   */\n      mload\n        /* \"#utility.yul\":2135:2157   */\n      swap1\n      pop\n        /* \"#utility.yul\":2027:2164   */\n      swap2\n      swap1\n      pop\n      jump\t// out\n        /* \"#utility.yul\":2170:2377   */\n    tag_186:\n        /* \"#utility.yul\":2292:2303   */\n      0x00\n        /* \"#utility.yul\":2326:2332   */\n      dup3\n        /* \"#utility.yul\":2321:2324   */\n      dup3\n        /* \"#utility.yul\":2314:2333   */\n      mstore\n        /* \"#utility.yul\":2366:2370   */\n      0x20\n        /* \"#utility.yul\":2361:2364   */\n      dup3\n        /* \"#utility.yul\":2357:2371   */\n      add\n        /* \"#utility.yul\":2342:2371   */\n      swap1\n      pop\n        /* \"#utility.yul\":2170:2377   */\n      swap3\n      swap2\n      pop\n      pop\n      jump\t// out\n        /* \"#utility.yul\":2383:2538   */\n    tag_187:\n        /* \"#utility.yul\":2473:2477   */\n      0x00\n        /* \"#utility.yul\":2496:2499   */\n      dup2\n        /* \"#utility.yul\":2488:2499   */\n      swap1\n      pop\n        /* \"#utility.yul\":2526:2530   */\n      0x20\n        /* \"#utility.yul\":2521:2524   */\n      dup3\n        /* \"#utility.yul\":2517:2531   */\n      add\n        /* \"#utility.yul\":2509:2531   */\n      swap1\n      pop\n        /* \"#utility.yul\":2383:2538   */\n      swap2\n      swap1\n      pop\n      jump\t// out\n        /* \"#utility.yul\":2544:2640   */\n    tag_188:\n        /* \"#utility.yul\":2581:2588   */\n      0x00\n        /* \"#utility.yul\":2610:2634   */\n      tag_263\n        /* \"#utility.yul\":2628:2633   */\n      dup3\n        /* \"#utility.yul\":2610:2634   */\n      tag_181\n      jump\t// in\n    tag_263:\n        /* \"#utility.yul\":2599:2634   */\n      swap1\n      pop\n        /* \"#utility.yul\":2544:2640   */\n      swap2\n      swap1\n      pop\n      jump\t// out\n        /* \"#utility.yul\":2646:2754   */\n    tag_189:\n        /* \"#utility.yul\":2723:2747   */\n      tag_265\n        /* \"#utility.yul\":2741:2746   */\n      dup2\n        /* \"#utility.yul\":2723:2747   */\n      tag_188\n      jump\t// in\n    tag_265:\n        /* \"#utility.yul\":2718:2721   */\n      dup3\n        /* \"#utility.yul\":2711:2748   */\n      mstore\n        /* \"#utility.yul\":2646:2754   */\n      pop\n      pop\n      jump\t// out\n        /* \"#utility.yul\":2760:2859   */\n    tag_190:\n        /* \"#utility.yul\":2812:2818   */\n      0x00\n        /* \"#utility.yul\":2846:2851   */\n      dup2\n        /* \"#utility.yul\":2840:2852   */\n      mload\n        /* \"#utility.yul\":2830:2852   */\n      swap1\n      pop\n        /* \"#utility.yul\":2760:2859   */\n      swap2\n      swap1\n      pop\n      jump\t// out\n        /* \"#utility.yul\":2865:3024   */\n    tag_191:\n        /* \"#utility.yul\":2939:2950   */\n      0x00\n        /* \"#utility.yul\":2973:2979   */\n      dup3\n        /* \"#utility.yul\":2968:2971   */\n      dup3\n        /* \"#utility.yul\":2961:2980   */\n      mstore\n        /* \"#utility.yul\":3013:3017   */\n      0x20\n        /* \"#utility.yul\":3008:3011   */\n      dup3\n        /* \"#utility.yul\":3004:3018   */\n      add\n        /* \"#utility.yul\":2989:3018   */\n      swap1\n      pop\n        /* \"#utility.yul\":2865:3024   */\n      swap3\n      swap2\n      pop\n      pop\n      jump\t// out\n        /* \"#utility.yul\":3030:3337   */\n    tag_192:\n        /* \"#utility.yul\":3098:3099   */\n      0x00\n        /* \"#utility.yul\":3108:3221   */\n    tag_269:\n        /* \"#utility.yul\":3122:3128   */\n      dup4\n        /* \"#utility.yul\":3119:3120   */\n      dup2\n        /* \"#utility.yul\":3116:3129   */\n      lt\n        /* \"#utility.yul\":3108:3221   */\n      iszero\n      tag_271\n      jumpi\n        /* \"#utility.yul\":3207:3208   */\n      dup1\n        /* \"#utility.yul\":3202:3205   */\n      dup3\n        /* \"#utility.yul\":3198:3209   */\n      add\n        /* \"#utility.yul\":3192:3210   */\n      mload\n        /* \"#utility.yul\":3188:3189   */\n      dup2\n        /* \"#utility.yul\":3183:3186   */\n      dup5\n        /* \"#utility.yul\":3179:3190   */\n      add\n        /* \"#utility.yul\":3172:3211   */\n      mstore\n        /* \"#utility.yul\":3144:3146   */\n      0x20\n        /* \"#utility.yul\":3141:3142   */\n      dup2\n        /* \"#utility.yul\":3137:3147   */\n      add\n        /* \"#utility.yul\":3132:3147   */\n      swap1\n      pop\n        /* \"#utility.yul\":3108:3221   */\n      jump(tag_269)\n    tag_271:\n        /* \"#utility.yul\":3239:3245   */\n      dup4\n        /* \"#utility.yul\":3236:3237   */\n      dup2\n        /* \"#utility.yul\":3233:3246   */\n      gt\n        /* \"#utility.yul\":3230:3331   */\n      iszero\n      tag_272\n      jumpi\n        /* \"#utility.yul\":3319:3320   */\n      0x00\n        /* \"#utility.yul\":3310:3316   */\n      dup5\n        /* \"#utility.yul\":3305:3308   */\n      dup5\n        /* \"#utility.yul\":3301:3317   */\n      add\n        /* \"#utility.yul\":3294:3321   */\n      mstore\n        /* \"#utility.yul\":3230:3331   */\n    tag_272:\n        /* \"#utility.yul\":3079:3337   */\n      pop\n        /* \"#utility.yul\":3030:3337   */\n      pop\n      pop\n      pop\n      jump\t// out\n        /* \"#utility.yul\":3343:3445   */\n    tag_193:\n        /* \"#utility.yul\":3384:3390   */\n      0x00\n        /* \"#utility.yul\":3435:3437   */\n      0x1f\n        /* \"#utility.yul\":3431:3438   */\n      not\n        /* \"#utility.yul\":3426:3428   */\n      0x1f\n        /* \"#utility.yul\":3419:3424   */\n      dup4\n        /* \"#utility.yul\":3415:3429   */\n      add\n        /* \"#utility.yul\":3411:3439   */\n      and\n        /* \"#utility.yul\":3401:3439   */\n      swap1\n      pop\n        /* \"#utility.yul\":3343:3445   */\n      swap2\n      swap1\n      pop\n      jump\t// out\n        /* \"#utility.yul\":3451:3795   */\n    tag_194:\n        /* \"#utility.yul\":3529:3532   */\n      0x00\n        /* \"#utility.yul\":3557:3596   */\n      tag_275\n        /* \"#utility.yul\":3590:3595   */\n      dup3\n        /* \"#utility.yul\":3557:3596   */\n      tag_190\n      jump\t// in\n    tag_275:\n        /* \"#utility.yul\":3612:3673   */\n      tag_276\n        /* \"#utility.yul\":3666:3672   */\n      dup2\n        /* \"#utility.yul\":3661:3664   */\n      dup6\n        /* \"#utility.yul\":3612:3673   */\n      tag_191\n      jump\t// in\n    tag_276:\n        /* \"#utility.yul\":3605:3673   */\n      swap4\n      pop\n        /* \"#utility.yul\":3682:3734   */\n      tag_277\n        /* \"#utility.yul\":3727:3733   */\n      dup2\n        /* \"#utility.yul\":3722:3725   */\n      dup6\n        /* \"#utility.yul\":3715:3719   */\n      0x20\n        /* \"#utility.yul\":3708:3713   */\n      dup7\n        /* \"#utility.yul\":3704:3720   */\n      add\n        /* \"#utility.yul\":3682:3734   */\n      tag_192\n      jump\t// in\n    tag_277:\n        /* \"#utility.yul\":3759:3788   */\n      tag_278\n        /* \"#utility.yul\":3781:3787   */\n      dup2\n        /* \"#utility.yul\":3759:3788   */\n      tag_193\n      jump\t// in\n    tag_278:\n        /* \"#utility.yul\":3754:3757   */\n      dup5\n        /* \"#utility.yul\":3750:3789   */\n      add\n        /* \"#utility.yul\":3743:3789   */\n      swap2\n      pop\n        /* \"#utility.yul\":3533:3795   */\n      pop\n        /* \"#utility.yul\":3451:3795   */\n      swap3\n      swap2\n      pop\n      pop\n      jump\t// out\n        /* \"#utility.yul\":3861:4459   */\n    tag_195:\n        /* \"#utility.yul\":3966:3969   */\n      0x00\n        /* \"#utility.yul\":4002:4006   */\n      0x40\n        /* \"#utility.yul\":3997:4000   */\n      dup4\n        /* \"#utility.yul\":3993:4007   */\n      add\n        /* \"#utility.yul\":4093:4097   */\n      0x00\n        /* \"#utility.yul\":4086:4091   */\n      dup4\n        /* \"#utility.yul\":4082:4098   */\n      add\n        /* \"#utility.yul\":4076:4099   */\n      mload\n        /* \"#utility.yul\":4112:4175   */\n      tag_280\n        /* \"#utility.yul\":4169:4173   */\n      0x00\n        /* \"#utility.yul\":4164:4167   */\n      dup7\n        /* \"#utility.yul\":4160:4174   */\n      add\n        /* \"#utility.yul\":4146:4158   */\n      dup3\n        /* \"#utility.yul\":4112:4175   */\n      tag_189\n      jump\t// in\n    tag_280:\n        /* \"#utility.yul\":4017:4185   */\n      pop\n        /* \"#utility.yul\":4269:4273   */\n      0x20\n        /* \"#utility.yul\":4262:4267   */\n      dup4\n        /* \"#utility.yul\":4258:4274   */\n      add\n        /* \"#utility.yul\":4252:4275   */\n      mload\n        /* \"#utility.yul\":4322:4325   */\n      dup5\n        /* \"#utility.yul\":4316:4320   */\n      dup3\n        /* \"#utility.yul\":4312:4326   */\n      sub\n        /* \"#utility.yul\":4305:4309   */\n      0x20\n        /* \"#utility.yul\":4300:4303   */\n      dup7\n        /* \"#utility.yul\":4296:4310   */\n      add\n        /* \"#utility.yul\":4289:4327   */\n      mstore\n        /* \"#utility.yul\":4348:4421   */\n      tag_281\n        /* \"#utility.yul\":4416:4420   */\n      dup3\n        /* \"#utility.yul\":4402:4414   */\n      dup3\n        /* \"#utility.yul\":4348:4421   */\n      tag_194\n      jump\t// in\n    tag_281:\n        /* \"#utility.yul\":4340:4421   */\n      swap2\n      pop\n        /* \"#utility.yul\":4195:4432   */\n      pop\n        /* \"#utility.yul\":4449:4453   */\n      dup1\n        /* \"#utility.yul\":4442:4453   */\n      swap2\n      pop\n        /* \"#utility.yul\":3971:4459   */\n      pop\n        /* \"#utility.yul\":3861:4459   */\n      swap3\n      swap2\n      pop\n      pop\n      jump\t// out\n        /* \"#utility.yul\":4465:4713   */\n    tag_196:\n        /* \"#utility.yul\":4580:4590   */\n      0x00\n        /* \"#utility.yul\":4615:4707   */\n      tag_283\n        /* \"#utility.yul\":4703:4706   */\n      dup4\n        /* \"#utility.yul\":4695:4701   */\n      dup4\n        /* \"#utility.yul\":4615:4707   */\n      tag_195\n      jump\t// in\n    tag_283:\n        /* \"#utility.yul\":4601:4707   */\n      swap1\n      pop\n        /* \"#utility.yul\":4465:4713   */\n      swap3\n      swap2\n      pop\n      pop\n      jump\t// out\n        /* \"#utility.yul\":4719:4855   */\n    tag_197:\n        /* \"#utility.yul\":4812:4816   */\n      0x00\n        /* \"#utility.yul\":4844:4848   */\n      0x20\n        /* \"#utility.yul\":4839:4842   */\n      dup3\n        /* \"#utility.yul\":4835:4849   */\n      add\n        /* \"#utility.yul\":4827:4849   */\n      swap1\n      pop\n        /* \"#utility.yul\":4719:4855   */\n      swap2\n      swap1\n      pop\n      jump\t// out\n        /* \"#utility.yul\":4925:6020   */\n    tag_198:\n        /* \"#utility.yul\":5090:5093   */\n      0x00\n        /* \"#utility.yul\":5119:5196   */\n      tag_286\n        /* \"#utility.yul\":5190:5195   */\n      dup3\n        /* \"#utility.yul\":5119:5196   */\n      tag_185\n      jump\t// in\n    tag_286:\n        /* \"#utility.yul\":5212:5321   */\n      tag_287\n        /* \"#utility.yul\":5314:5320   */\n      dup2\n        /* \"#utility.yul\":5309:5312   */\n      dup6\n        /* \"#utility.yul\":5212:5321   */\n      tag_186\n      jump\t// in\n    tag_287:\n        /* \"#utility.yul\":5205:5321   */\n      swap4\n      pop\n        /* \"#utility.yul\":5347:5350   */\n      dup4\n        /* \"#utility.yul\":5392:5396   */\n      0x20\n        /* \"#utility.yul\":5384:5390   */\n      dup3\n        /* \"#utility.yul\":5380:5397   */\n      mul\n        /* \"#utility.yul\":5375:5378   */\n      dup6\n        /* \"#utility.yul\":5371:5398   */\n      add\n        /* \"#utility.yul\":5422:5501   */\n      tag_288\n        /* \"#utility.yul\":5495:5500   */\n      dup6\n        /* \"#utility.yul\":5422:5501   */\n      tag_187\n      jump\t// in\n    tag_288:\n        /* \"#utility.yul\":5524:5531   */\n      dup1\n        /* \"#utility.yul\":5555:5556   */\n      0x00\n        /* \"#utility.yul\":5540:5975   */\n    tag_289:\n        /* \"#utility.yul\":5565:5571   */\n      dup6\n        /* \"#utility.yul\":5562:5563   */\n      dup2\n        /* \"#utility.yul\":5559:5572   */\n      lt\n        /* \"#utility.yul\":5540:5975   */\n      iszero\n      tag_291\n      jumpi\n        /* \"#utility.yul\":5636:5645   */\n      dup5\n        /* \"#utility.yul\":5630:5634   */\n      dup5\n        /* \"#utility.yul\":5626:5646   */\n      sub\n        /* \"#utility.yul\":5621:5624   */\n      dup10\n        /* \"#utility.yul\":5614:5647   */\n      mstore\n        /* \"#utility.yul\":5687:5693   */\n      dup2\n        /* \"#utility.yul\":5681:5694   */\n      mload\n        /* \"#utility.yul\":5715:5825   */\n      tag_292\n        /* \"#utility.yul\":5820:5824   */\n      dup6\n        /* \"#utility.yul\":5805:5818   */\n      dup3\n        /* \"#utility.yul\":5715:5825   */\n      tag_196\n      jump\t// in\n    tag_292:\n        /* \"#utility.yul\":5707:5825   */\n      swap5\n      pop\n        /* \"#utility.yul\":5848:5931   */\n      tag_293\n        /* \"#utility.yul\":5924:5930   */\n      dup4\n        /* \"#utility.yul\":5848:5931   */\n      tag_197\n      jump\t// in\n    tag_293:\n        /* \"#utility.yul\":5838:5931   */\n      swap3\n      pop\n        /* \"#utility.yul\":5960:5964   */\n      0x20\n        /* \"#utility.yul\":5955:5958   */\n      dup11\n        /* \"#utility.yul\":5951:5965   */\n      add\n        /* \"#utility.yul\":5944:5965   */\n      swap10\n      pop\n        /* \"#utility.yul\":5600:5975   */\n      pop\n        /* \"#utility.yul\":5587:5588   */\n      0x01\n        /* \"#utility.yul\":5584:5585   */\n      dup2\n        /* \"#utility.yul\":5580:5589   */\n      add\n        /* \"#utility.yul\":5575:5589   */\n      swap1\n      pop\n        /* \"#utility.yul\":5540:5975   */\n      jump(tag_289)\n    tag_291:\n        /* \"#utility.yul\":5544:5558   */\n      pop\n        /* \"#utility.yul\":5991:5995   */\n      dup3\n        /* \"#utility.yul\":5984:5995   */\n      swap8\n      pop\n        /* \"#utility.yul\":6011:6014   */\n      dup8\n        /* \"#utility.yul\":6004:6014   */\n      swap6\n      pop\n        /* \"#utility.yul\":5095:6020   */\n      pop\n      pop\n      pop\n      pop\n      pop\n        /* \"#utility.yul\":4925:6020   */\n      swap3\n      swap2\n      pop\n      pop\n      jump\t// out\n        /* \"#utility.yul\":6026:6491   */\n    tag_35:\n        /* \"#utility.yul\":6215:6219   */\n      0x00\n        /* \"#utility.yul\":6253:6255   */\n      0x20\n        /* \"#utility.yul\":6242:6251   */\n      dup3\n        /* \"#utility.yul\":6238:6256   */\n      add\n        /* \"#utility.yul\":6230:6256   */\n      swap1\n      pop\n        /* \"#utility.yul\":6302:6311   */\n      dup2\n        /* \"#utility.yul\":6296:6300   */\n      dup2\n        /* \"#utility.yul\":6292:6312   */\n      sub\n        /* \"#utility.yul\":6288:6289   */\n      0x00\n        /* \"#utility.yul\":6277:6286   */\n      dup4\n        /* \"#utility.yul\":6273:6290   */\n      add\n        /* \"#utility.yul\":6266:6313   */\n      mstore\n        /* \"#utility.yul\":6330:6484   */\n      tag_295\n        /* \"#utility.yul\":6479:6483   */\n      dup2\n        /* \"#utility.yul\":6470:6476   */\n      dup5\n        /* \"#utility.yul\":6330:6484   */\n      tag_198\n      jump\t// in\n    tag_295:\n        /* \"#utility.yul\":6322:6484   */\n      swap1\n      pop\n        /* \"#utility.yul\":6026:6491   */\n      swap3\n      swap2\n      pop\n      pop\n      jump\t// out\n        /* \"#utility.yul\":6497:6666   */\n    tag_199:\n        /* \"#utility.yul\":6581:6592   */\n      0x00\n        /* \"#utility.yul\":6615:6621   */\n      dup3\n        /* \"#utility.yul\":6610:6613   */\n      dup3\n        /* \"#utility.yul\":6603:6622   */\n      mstore\n        /* \"#utility.yul\":6655:6659   */\n      0x20\n        /* \"#utility.yul\":6650:6653   */\n      dup3\n        /* \"#utility.yul\":6646:6660   */\n      add\n        /* \"#utility.yul\":6631:6660   */\n      swap1\n      pop\n        /* \"#utility.yul\":6497:6666   */\n      swap3\n      swap2\n      pop\n      pop\n      jump\t// out\n        /* \"#utility.yul\":6672:7036   */\n    tag_200:\n        /* \"#utility.yul\":6760:6763   */\n      0x00\n        /* \"#utility.yul\":6788:6827   */\n      tag_298\n        /* \"#utility.yul\":6821:6826   */\n      dup3\n        /* \"#utility.yul\":6788:6827   */\n      tag_190\n      jump\t// in\n    tag_298:\n        /* \"#utility.yul\":6843:6914   */\n      tag_299\n        /* \"#utility.yul\":6907:6913   */\n      dup2\n        /* \"#utility.yul\":6902:6905   */\n      dup6\n        /* \"#utility.yul\":6843:6914   */\n      tag_199\n      jump\t// in\n    tag_299:\n        /* \"#utility.yul\":6836:6914   */\n      swap4\n      pop\n        /* \"#utility.yul\":6923:6975   */\n      tag_300\n        /* \"#utility.yul\":6968:6974   */\n      dup2\n        /* \"#utility.yul\":6963:6966   */\n      dup6\n        /* \"#utility.yul\":6956:6960   */\n      0x20\n        /* \"#utility.yul\":6949:6954   */\n      dup7\n        /* \"#utility.yul\":6945:6961   */\n      add\n        /* \"#utility.yul\":6923:6975   */\n      tag_192\n      jump\t// in\n    tag_300:\n        /* \"#utility.yul\":7000:7029   */\n      tag_301\n        /* \"#utility.yul\":7022:7028   */\n      dup2\n        /* \"#utility.yul\":7000:7029   */\n      tag_193\n      jump\t// in\n    tag_301:\n        /* \"#utility.yul\":6995:6998   */\n      dup5\n        /* \"#utility.yul\":6991:7030   */\n      add\n        /* \"#utility.yul\":6984:7030   */\n      swap2\n      pop\n        /* \"#utility.yul\":6764:7036   */\n      pop\n        /* \"#utility.yul\":6672:7036   */\n      swap3\n      swap2\n      pop\n      pop\n      jump\t// out\n        /* \"#utility.yul\":7042:7355   */\n    tag_39:\n        /* \"#utility.yul\":7155:7159   */\n      0x00\n        /* \"#utility.yul\":7193:7195   */\n      0x20\n        /* \"#utility.yul\":7182:7191   */\n      dup3\n        /* \"#utility.yul\":7178:7196   */\n      add\n        /* \"#utility.yul\":7170:7196   */\n      swap1\n      pop\n        /* \"#utility.yul\":7242:7251   */\n      dup2\n        /* \"#utility.yul\":7236:7240   */\n      dup2\n        /* \"#utility.yul\":7232:7252   */\n      sub\n        /* \"#utility.yul\":7228:7229   */\n      0x00\n        /* \"#utility.yul\":7217:7226   */\n      dup4\n        /* \"#utility.yul\":7213:7230   */\n      add\n        /* \"#utility.yul\":7206:7253   */\n      mstore\n        /* \"#utility.yul\":7270:7348   */\n      tag_303\n        /* \"#utility.yul\":7343:7347   */\n      dup2\n        /* \"#utility.yul\":7334:7340   */\n      dup5\n        /* \"#utility.yul\":7270:7348   */\n      tag_200\n      jump\t// in\n    tag_303:\n        /* \"#utility.yul\":7262:7348   */\n      swap1\n      pop\n        /* \"#utility.yul\":7042:7355   */\n      swap3\n      swap2\n      pop\n      pop\n      jump\t// out\n        /* \"#utility.yul\":7361:7479   */\n    tag_201:\n        /* \"#utility.yul\":7448:7472   */\n      tag_305\n        /* \"#utility.yul\":7466:7471   */\n      dup2\n        /* \"#utility.yul\":7448:7472   */\n      tag_188\n      jump\t// in\n    tag_305:\n        /* \"#utility.yul\":7443:7446   */\n      dup3\n        /* \"#utility.yul\":7436:7473   */\n      mstore\n        /* \"#utility.yul\":7361:7479   */\n      pop\n      pop\n      jump\t// out\n        /* \"#utility.yul\":7485:7609   */\n    tag_202:\n        /* \"#utility.yul\":7562:7568   */\n      0x00\n        /* \"#utility.yul\":7596:7601   */\n      dup2\n        /* \"#utility.yul\":7590:7602   */\n      mload\n        /* \"#utility.yul\":7580:7602   */\n      swap1\n      pop\n        /* \"#utility.yul\":7485:7609   */\n      swap2\n      swap1\n      pop\n      jump\t// out\n        /* \"#utility.yul\":7615:7809   */\n    tag_203:\n        /* \"#utility.yul\":7724:7735   */\n      0x00\n        /* \"#utility.yul\":7758:7764   */\n      dup3\n        /* \"#utility.yul\":7753:7756   */\n      dup3\n        /* \"#utility.yul\":7746:7765   */\n      mstore\n        /* \"#utility.yul\":7798:7802   */\n      0x20\n        /* \"#utility.yul\":7793:7796   */\n      dup3\n        /* \"#utility.yul\":7789:7803   */\n      add\n        /* \"#utility.yul\":7774:7803   */\n      swap1\n      pop\n        /* \"#utility.yul\":7615:7809   */\n      swap3\n      swap2\n      pop\n      pop\n      jump\t// out\n        /* \"#utility.yul\":7815:7957   */\n    tag_204:\n        /* \"#utility.yul\":7892:7896   */\n      0x00\n        /* \"#utility.yul\":7915:7918   */\n      dup2\n        /* \"#utility.yul\":7907:7918   */\n      swap1\n      pop\n        /* \"#utility.yul\":7945:7949   */\n      0x20\n        /* \"#utility.yul\":7940:7943   */\n      dup3\n        /* \"#utility.yul\":7936:7950   */\n      add\n        /* \"#utility.yul\":7928:7950   */\n      swap1\n      pop\n        /* \"#utility.yul\":7815:7957   */\n      swap2\n      swap1\n      pop\n      jump\t// out\n        /* \"#utility.yul\":7963:8159   */\n    tag_205:\n        /* \"#utility.yul\":8052:8062   */\n      0x00\n        /* \"#utility.yul\":8087:8153   */\n      tag_310\n        /* \"#utility.yul\":8149:8152   */\n      dup4\n        /* \"#utility.yul\":8141:8147   */\n      dup4\n        /* \"#utility.yul\":8087:8153   */\n      tag_194\n      jump\t// in\n    tag_310:\n        /* \"#utility.yul\":8073:8153   */\n      swap1\n      pop\n        /* \"#utility.yul\":7963:8159   */\n      swap3\n      swap2\n      pop\n      pop\n      jump\t// out\n        /* \"#utility.yul\":8165:8288   */\n    tag_206:\n        /* \"#utility.yul\":8245:8249   */\n      0x00\n        /* \"#utility.yul\":8277:8281   */\n      0x20\n        /* \"#utility.yul\":8272:8275   */\n      dup3\n        /* \"#utility.yul\":8268:8282   */\n      add\n        /* \"#utility.yul\":8260:8282   */\n      swap1\n      pop\n        /* \"#utility.yul\":8165:8288   */\n      swap2\n      swap1\n      pop\n      jump\t// out\n        /* \"#utility.yul\":8322:9313   */\n    tag_207:\n        /* \"#utility.yul\":8461:8464   */\n      0x00\n        /* \"#utility.yul\":8490:8554   */\n      tag_313\n        /* \"#utility.yul\":8548:8553   */\n      dup3\n        /* \"#utility.yul\":8490:8554   */\n      tag_202\n      jump\t// in\n    tag_313:\n        /* \"#utility.yul\":8570:8666   */\n      tag_314\n        /* \"#utility.yul\":8659:8665   */\n      dup2\n        /* \"#utility.yul\":8654:8657   */\n      dup6\n        /* \"#utility.yul\":8570:8666   */\n      tag_203\n      jump\t// in\n    tag_314:\n        /* \"#utility.yul\":8563:8666   */\n      swap4\n      pop\n        /* \"#utility.yul\":8692:8695   */\n      dup4\n        /* \"#utility.yul\":8737:8741   */\n      0x20\n        /* \"#utility.yul\":8729:8735   */\n      dup3\n        /* \"#utility.yul\":8725:8742   */\n      mul\n        /* \"#utility.yul\":8720:8723   */\n      dup6\n        /* \"#utility.yul\":8716:8743   */\n      add\n        /* \"#utility.yul\":8767:8833   */\n      tag_315\n        /* \"#utility.yul\":8827:8832   */\n      dup6\n        /* \"#utility.yul\":8767:8833   */\n      tag_204\n      jump\t// in\n    tag_315:\n        /* \"#utility.yul\":8856:8863   */\n      dup1\n        /* \"#utility.yul\":8887:8888   */\n      0x00\n        /* \"#utility.yul\":8872:9268   */\n    tag_316:\n        /* \"#utility.yul\":8897:8903   */\n      dup6\n        /* \"#utility.yul\":8894:8895   */\n      dup2\n        /* \"#utility.yul\":8891:8904   */\n      lt\n        /* \"#utility.yul\":8872:9268   */\n      iszero\n      tag_318\n      jumpi\n        /* \"#utility.yul\":8968:8977   */\n      dup5\n        /* \"#utility.yul\":8962:8966   */\n      dup5\n        /* \"#utility.yul\":8958:8978   */\n      sub\n        /* \"#utility.yul\":8953:8956   */\n      dup10\n        /* \"#utility.yul\":8946:8979   */\n      mstore\n        /* \"#utility.yul\":9019:9025   */\n      dup2\n        /* \"#utility.yul\":9013:9026   */\n      mload\n        /* \"#utility.yul\":9047:9131   */\n      tag_319\n        /* \"#utility.yul\":9126:9130   */\n      dup6\n        /* \"#utility.yul\":9111:9124   */\n      dup3\n        /* \"#utility.yul\":9047:9131   */\n      tag_205\n      jump\t// in\n    tag_319:\n        /* \"#utility.yul\":9039:9131   */\n      swap5\n      pop\n        /* \"#utility.yul\":9154:9224   */\n      tag_320\n        /* \"#utility.yul\":9217:9223   */\n      dup4\n        /* \"#utility.yul\":9154:9224   */\n      tag_206\n      jump\t// in\n    tag_320:\n        /* \"#utility.yul\":9144:9224   */\n      swap3\n      pop\n        /* \"#utility.yul\":9253:9257   */\n      0x20\n        /* \"#utility.yul\":9248:9251   */\n      dup11\n        /* \"#utility.yul\":9244:9258   */\n      add\n        /* \"#utility.yul\":9237:9258   */\n      swap10\n      pop\n        /* \"#utility.yul\":8932:9268   */\n      pop\n        /* \"#utility.yul\":8919:8920   */\n      0x01\n        /* \"#utility.yul\":8916:8917   */\n      dup2\n        /* \"#utility.yul\":8912:8921   */\n      add\n        /* \"#utility.yul\":8907:8921   */\n      swap1\n      pop\n        /* \"#utility.yul\":8872:9268   */\n      jump(tag_316)\n    tag_318:\n        /* \"#utility.yul\":8876:8890   */\n      pop\n        /* \"#utility.yul\":9284:9288   */\n      dup3\n        /* \"#utility.yul\":9277:9288   */\n      swap8\n      pop\n        /* \"#utility.yul\":9304:9307   */\n      dup8\n        /* \"#utility.yul\":9297:9307   */\n      swap6\n      pop\n        /* \"#utility.yul\":8466:9313   */\n      pop\n      pop\n      pop\n      pop\n      pop\n        /* \"#utility.yul\":8322:9313   */\n      swap3\n      swap2\n      pop\n      pop\n      jump\t// out\n        /* \"#utility.yul\":9319:9499   */\n    tag_208:\n        /* \"#utility.yul\":9367:9444   */\n      0x4e487b7100000000000000000000000000000000000000000000000000000000\n        /* \"#utility.yul\":9364:9365   */\n      0x00\n        /* \"#utility.yul\":9357:9445   */\n      mstore\n        /* \"#utility.yul\":9464:9468   */\n      0x21\n        /* \"#utility.yul\":9461:9462   */\n      0x04\n        /* \"#utility.yul\":9454:9469   */\n      mstore\n        /* \"#utility.yul\":9488:9492   */\n      0x24\n        /* \"#utility.yul\":9485:9486   */\n      0x00\n        /* \"#utility.yul\":9478:9493   */\n      revert\n        /* \"#utility.yul\":9505:9626   */\n    tag_209:\n        /* \"#utility.yul\":9594:9595   */\n      0x08\n        /* \"#utility.yul\":9587:9592   */\n      dup2\n        /* \"#utility.yul\":9584:9596   */\n      lt\n        /* \"#utility.yul\":9574:9620   */\n      tag_323\n      jumpi\n        /* \"#utility.yul\":9600:9618   */\n      tag_324\n      tag_208\n      jump\t// in\n    tag_324:\n        /* \"#utility.yul\":9574:9620   */\n    tag_323:\n        /* \"#utility.yul\":9505:9626   */\n      pop\n      jump\t// out\n        /* \"#utility.yul\":9632:9775   */\n    tag_210:\n        /* \"#utility.yul\":9685:9692   */\n      0x00\n        /* \"#utility.yul\":9714:9719   */\n      dup2\n        /* \"#utility.yul\":9703:9719   */\n      swap1\n      pop\n        /* \"#utility.yul\":9720:9769   */\n      tag_326\n        /* \"#utility.yul\":9763:9768   */\n      dup3\n        /* \"#utility.yul\":9720:9769   */\n      tag_209\n      jump\t// in\n    tag_326:\n        /* \"#utility.yul\":9632:9775   */\n      swap2\n      swap1\n      pop\n      jump\t// out\n        /* \"#utility.yul\":9781:9924   */\n    tag_211:\n        /* \"#utility.yul\":9845:9854   */\n      0x00\n        /* \"#utility.yul\":9878:9918   */\n      tag_328\n        /* \"#utility.yul\":9912:9917   */\n      dup3\n        /* \"#utility.yul\":9878:9918   */\n      tag_210\n      jump\t// in\n    tag_328:\n        /* \"#utility.yul\":9865:9918   */\n      swap1\n      pop\n        /* \"#utility.yul\":9781:9924   */\n      swap2\n      swap1\n      pop\n      jump\t// out\n        /* \"#utility.yul\":9930:10089   */\n    tag_212:\n        /* \"#utility.yul\":10031:10082   */\n      tag_330\n        /* \"#utility.yul\":10076:10081   */\n      dup2\n        /* \"#utility.yul\":10031:10082   */\n      tag_211\n      jump\t// in\n    tag_330:\n        /* \"#utility.yul\":10026:10029   */\n      dup3\n        /* \"#utility.yul\":10019:10083   */\n      mstore\n        /* \"#utility.yul\":9930:10089   */\n      pop\n      pop\n      jump\t// out\n        /* \"#utility.yul\":10095:11473   */\n    tag_47:\n        /* \"#utility.yul\":10500:10504   */\n      0x00\n        /* \"#utility.yul\":10538:10541   */\n      0xe0\n        /* \"#utility.yul\":10527:10536   */\n      dup3\n        /* \"#utility.yul\":10523:10542   */\n      add\n        /* \"#utility.yul\":10515:10542   */\n      swap1\n      pop\n        /* \"#utility.yul\":10588:10597   */\n      dup2\n        /* \"#utility.yul\":10582:10586   */\n      dup2\n        /* \"#utility.yul\":10578:10598   */\n      sub\n        /* \"#utility.yul\":10574:10575   */\n      0x00\n        /* \"#utility.yul\":10563:10572   */\n      dup4\n        /* \"#utility.yul\":10559:10576   */\n      add\n        /* \"#utility.yul\":10552:10599   */\n      mstore\n        /* \"#utility.yul\":10616:10694   */\n      tag_332\n        /* \"#utility.yul\":10689:10693   */\n      dup2\n        /* \"#utility.yul\":10680:10686   */\n      dup11\n        /* \"#utility.yul\":10616:10694   */\n      tag_200\n      jump\t// in\n    tag_332:\n        /* \"#utility.yul\":10608:10694   */\n      swap1\n      pop\n        /* \"#utility.yul\":10704:10776   */\n      tag_333\n        /* \"#utility.yul\":10772:10774   */\n      0x20\n        /* \"#utility.yul\":10761:10770   */\n      dup4\n        /* \"#utility.yul\":10757:10775   */\n      add\n        /* \"#utility.yul\":10748:10754   */\n      dup10\n        /* \"#utility.yul\":10704:10776   */\n      tag_201\n      jump\t// in\n    tag_333:\n        /* \"#utility.yul\":10786:10858   */\n      tag_334\n        /* \"#utility.yul\":10854:10856   */\n      0x40\n        /* \"#utility.yul\":10843:10852   */\n      dup4\n        /* \"#utility.yul\":10839:10857   */\n      add\n        /* \"#utility.yul\":10830:10836   */\n      dup9\n        /* \"#utility.yul\":10786:10858   */\n      tag_201\n      jump\t// in\n    tag_334:\n        /* \"#utility.yul\":10905:10914   */\n      dup2\n        /* \"#utility.yul\":10899:10903   */\n      dup2\n        /* \"#utility.yul\":10895:10915   */\n      sub\n        /* \"#utility.yul\":10890:10892   */\n      0x60\n        /* \"#utility.yul\":10879:10888   */\n      dup4\n        /* \"#utility.yul\":10875:10893   */\n      add\n        /* \"#utility.yul\":10868:10916   */\n      mstore\n        /* \"#utility.yul\":10933:11011   */\n      tag_335\n        /* \"#utility.yul\":11006:11010   */\n      dup2\n        /* \"#utility.yul\":10997:11003   */\n      dup8\n        /* \"#utility.yul\":10933:11011   */\n      tag_200\n      jump\t// in\n    tag_335:\n        /* \"#utility.yul\":10925:11011   */\n      swap1\n      pop\n        /* \"#utility.yul\":11059:11068   */\n      dup2\n        /* \"#utility.yul\":11053:11057   */\n      dup2\n        /* \"#utility.yul\":11049:11069   */\n      sub\n        /* \"#utility.yul\":11043:11046   */\n      0x80\n        /* \"#utility.yul\":11032:11041   */\n      dup4\n        /* \"#utility.yul\":11028:11047   */\n      add\n        /* \"#utility.yul\":11021:11070   */\n      mstore\n        /* \"#utility.yul\":11087:11165   */\n      tag_336\n        /* \"#utility.yul\":11160:11164   */\n      dup2\n        /* \"#utility.yul\":11151:11157   */\n      dup7\n        /* \"#utility.yul\":11087:11165   */\n      tag_200\n      jump\t// in\n    tag_336:\n        /* \"#utility.yul\":11079:11165   */\n      swap1\n      pop\n        /* \"#utility.yul\":11213:11222   */\n      dup2\n        /* \"#utility.yul\":11207:11211   */\n      dup2\n        /* \"#utility.yul\":11203:11223   */\n      sub\n        /* \"#utility.yul\":11197:11200   */\n      0xa0\n        /* \"#utility.yul\":11186:11195   */\n      dup4\n        /* \"#utility.yul\":11182:11201   */\n      add\n        /* \"#utility.yul\":11175:11224   */\n      mstore\n        /* \"#utility.yul\":11241:11369   */\n      tag_337\n        /* \"#utility.yul\":11364:11368   */\n      dup2\n        /* \"#utility.yul\":11355:11361   */\n      dup6\n        /* \"#utility.yul\":11241:11369   */\n      tag_207\n      jump\t// in\n    tag_337:\n        /* \"#utility.yul\":11233:11369   */\n      swap1\n      pop\n        /* \"#utility.yul\":11379:11466   */\n      tag_338\n        /* \"#utility.yul\":11461:11464   */\n      0xc0\n        /* \"#utility.yul\":11450:11459   */\n      dup4\n        /* \"#utility.yul\":11446:11465   */\n      add\n        /* \"#utility.yul\":11437:11443   */\n      dup5\n        /* \"#utility.yul\":11379:11466   */\n      tag_212\n      jump\t// in\n    tag_338:\n        /* \"#utility.yul\":10095:11473   */\n      swap9\n      swap8\n      pop\n      pop\n      pop\n      pop\n      pop\n      pop\n      pop\n      pop\n      jump\t// out\n        /* \"#utility.yul\":11479:11729   */\n    tag_54:\n        /* \"#utility.yul\":11586:11590   */\n      0x00\n        /* \"#utility.yul\":11624:11626   */\n      0x20\n        /* \"#utility.yul\":11613:11622   */\n      dup3\n        /* \"#utility.yul\":11609:11627   */\n      add\n        /* \"#utility.yul\":11601:11627   */\n      swap1\n      pop\n        /* \"#utility.yul\":11637:11722   */\n      tag_340\n        /* \"#utility.yul\":11719:11720   */\n      0x00\n        /* \"#utility.yul\":11708:11717   */\n      dup4\n        /* \"#utility.yul\":11704:11721   */\n      add\n        /* \"#utility.yul\":11695:11701   */\n      dup5\n        /* \"#utility.yul\":11637:11722   */\n      tag_212\n      jump\t// in\n    tag_340:\n        /* \"#utility.yul\":11479:11729   */\n      swap3\n      swap2\n      pop\n      pop\n      jump\t// out\n        /* \"#utility.yul\":11735:11852   */\n    tag_213:\n        /* \"#utility.yul\":11844:11845   */\n      0x00\n        /* \"#utility.yul\":11841:11842   */\n      dup1\n        /* \"#utility.yul\":11834:11846   */\n      revert\n        /* \"#utility.yul\":11858:11975   */\n    tag_214:\n        /* \"#utility.yul\":11967:11968   */\n      0x00\n        /* \"#utility.yul\":11964:11965   */\n      dup1\n        /* \"#utility.yul\":11957:11969   */\n      revert\n        /* \"#utility.yul\":11981:12161   */\n    tag_215:\n        /* \"#utility.yul\":12029:12106   */\n      0x4e487b7100000000000000000000000000000000000000000000000000000000\n        /* \"#utility.yul\":12026:12027   */\n      0x00\n        /* \"#utility.yul\":12019:12107   */\n      mstore\n        /* \"#utility.yul\":12126:12130   */\n      0x41\n        /* \"#utility.yul\":12123:12124   */\n      0x04\n        /* \"#utility.yul\":12116:12131   */\n      mstore\n        /* \"#utility.yul\":12150:12154   */\n      0x24\n        /* \"#utility.yul\":12147:12148   */\n      0x00\n        /* \"#utility.yul\":12140:12155   */\n      revert\n        /* \"#utility.yul\":12167:12448   */\n    tag_216:\n        /* \"#utility.yul\":12250:12277   */\n      tag_345\n        /* \"#utility.yul\":12272:12276   */\n      dup3\n        /* \"#utility.yul\":12250:12277   */\n      tag_193\n      jump\t// in\n    tag_345:\n        /* \"#utility.yul\":12242:12248   */\n      dup2\n        /* \"#utility.yul\":12238:12278   */\n      add\n        /* \"#utility.yul\":12380:12386   */\n      dup2\n        /* \"#utility.yul\":12368:12378   */\n      dup2\n        /* \"#utility.yul\":12365:12387   */\n      lt\n        /* \"#utility.yul\":12344:12362   */\n      0xffffffffffffffff\n        /* \"#utility.yul\":12332:12342   */\n      dup3\n        /* \"#utility.yul\":12329:12363   */\n      gt\n        /* \"#utility.yul\":12326:12388   */\n      or\n        /* \"#utility.yul\":12323:12411   */\n      iszero\n      tag_346\n      jumpi\n        /* \"#utility.yul\":12391:12409   */\n      tag_347\n      tag_215\n      jump\t// in\n    tag_347:\n        /* \"#utility.yul\":12323:12411   */\n    tag_346:\n        /* \"#utility.yul\":12431:12441   */\n      dup1\n        /* \"#utility.yul\":12427:12429   */\n      0x40\n        /* \"#utility.yul\":12420:12442   */\n      mstore\n        /* \"#utility.yul\":12210:12448   */\n      pop\n        /* \"#utility.yul\":12167:12448   */\n      pop\n      pop\n      jump\t// out\n        /* \"#utility.yul\":12454:12583   */\n    tag_217:\n        /* \"#utility.yul\":12488:12494   */\n      0x00\n        /* \"#utility.yul\":12515:12535   */\n      tag_349\n      tag_175\n      jump\t// in\n    tag_349:\n        /* \"#utility.yul\":12505:12535   */\n      swap1\n      pop\n        /* \"#utility.yul\":12544:12577   */\n      tag_350\n        /* \"#utility.yul\":12572:12576   */\n      dup3\n        /* \"#utility.yul\":12564:12570   */\n      dup3\n        /* \"#utility.yul\":12544:12577   */\n      tag_216\n      jump\t// in\n    tag_350:\n        /* \"#utility.yul\":12454:12583   */\n      swap2\n      swap1\n      pop\n      jump\t// out\n        /* \"#utility.yul\":12589:12897   */\n    tag_218:\n        /* \"#utility.yul\":12651:12655   */\n      0x00\n        /* \"#utility.yul\":12741:12759   */\n      0xffffffffffffffff\n        /* \"#utility.yul\":12733:12739   */\n      dup3\n        /* \"#utility.yul\":12730:12760   */\n      gt\n        /* \"#utility.yul\":12727:12783   */\n      iszero\n      tag_352\n      jumpi\n        /* \"#utility.yul\":12763:12781   */\n      tag_353\n      tag_215\n      jump\t// in\n    tag_353:\n        /* \"#utility.yul\":12727:12783   */\n    tag_352:\n        /* \"#utility.yul\":12801:12830   */\n      tag_354\n        /* \"#utility.yul\":12823:12829   */\n      dup3\n        /* \"#utility.yul\":12801:12830   */\n      tag_193\n      jump\t// in\n    tag_354:\n        /* \"#utility.yul\":12793:12830   */\n      swap1\n      pop\n        /* \"#utility.yul\":12885:12889   */\n      0x20\n        /* \"#utility.yul\":12879:12883   */\n      dup2\n        /* \"#utility.yul\":12875:12890   */\n      add\n        /* \"#utility.yul\":12867:12890   */\n      swap1\n      pop\n        /* \"#utility.yul\":12589:12897   */\n      swap2\n      swap1\n      pop\n      jump\t// out\n        /* \"#utility.yul\":12903:13057   */\n    tag_219:\n        /* \"#utility.yul\":12987:12993   */\n      dup3\n        /* \"#utility.yul\":12982:12985   */\n      dup2\n        /* \"#utility.yul\":12977:12980   */\n      dup4\n        /* \"#utility.yul\":12964:12994   */\n      calldatacopy\n        /* \"#utility.yul\":13049:13050   */\n      0x00\n        /* \"#utility.yul\":13040:13046   */\n      dup4\n        /* \"#utility.yul\":13035:13038   */\n      dup4\n        /* \"#utility.yul\":13031:13047   */\n      add\n        /* \"#utility.yul\":13024:13051   */\n      mstore\n        /* \"#utility.yul\":12903:13057   */\n      pop\n      pop\n      pop\n      jump\t// out\n        /* \"#utility.yul\":13063:13475   */\n    tag_220:\n        /* \"#utility.yul\":13141:13146   */\n      0x00\n        /* \"#utility.yul\":13166:13232   */\n      tag_357\n        /* \"#utility.yul\":13182:13231   */\n      tag_358\n        /* \"#utility.yul\":13224:13230   */\n      dup5\n        /* \"#utility.yul\":13182:13231   */\n      tag_218\n      jump\t// in\n    tag_358:\n        /* \"#utility.yul\":13166:13232   */\n      tag_217\n      jump\t// in\n    tag_357:\n        /* \"#utility.yul\":13157:13232   */\n      swap1\n      pop\n        /* \"#utility.yul\":13255:13261   */\n      dup3\n        /* \"#utility.yul\":13248:13253   */\n      dup2\n        /* \"#utility.yul\":13241:13262   */\n      mstore\n        /* \"#utility.yul\":13293:13297   */\n      0x20\n        /* \"#utility.yul\":13286:13291   */\n      dup2\n        /* \"#utility.yul\":13282:13298   */\n      add\n        /* \"#utility.yul\":13331:13334   */\n      dup5\n        /* \"#utility.yul\":13322:13328   */\n      dup5\n        /* \"#utility.yul\":13317:13320   */\n      dup5\n        /* \"#utility.yul\":13313:13329   */\n      add\n        /* \"#utility.yul\":13310:13335   */\n      gt\n        /* \"#utility.yul\":13307:13419   */\n      iszero\n      tag_359\n      jumpi\n        /* \"#utility.yul\":13338:13417   */\n      tag_360\n      tag_214\n      jump\t// in\n    tag_360:\n        /* \"#utility.yul\":13307:13419   */\n    tag_359:\n        /* \"#utility.yul\":13428:13469   */\n      tag_361\n        /* \"#utility.yul\":13462:13468   */\n      dup5\n        /* \"#utility.yul\":13457:13460   */\n      dup3\n        /* \"#utility.yul\":13452:13455   */\n      dup6\n        /* \"#utility.yul\":13428:13469   */\n      tag_219\n      jump\t// in\n    tag_361:\n        /* \"#utility.yul\":13147:13475   */\n      pop\n        /* \"#utility.yul\":13063:13475   */\n      swap4\n      swap3\n      pop\n      pop\n      pop\n      jump\t// out\n        /* \"#utility.yul\":13495:13835   */\n    tag_221:\n        /* \"#utility.yul\":13551:13556   */\n      0x00\n        /* \"#utility.yul\":13600:13603   */\n      dup3\n        /* \"#utility.yul\":13593:13597   */\n      0x1f\n        /* \"#utility.yul\":13585:13591   */\n      dup4\n        /* \"#utility.yul\":13581:13598   */\n      add\n        /* \"#utility.yul\":13577:13604   */\n      slt\n        /* \"#utility.yul\":13567:13689   */\n      tag_363\n      jumpi\n        /* \"#utility.yul\":13608:13687   */\n      tag_364\n      tag_213\n      jump\t// in\n    tag_364:\n        /* \"#utility.yul\":13567:13689   */\n    tag_363:\n        /* \"#utility.yul\":13725:13731   */\n      dup2\n        /* \"#utility.yul\":13712:13732   */\n      calldataload\n        /* \"#utility.yul\":13750:13829   */\n      tag_365\n        /* \"#utility.yul\":13825:13828   */\n      dup5\n        /* \"#utility.yul\":13817:13823   */\n      dup3\n        /* \"#utility.yul\":13810:13814   */\n      0x20\n        /* \"#utility.yul\":13802:13808   */\n      dup7\n        /* \"#utility.yul\":13798:13815   */\n      add\n        /* \"#utility.yul\":13750:13829   */\n      tag_220\n      jump\t// in\n    tag_365:\n        /* \"#utility.yul\":13741:13829   */\n      swap2\n      pop\n        /* \"#utility.yul\":13557:13835   */\n      pop\n        /* \"#utility.yul\":13495:13835   */\n      swap3\n      swap2\n      pop\n      pop\n      jump\t// out\n        /* \"#utility.yul\":13841:14350   */\n    tag_57:\n        /* \"#utility.yul\":13910:13916   */\n      0x00\n        /* \"#utility.yul\":13959:13961   */\n      0x20\n        /* \"#utility.yul\":13947:13956   */\n      dup3\n        /* \"#utility.yul\":13938:13945   */\n      dup5\n        /* \"#utility.yul\":13934:13957   */\n      sub\n        /* \"#utility.yul\":13930:13962   */\n      slt\n        /* \"#utility.yul\":13927:14046   */\n      iszero\n      tag_367\n      jumpi\n        /* \"#utility.yul\":13965:14044   */\n      tag_368\n      tag_176\n      jump\t// in\n    tag_368:\n        /* \"#utility.yul\":13927:14046   */\n    tag_367:\n        /* \"#utility.yul\":14113:14114   */\n      0x00\n        /* \"#utility.yul\":14102:14111   */\n      dup3\n        /* \"#utility.yul\":14098:14115   */\n      add\n        /* \"#utility.yul\":14085:14116   */\n      calldataload\n        /* \"#utility.yul\":14143:14161   */\n      0xffffffffffffffff\n        /* \"#utility.yul\":14135:14141   */\n      dup2\n        /* \"#utility.yul\":14132:14162   */\n      gt\n        /* \"#utility.yul\":14129:14246   */\n      iszero\n      tag_369\n      jumpi\n        /* \"#utility.yul\":14165:14244   */\n      tag_370\n      tag_177\n      jump\t// in\n    tag_370:\n        /* \"#utility.yul\":14129:14246   */\n    tag_369:\n        /* \"#utility.yul\":14270:14333   */\n      tag_371\n        /* \"#utility.yul\":14325:14332   */\n      dup5\n        /* \"#utility.yul\":14316:14322   */\n      dup3\n        /* \"#utility.yul\":14305:14314   */\n      dup6\n        /* \"#utility.yul\":14301:14323   */\n      add\n        /* \"#utility.yul\":14270:14333   */\n      tag_221\n      jump\t// in\n    tag_371:\n        /* \"#utility.yul\":14260:14333   */\n      swap2\n      pop\n        /* \"#utility.yul\":14056:14343   */\n      pop\n        /* \"#utility.yul\":13841:14350   */\n      swap3\n      swap2\n      pop\n      pop\n      jump\t// out\n        /* \"#utility.yul\":14356:14478   */\n    tag_222:\n        /* \"#utility.yul\":14431:14437   */\n      0x00\n        /* \"#utility.yul\":14465:14470   */\n      dup2\n        /* \"#utility.yul\":14459:14471   */\n      mload\n        /* \"#utility.yul\":14449:14471   */\n      swap1\n      pop\n        /* \"#utility.yul\":14356:14478   */\n      swap2\n      swap1\n      pop\n      jump\t// out\n        /* \"#utility.yul\":14484:14676   */\n    tag_223:\n        /* \"#utility.yul\":14591:14602   */\n      0x00\n        /* \"#utility.yul\":14625:14631   */\n      dup3\n        /* \"#utility.yul\":14620:14623   */\n      dup3\n        /* \"#utility.yul\":14613:14632   */\n      mstore\n        /* \"#utility.yul\":14665:14669   */\n      0x20\n        /* \"#utility.yul\":14660:14663   */\n      dup3\n        /* \"#utility.yul\":14656:14670   */\n      add\n        /* \"#utility.yul\":14641:14670   */\n      swap1\n      pop\n        /* \"#utility.yul\":14484:14676   */\n      swap3\n      swap2\n      pop\n      pop\n      jump\t// out\n        /* \"#utility.yul\":14682:14822   */\n    tag_224:\n        /* \"#utility.yul\":14757:14761   */\n      0x00\n        /* \"#utility.yul\":14780:14783   */\n      dup2\n        /* \"#utility.yul\":14772:14783   */\n      swap1\n      pop\n        /* \"#utility.yul\":14810:14814   */\n      0x20\n        /* \"#utility.yul\":14805:14808   */\n      dup3\n        /* \"#utility.yul\":14801:14815   */\n      add\n        /* \"#utility.yul\":14793:14815   */\n      swap1\n      pop\n        /* \"#utility.yul\":14682:14822   */\n      swap2\n      swap1\n      pop\n      jump\t// out\n        /* \"#utility.yul\":14828:14960   */\n    tag_225:\n        /* \"#utility.yul\":14921:14953   */\n      tag_376\n        /* \"#utility.yul\":14947:14952   */\n      dup2\n        /* \"#utility.yul\":14921:14953   */\n      tag_182\n      jump\t// in\n    tag_376:\n        /* \"#utility.yul\":14916:14919   */\n      dup3\n        /* \"#utility.yul\":14909:14954   */\n      mstore\n        /* \"#utility.yul\":14828:14960   */\n      pop\n      pop\n      jump\t// out\n        /* \"#utility.yul\":14966:15177   */\n    tag_226:\n        /* \"#utility.yul\":15051:15061   */\n      0x00\n        /* \"#utility.yul\":15072:15134   */\n      tag_378\n        /* \"#utility.yul\":15130:15133   */\n      dup4\n        /* \"#utility.yul\":15122:15128   */\n      dup4\n        /* \"#utility.yul\":15072:15134   */\n      tag_225\n      jump\t// in\n    tag_378:\n        /* \"#utility.yul\":15166:15170   */\n      0x20\n        /* \"#utility.yul\":15161:15164   */\n      dup4\n        /* \"#utility.yul\":15157:15171   */\n      add\n        /* \"#utility.yul\":15143:15171   */\n      swap1\n      pop\n        /* \"#utility.yul\":14966:15177   */\n      swap3\n      swap2\n      pop\n      pop\n      jump\t// out\n        /* \"#utility.yul\":15183:15304   */\n    tag_227:\n        /* \"#utility.yul\":15261:15265   */\n      0x00\n        /* \"#utility.yul\":15293:15297   */\n      0x20\n        /* \"#utility.yul\":15288:15291   */\n      dup3\n        /* \"#utility.yul\":15284:15298   */\n      add\n        /* \"#utility.yul\":15276:15298   */\n      swap1\n      pop\n        /* \"#utility.yul\":15183:15304   */\n      swap2\n      swap1\n      pop\n      jump\t// out\n        /* \"#utility.yul\":15356:16152   */\n    tag_228:\n        /* \"#utility.yul\":15491:15494   */\n      0x00\n        /* \"#utility.yul\":15520:15582   */\n      tag_381\n        /* \"#utility.yul\":15576:15581   */\n      dup3\n        /* \"#utility.yul\":15520:15582   */\n      tag_222\n      jump\t// in\n    tag_381:\n        /* \"#utility.yul\":15598:15692   */\n      tag_382\n        /* \"#utility.yul\":15685:15691   */\n      dup2\n        /* \"#utility.yul\":15680:15683   */\n      dup6\n        /* \"#utility.yul\":15598:15692   */\n      tag_223\n      jump\t// in\n    tag_382:\n        /* \"#utility.yul\":15591:15692   */\n      swap4\n      pop\n        /* \"#utility.yul\":15716:15780   */\n      tag_383\n        /* \"#utility.yul\":15774:15779   */\n      dup4\n        /* \"#utility.yul\":15716:15780   */\n      tag_224\n      jump\t// in\n    tag_383:\n        /* \"#utility.yul\":15803:15810   */\n      dup1\n        /* \"#utility.yul\":15834:15835   */\n      0x00\n        /* \"#utility.yul\":15819:16127   */\n    tag_384:\n        /* \"#utility.yul\":15844:15850   */\n      dup4\n        /* \"#utility.yul\":15841:15842   */\n      dup2\n        /* \"#utility.yul\":15838:15851   */\n      lt\n        /* \"#utility.yul\":15819:16127   */\n      iszero\n      tag_386\n      jumpi\n        /* \"#utility.yul\":15920:15926   */\n      dup2\n        /* \"#utility.yul\":15914:15927   */\n      mload\n        /* \"#utility.yul\":15947:16026   */\n      tag_387\n        /* \"#utility.yul\":16022:16025   */\n      dup9\n        /* \"#utility.yul\":16007:16020   */\n      dup3\n        /* \"#utility.yul\":15947:16026   */\n      tag_226\n      jump\t// in\n    tag_387:\n        /* \"#utility.yul\":15940:16026   */\n      swap8\n      pop\n        /* \"#utility.yul\":16049:16117   */\n      tag_388\n        /* \"#utility.yul\":16110:16116   */\n      dup4\n        /* \"#utility.yul\":16049:16117   */\n      tag_227\n      jump\t// in\n    tag_388:\n        /* \"#utility.yul\":16039:16117   */\n      swap3\n      pop\n        /* \"#utility.yul\":15879:16127   */\n      pop\n        /* \"#utility.yul\":15866:15867   */\n      0x01\n        /* \"#utility.yul\":15863:15864   */\n      dup2\n        /* \"#utility.yul\":15859:15868   */\n      add\n        /* \"#utility.yul\":15854:15868   */\n      swap1\n      pop\n        /* \"#utility.yul\":15819:16127   */\n      jump(tag_384)\n    tag_386:\n        /* \"#utility.yul\":15823:15837   */\n      pop\n        /* \"#utility.yul\":16143:16146   */\n      dup6\n        /* \"#utility.yul\":16136:16146   */\n      swap4\n      pop\n        /* \"#utility.yul\":15496:16152   */\n      pop\n      pop\n      pop\n        /* \"#utility.yul\":15356:16152   */\n      swap3\n      swap2\n      pop\n      pop\n      jump\t// out\n        /* \"#utility.yul\":16158:16563   */\n    tag_65:\n        /* \"#utility.yul\":16317:16321   */\n      0x00\n        /* \"#utility.yul\":16355:16357   */\n      0x20\n        /* \"#utility.yul\":16344:16353   */\n      dup3\n        /* \"#utility.yul\":16340:16358   */\n      add\n        /* \"#utility.yul\":16332:16358   */\n      swap1\n      pop\n        /* \"#utility.yul\":16404:16413   */\n      dup2\n        /* \"#utility.yul\":16398:16402   */\n      dup2\n        /* \"#utility.yul\":16394:16414   */\n      sub\n        /* \"#utility.yul\":16390:16391   */\n      0x00\n        /* \"#utility.yul\":16379:16388   */\n      dup4\n        /* \"#utility.yul\":16375:16392   */\n      add\n        /* \"#utility.yul\":16368:16415   */\n      mstore\n        /* \"#utility.yul\":16432:16556   */\n      tag_390\n        /* \"#utility.yul\":16551:16555   */\n      dup2\n        /* \"#utility.yul\":16542:16548   */\n      dup5\n        /* \"#utility.yul\":16432:16556   */\n      tag_228\n      jump\t// in\n    tag_390:\n        /* \"#utility.yul\":16424:16556   */\n      swap1\n      pop\n        /* \"#utility.yul\":16158:16563   */\n      swap3\n      swap2\n      pop\n      pop\n      jump\t// out\n        /* \"#utility.yul\":16569:16791   */\n    tag_69:\n        /* \"#utility.yul\":16662:16666   */\n      0x00\n        /* \"#utility.yul\":16700:16702   */\n      0x20\n        /* \"#utility.yul\":16689:16698   */\n      dup3\n        /* \"#utility.yul\":16685:16703   */\n      add\n        /* \"#utility.yul\":16677:16703   */\n      swap1\n      pop\n        /* \"#utility.yul\":16713:16784   */\n      tag_392\n        /* \"#utility.yul\":16781:16782   */\n      0x00\n        /* \"#utility.yul\":16770:16779   */\n      dup4\n        /* \"#utility.yul\":16766:16783   */\n      add\n        /* \"#utility.yul\":16757:16763   */\n      dup5\n        /* \"#utility.yul\":16713:16784   */\n      tag_201\n      jump\t// in\n    tag_392:\n        /* \"#utility.yul\":16569:16791   */\n      swap3\n      swap2\n      pop\n      pop\n      jump\t// out\n        /* \"#utility.yul\":16797:16919   */\n    tag_229:\n        /* \"#utility.yul\":16870:16894   */\n      tag_394\n        /* \"#utility.yul\":16888:16893   */\n      dup2\n        /* \"#utility.yul\":16870:16894   */\n      tag_188\n      jump\t// in\n    tag_394:\n        /* \"#utility.yul\":16863:16868   */\n      dup2\n        /* \"#utility.yul\":16860:16895   */\n      eq\n        /* \"#utility.yul\":16850:16913   */\n      tag_395\n      jumpi\n        /* \"#utility.yul\":16909:16910   */\n      0x00\n        /* \"#utility.yul\":16906:16907   */\n      dup1\n        /* \"#utility.yul\":16899:16911   */\n      revert\n        /* \"#utility.yul\":16850:16913   */\n    tag_395:\n        /* \"#utility.yul\":16797:16919   */\n      pop\n      jump\t// out\n        /* \"#utility.yul\":16925:17064   */\n    tag_230:\n        /* \"#utility.yul\":16971:16976   */\n      0x00\n        /* \"#utility.yul\":17009:17015   */\n      dup2\n        /* \"#utility.yul\":16996:17016   */\n      calldataload\n        /* \"#utility.yul\":16987:17016   */\n      swap1\n      pop\n        /* \"#utility.yul\":17025:17058   */\n      tag_397\n        /* \"#utility.yul\":17052:17057   */\n      dup2\n        /* \"#utility.yul\":17025:17058   */\n      tag_229\n      jump\t// in\n    tag_397:\n        /* \"#utility.yul\":16925:17064   */\n      swap3\n      swap2\n      pop\n      pop\n      jump\t// out\n        /* \"#utility.yul\":17070:17399   */\n    tag_75:\n        /* \"#utility.yul\":17129:17135   */\n      0x00\n        /* \"#utility.yul\":17178:17180   */\n      0x20\n        /* \"#utility.yul\":17166:17175   */\n      dup3\n        /* \"#utility.yul\":17157:17164   */\n      dup5\n        /* \"#utility.yul\":17153:17176   */\n      sub\n        /* \"#utility.yul\":17149:17181   */\n      slt\n        /* \"#utility.yul\":17146:17265   */\n      iszero\n      tag_399\n      jumpi\n        /* \"#utility.yul\":17184:17263   */\n      tag_400\n      tag_176\n      jump\t// in\n    tag_400:\n        /* \"#utility.yul\":17146:17265   */\n    tag_399:\n        /* \"#utility.yul\":17304:17305   */\n      0x00\n        /* \"#utility.yul\":17329:17382   */\n      tag_401\n        /* \"#utility.yul\":17374:17381   */\n      dup5\n        /* \"#utility.yul\":17365:17371   */\n      dup3\n        /* \"#utility.yul\":17354:17363   */\n      dup6\n        /* \"#utility.yul\":17350:17372   */\n      add\n        /* \"#utility.yul\":17329:17382   */\n      tag_230\n      jump\t// in\n    tag_401:\n        /* \"#utility.yul\":17319:17382   */\n      swap2\n      pop\n        /* \"#utility.yul\":17275:17392   */\n      pop\n        /* \"#utility.yul\":17070:17399   */\n      swap3\n      swap2\n      pop\n      pop\n      jump\t// out\n        /* \"#utility.yul\":17405:17828   */\n    tag_81:\n        /* \"#utility.yul\":17546:17550   */\n      0x00\n        /* \"#utility.yul\":17584:17586   */\n      0x40\n        /* \"#utility.yul\":17573:17582   */\n      dup3\n        /* \"#utility.yul\":17569:17587   */\n      add\n        /* \"#utility.yul\":17561:17587   */\n      swap1\n      pop\n        /* \"#utility.yul\":17597:17668   */\n      tag_403\n        /* \"#utility.yul\":17665:17666   */\n      0x00\n        /* \"#utility.yul\":17654:17663   */\n      dup4\n        /* \"#utility.yul\":17650:17667   */\n      add\n        /* \"#utility.yul\":17641:17647   */\n      dup6\n        /* \"#utility.yul\":17597:17668   */\n      tag_201\n      jump\t// in\n    tag_403:\n        /* \"#utility.yul\":17715:17724   */\n      dup2\n        /* \"#utility.yul\":17709:17713   */\n      dup2\n        /* \"#utility.yul\":17705:17725   */\n      sub\n        /* \"#utility.yul\":17700:17702   */\n      0x20\n        /* \"#utility.yul\":17689:17698   */\n      dup4\n        /* \"#utility.yul\":17685:17703   */\n      add\n        /* \"#utility.yul\":17678:17726   */\n      mstore\n        /* \"#utility.yul\":17743:17821   */\n      tag_404\n        /* \"#utility.yul\":17816:17820   */\n      dup2\n        /* \"#utility.yul\":17807:17813   */\n      dup5\n        /* \"#utility.yul\":17743:17821   */\n      tag_200\n      jump\t// in\n    tag_404:\n        /* \"#utility.yul\":17735:17821   */\n      swap1\n      pop\n        /* \"#utility.yul\":17405:17828   */\n      swap4\n      swap3\n      pop\n      pop\n      pop\n      jump\t// out\n        /* \"#utility.yul\":17834:17924   */\n    tag_231:\n        /* \"#utility.yul\":17868:17875   */\n      0x00\n        /* \"#utility.yul\":17911:17916   */\n      dup2\n        /* \"#utility.yul\":17904:17917   */\n      iszero\n        /* \"#utility.yul\":17897:17918   */\n      iszero\n        /* \"#utility.yul\":17886:17918   */\n      swap1\n      pop\n        /* \"#utility.yul\":17834:17924   */\n      swap2\n      swap1\n      pop\n      jump\t// out\n        /* \"#utility.yul\":17930:18039   */\n    tag_232:\n        /* \"#utility.yul\":18011:18032   */\n      tag_407\n        /* \"#utility.yul\":18026:18031   */\n      dup2\n        /* \"#utility.yul\":18011:18032   */\n      tag_231\n      jump\t// in\n    tag_407:\n        /* \"#utility.yul\":18006:18009   */\n      dup3\n        /* \"#utility.yul\":17999:18033   */\n      mstore\n        /* \"#utility.yul\":17930:18039   */\n      pop\n      pop\n      jump\t// out\n        /* \"#utility.yul\":18045:18255   */\n    tag_86:\n        /* \"#utility.yul\":18132:18136   */\n      0x00\n        /* \"#utility.yul\":18170:18172   */\n      0x20\n        /* \"#utility.yul\":18159:18168   */\n      dup3\n        /* \"#utility.yul\":18155:18173   */\n      add\n        /* \"#utility.yul\":18147:18173   */\n      swap1\n      pop\n        /* \"#utility.yul\":18183:18248   */\n      tag_409\n        /* \"#utility.yul\":18245:18246   */\n      0x00\n        /* \"#utility.yul\":18234:18243   */\n      dup4\n        /* \"#utility.yul\":18230:18247   */\n      add\n        /* \"#utility.yul\":18221:18227   */\n      dup5\n        /* \"#utility.yul\":18183:18248   */\n      tag_232\n      jump\t// in\n    tag_409:\n        /* \"#utility.yul\":18045:18255   */\n      swap3\n      swap2\n      pop\n      pop\n      jump\t// out\n        /* \"#utility.yul\":18261:18441   */\n    tag_233:\n        /* \"#utility.yul\":18309:18386   */\n      0x4e487b7100000000000000000000000000000000000000000000000000000000\n        /* \"#utility.yul\":18306:18307   */\n      0x00\n        /* \"#utility.yul\":18299:18387   */\n      mstore\n        /* \"#utility.yul\":18406:18410   */\n      0x22\n        /* \"#utility.yul\":18403:18404   */\n      0x04\n        /* \"#utility.yul\":18396:18411   */\n      mstore\n        /* \"#utility.yul\":18430:18434   */\n      0x24\n        /* \"#utility.yul\":18427:18428   */\n      0x00\n        /* \"#utility.yul\":18420:18435   */\n      revert\n        /* \"#utility.yul\":18447:18767   */\n    tag_95:\n        /* \"#utility.yul\":18491:18497   */\n      0x00\n        /* \"#utility.yul\":18528:18529   */\n      0x02\n        /* \"#utility.yul\":18522:18526   */\n      dup3\n        /* \"#utility.yul\":18518:18530   */\n      div\n        /* \"#utility.yul\":18508:18530   */\n      swap1\n      pop\n        /* \"#utility.yul\":18575:18576   */\n      0x01\n        /* \"#utility.yul\":18569:18573   */\n      dup3\n        /* \"#utility.yul\":18565:18577   */\n      and\n        /* \"#utility.yul\":18596:18614   */\n      dup1\n        /* \"#utility.yul\":18586:18667   */\n      tag_412\n      jumpi\n        /* \"#utility.yul\":18652:18656   */\n      0x7f\n        /* \"#utility.yul\":18644:18650   */\n      dup3\n        /* \"#utility.yul\":18640:18657   */\n      and\n        /* \"#utility.yul\":18630:18657   */\n      swap2\n      pop\n        /* \"#utility.yul\":18586:18667   */\n    tag_412:\n        /* \"#utility.yul\":18714:18716   */\n      0x20\n        /* \"#utility.yul\":18706:18712   */\n      dup3\n        /* \"#utility.yul\":18703:18717   */\n      lt\n        /* \"#utility.yul\":18683:18701   */\n      dup2\n        /* \"#utility.yul\":18680:18718   */\n      eq\n        /* \"#utility.yul\":18677:18761   */\n      iszero\n      tag_413\n      jumpi\n        /* \"#utility.yul\":18733:18751   */\n      tag_414\n      tag_233\n      jump\t// in\n    tag_414:\n        /* \"#utility.yul\":18677:18761   */\n    tag_413:\n        /* \"#utility.yul\":18498:18767   */\n      pop\n        /* \"#utility.yul\":18447:18767   */\n      swap2\n      swap1\n      pop\n      jump\t// out\n\n    auxdata: 0xa2646970667358221220a521d493c6260ee3c5ae538aecbc037265e8658bd6d002d922453dedd9307dfc64736f6c63430008090033\n}\n","bytecode":{"linkReferences":{},"object":"60806040523480156200001157600080fd5b5060405162001fb238038062001fb2833981810160405281019062000037919062000601565b866000806101000a81548173ffffffffffffffffffffffffffffffffffffffff021916908373ffffffffffffffffffffffffffffffffffffffff16021790555085600160006101000a81548173ffffffffffffffffffffffffffffffffffffffff021916908373ffffffffffffffffffffffffffffffffffffffff1602179055508460049080519060200190620000d092919062000156565b508360059080519060200190620000e992919062000156565b5082600690805190602001906200010292919062000156565b5081600790805190602001906200011b929190620001e7565b5080600860006101000a81548160ff0219169083600781111562000144576200014362000730565b5b021790555050505050505050620007c4565b82805462000164906200078e565b90600052602060002090601f016020900481019282620001885760008555620001d4565b82601f10620001a357805160ff1916838001178555620001d4565b82800160010185558215620001d4579182015b82811115620001d3578251825591602001919060010190620001b6565b5b509050620001e391906200024e565b5090565b8280548282559060005260206000209081019282156200023b579160200282015b828111156200023a5782518290805190602001906200022992919062000156565b509160200191906001019062000208565b5b5090506200024a91906200026d565b5090565b5b80821115620002695760008160009055506001016200024f565b5090565b5b8082111562000291576000818162000287919062000295565b506001016200026e565b5090565b508054620002a3906200078e565b6000825580601f10620002b75750620002d8565b601f016020900490600052602060002090810190620002d791906200024e565b5b50565b6000604051905090565b600080fd5b600080fd5b600073ffffffffffffffffffffffffffffffffffffffff82169050919050565b60006200031c82620002ef565b9050919050565b6200032e816200030f565b81146200033a57600080fd5b50565b6000815190506200034e8162000323565b92915050565b600080fd5b600080fd5b6000601f19601f8301169050919050565b7f4e487b7100000000000000000000000000000000000000000000000000000000600052604160045260246000fd5b620003a9826200035e565b810181811067ffffffffffffffff82111715620003cb57620003ca6200036f565b5b80604052505050565b6000620003e0620002db565b9050620003ee82826200039e565b919050565b600067ffffffffffffffff8211156200041157620004106200036f565b5b6200041c826200035e565b9050602081019050919050565b60005b83811015620004495780820151818401526020810190506200042c565b8381111562000459576000848401525b50505050565b6000620004766200047084620003f3565b620003d4565b90508281526020810184848401111562000495576200049462000359565b5b620004a284828562000429565b509392505050565b600082601f830112620004c257620004c162000354565b5b8151620004d48482602086016200045f565b91505092915050565b600067ffffffffffffffff821115620004fb57620004fa6200036f565b5b602082029050602081019050919050565b600080fd5b6000620005286200052284620004dd565b620003d4565b905080838252602082019050602084028301858111156200054e576200054d6200050c565b5b835b818110156200059c57805167ffffffffffffffff81111562000577576200057662000354565b5b808601620005868982620004aa565b8552602085019450505060208101905062000550565b5050509392505050565b600082601f830112620005be57620005bd62000354565b5b8151620005d084826020860162000511565b91505092915050565b60088110620005e757600080fd5b50565b600081519050620005fb81620005d9565b92915050565b600080600080600080600060e0888a031215620006235762000622620002e5565b5b6000620006338a828b016200033d565b9750506020620006468a828b016200033d565b965050604088015167ffffffffffffffff8111156200066a5762000669620002ea565b5b620006788a828b01620004aa565b955050606088015167ffffffffffffffff8111156200069c576200069b620002ea565b5b620006aa8a828b01620004aa565b945050608088015167ffffffffffffffff811115620006ce57620006cd620002ea565b5b620006dc8a828b01620004aa565b93505060a088015167ffffffffffffffff8111156200070057620006ff620002ea565b5b6200070e8a828b01620005a6565b92505060c0620007218a828b01620005ea565b91505092959891949750929550565b7f4e487b7100000000000000000000000000000000000000000000000000000000600052602160045260246000fd5b7f4e487b7100000000000000000000000000000000000000000000000000000000600052602260045260246000fd5b60006002820490506001821680620007a757607f821691505b60208210811415620007be57620007bd6200075f565b5b50919050565b6117de80620007d46000396000f3fe608060405234801561001057600080fd5b50600436106101005760003560e01c80636604b72211610097578063a6c3e6b911610066578063a6c3e6b914610295578063cccf1cfd146102b3578063e83ddcea146102cf578063f7cbb1b21461030057610100565b80636604b7221461021f5780637284e4161461023b5780638fbbff8d14610259578063a464d2651461027757610100565b806320822abc116100d357806320822abc1461018f5780634051ddac146101bf5780634a79d50c146101e35780634f28bf0e1461020157610100565b806302a5d5f0146101055780631435ba3c146101355780631b1e1324146101535780631c2cd13014610171575b600080fd5b61011f600480360381019061011a9190610f27565b610330565b60405161012c9190610f95565b60405180910390f35b61013d61036f565b60405161014a9190610fbf565b60405180910390f35b61015b61037c565b6040516101689190611193565b60405180910390f35b6101796104c3565b60405161018691906111ff565b60405180910390f35b6101a960048036038101906101a49190610f27565b610551565b6040516101b691906111ff565b60405180910390f35b6101c76105fd565b6040516101da9796959493929190611369565b60405180910390f35b6101eb6108f3565b6040516101f891906111ff565b60405180910390f35b610209610981565b60405161021691906113f4565b60405180910390f35b61023960048036038101906102349190611544565b610994565b005b610243610a6e565b60405161025091906111ff565b60405180910390f35b610261610afc565b60405161026e919061164b565b60405180910390f35b61027f610b8a565b60405161028c919061166d565b60405180910390f35b61029d610bb0565b6040516102aa919061166d565b60405180910390f35b6102cd60048036038101906102c891906116b4565b610bd4565b005b6102e960048036038101906102e49190610f27565b610d3e565b6040516102f79291906116e1565b60405180910390f35b61031a600480360381019061031591906116b4565b610e1a565b604051610327919061172c565b60405180910390f35b6002818154811061034057600080fd5b906000526020600020016000915054906101000a900473ffffffffffffffffffffffffffffffffffffffff1681565b6000600980549050905090565b60606009805480602002602001604051908101604052809291908181526020016000905b828210156104ba57838290600052602060002090600202016040518060400160405290816000820160009054906101000a900473ffffffffffffffffffffffffffffffffffffffff1673ffffffffffffffffffffffffffffffffffffffff1673ffffffffffffffffffffffffffffffffffffffff16815260200160018201805461042990611776565b80601f016020809104026020016040519081016040528092919081815260200182805461045590611776565b80156104a25780601f10610477576101008083540402835291602001916104a2565b820191906000526020600020905b81548152906001019060200180831161048557829003601f168201915b505050505081525050815260200190600101906103a0565b50505050905090565b600480546104d090611776565b80601f01602080910402602001604051908101604052809291908181526020018280546104fc90611776565b80156105495780601f1061051e57610100808354040283529160200191610549565b820191906000526020600020905b81548152906001019060200180831161052c57829003601f168201915b505050505081565b6007818154811061056157600080fd5b90600052602060002001600091509050805461057c90611776565b80601f01602080910402602001604051908101604052809291908181526020018280546105a890611776565b80156105f55780601f106105ca576101008083540402835291602001916105f5565b820191906000526020600020905b8154815290600101906020018083116105d857829003601f168201915b505050505081565b606060008060608060606000600560008054906101000a900473ffffffffffffffffffffffffffffffffffffffff16600160009054906101000a900473ffffffffffffffffffffffffffffffffffffffff16600460066007600860009054906101000a900460ff1686805461067190611776565b80601f016020809104026020016040519081016040528092919081815260200182805461069d90611776565b80156106ea5780601f106106bf576101008083540402835291602001916106ea565b820191906000526020600020905b8154815290600101906020018083116106cd57829003601f168201915b505050505096508380546106fd90611776565b80601f016020809104026020016040519081016040528092919081815260200182805461072990611776565b80156107765780601f1061074b57610100808354040283529160200191610776565b820191906000526020600020905b81548152906001019060200180831161075957829003601f168201915b5050505050935082805461078990611776565b80601f01602080910402602001604051908101604052809291908181526020018280546107b590611776565b80156108025780601f106107d757610100808354040283529160200191610802565b820191906000526020600020905b8154815290600101906020018083116107e557829003601f168201915b5050505050925081805480602002602001604051908101604052809291908181526020016000905b828210156108d657838290600052602060002001805461084990611776565b80601f016020809104026020016040519081016040528092919081815260200182805461087590611776565b80156108c25780601f10610897576101008083540402835291602001916108c2565b820191906000526020600020905b8154815290600101906020018083116108a557829003601f168201915b50505050508152602001906001019061082a565b505050509150965096509650965096509650965090919293949596565b6005805461090090611776565b80601f016020809104026020016040519081016040528092919081815260200182805461092c90611776565b80156109795780601f1061094e57610100808354040283529160200191610979565b820191906000526020600020905b81548152906001019060200180831161095c57829003601f168201915b505050505081565b600860009054906101000a900460ff1681565b600360003373ffffffffffffffffffffffffffffffffffffffff1673ffffffffffffffffffffffffffffffffffffffff16815260200190815260200160002060009054906101000a900460ff166109ea57600080fd5b600060096001816001815401808255809150500390600052602060002090600202019050338160000160006101000a81548173ffffffffffffffffffffffffffffffffffffffff021916908373ffffffffffffffffffffffffffffffffffffffff16021790555081816001019080519060200190610a69929190610e3a565b505050565b60068054610a7b90611776565b80601f0160208091040260200160405190810160405280929190818152602001828054610aa790611776565b8015610af45780601f10610ac957610100808354040283529160200191610af4565b820191906000526020600020905b815481529060010190602001808311610ad757829003601f168201915b505050505081565b60606002805480602002602001604051908101604052809291908181526020018280548015610b8057602002820191906000526020600020905b8160009054906101000a900473ffffffffffffffffffffffffffffffffffffffff1673ffffffffffffffffffffffffffffffffffffffff1681526020019060010190808311610b36575b5050505050905090565b600160009054906101000a900473ffffffffffffffffffffffffffffffffffffffff1681565b60008054906101000a900473ffffffffffffffffffffffffffffffffffffffff1681565b600160009054906101000a900473ffffffffffffffffffffffffffffffffffffffff1673ffffffffffffffffffffffffffffffffffffffff163373ffffffffffffffffffffffffffffffffffffffff1614610c2e57600080fd5b600360008273ffffffffffffffffffffffffffffffffffffffff1673ffffffffffffffffffffffffffffffffffffffff16815260200190815260200160002060009054906101000a900460ff16610d3b576001600360008373ffffffffffffffffffffffffffffffffffffffff1673ffffffffffffffffffffffffffffffffffffffff16815260200190815260200160002060006101000a81548160ff0219169083151502179055506002819080600181540180825580915050600190039060005260206000200160009091909190916101000a81548173ffffffffffffffffffffffffffffffffffffffff021916908373ffffffffffffffffffffffffffffffffffffffff1602179055505b50565b60098181548110610d4e57600080fd5b90600052602060002090600202016000915090508060000160009054906101000a900473ffffffffffffffffffffffffffffffffffffffff1690806001018054610d9790611776565b80601f0160208091040260200160405190810160405280929190818152602001828054610dc390611776565b8015610e105780601f10610de557610100808354040283529160200191610e10565b820191906000526020600020905b815481529060010190602001808311610df357829003601f168201915b5050505050905082565b60036020528060005260406000206000915054906101000a900460ff1681565b828054610e4690611776565b90600052602060002090601f016020900481019282610e685760008555610eaf565b82601f10610e8157805160ff1916838001178555610eaf565b82800160010185558215610eaf579182015b82811115610eae578251825591602001919060010190610e93565b5b509050610ebc9190610ec0565b5090565b5b80821115610ed9576000816000905550600101610ec1565b5090565b6000604051905090565b600080fd5b600080fd5b6000819050919050565b610f0481610ef1565b8114610f0f57600080fd5b50565b600081359050610f2181610efb565b92915050565b600060208284031215610f3d57610f3c610ee7565b5b6000610f4b84828501610f12565b91505092915050565b600073ffffffffffffffffffffffffffffffffffffffff82169050919050565b6000610f7f82610f54565b9050919050565b610f8f81610f74565b82525050565b6000602082019050610faa6000830184610f86565b92915050565b610fb981610ef1565b82525050565b6000602082019050610fd46000830184610fb0565b92915050565b600081519050919050565b600082825260208201905092915050565b6000819050602082019050919050565b600061101182610f54565b9050919050565b61102181611006565b82525050565b600081519050919050565b600082825260208201905092915050565b60005b83811015611061578082015181840152602081019050611046565b83811115611070576000848401525b50505050565b6000601f19601f8301169050919050565b600061109282611027565b61109c8185611032565b93506110ac818560208601611043565b6110b581611076565b840191505092915050565b60006040830160008301516110d86000860182611018565b50602083015184820360208601526110f08282611087565b9150508091505092915050565b600061110983836110c0565b905092915050565b6000602082019050919050565b600061112982610fda565b6111338185610fe5565b93508360208202850161114585610ff6565b8060005b85811015611181578484038952815161116285826110fd565b945061116d83611111565b925060208a01995050600181019050611149565b50829750879550505050505092915050565b600060208201905081810360008301526111ad818461111e565b905092915050565b600082825260208201905092915050565b60006111d182611027565b6111db81856111b5565b93506111eb818560208601611043565b6111f481611076565b840191505092915050565b6000602082019050818103600083015261121981846111c6565b905092915050565b61122a81611006565b82525050565b600081519050919050565b600082825260208201905092915050565b6000819050602082019050919050565b60006112688383611087565b905092915050565b6000602082019050919050565b600061128882611230565b611292818561123b565b9350836020820285016112a48561124c565b8060005b858110156112e057848403895281516112c1858261125c565b94506112cc83611270565b925060208a019950506001810190506112a8565b50829750879550505050505092915050565b7f4e487b7100000000000000000000000000000000000000000000000000000000600052602160045260246000fd5b60088110611332576113316112f2565b5b50565b600081905061134382611321565b919050565b600061135382611335565b9050919050565b61136381611348565b82525050565b600060e0820190508181036000830152611383818a6111c6565b90506113926020830189611221565b61139f6040830188611221565b81810360608301526113b181876111c6565b905081810360808301526113c581866111c6565b905081810360a08301526113d9818561127d565b90506113e860c083018461135a565b98975050505050505050565b6000602082019050611409600083018461135a565b92915050565b600080fd5b600080fd5b7f4e487b7100000000000000000000000000000000000000000000000000000000600052604160045260246000fd5b61145182611076565b810181811067ffffffffffffffff821117156114705761146f611419565b5b80604052505050565b6000611483610edd565b905061148f8282611448565b919050565b600067ffffffffffffffff8211156114af576114ae611419565b5b6114b882611076565b9050602081019050919050565b82818337600083830152505050565b60006114e76114e284611494565b611479565b90508281526020810184848401111561150357611502611414565b5b61150e8482856114c5565b509392505050565b600082601f83011261152b5761152a61140f565b5b813561153b8482602086016114d4565b91505092915050565b60006020828403121561155a57611559610ee7565b5b600082013567ffffffffffffffff81111561157857611577610eec565b5b61158484828501611516565b91505092915050565b600081519050919050565b600082825260208201905092915050565b6000819050602082019050919050565b6115c281610f74565b82525050565b60006115d483836115b9565b60208301905092915050565b6000602082019050919050565b60006115f88261158d565b6116028185611598565b935061160d836115a9565b8060005b8381101561163e57815161162588826115c8565b9750611630836115e0565b925050600181019050611611565b5085935050505092915050565b6000602082019050818103600083015261166581846115ed565b905092915050565b60006020820190506116826000830184611221565b92915050565b61169181611006565b811461169c57600080fd5b50565b6000813590506116ae81611688565b92915050565b6000602082840312156116ca576116c9610ee7565b5b60006116d88482850161169f565b91505092915050565b60006040820190506116f66000830185611221565b818103602083015261170881846111c6565b90509392505050565b60008115159050919050565b61172681611711565b82525050565b6000602082019050611741600083018461171d565b92915050565b7f4e487b7100000000000000000000000000000000000000000000000000000000600052602260045260246000fd5b6000600282049050600182168061178e57607f821691505b602082108114156117a2576117a1611747565b5b5091905056fea2646970667358221220a521d493c6260ee3c5ae538aecbc037265e8658bd6d002d922453dedd9307dfc64736f6c63430008090033","opcodes":"PUSH1 0x80 PUSH1 0x40 MSTORE CALLVALUE DUP1 ISZERO PUSH3 0x11 JUMPI PUSH1 0x0 DUP1 REVERT JUMPDEST POP PUSH1 0x40 MLOAD PUSH3 0x1FB2 CODESIZE SUB DUP1 PUSH3 0x1FB2 DUP4 CODECOPY DUP2 DUP2 ADD PUSH1 0x40 MSTORE DUP2 ADD SWAP1 PUSH3 0x37 SWAP2 SWAP1 PUSH3 0x601 JUMP JUMPDEST DUP7 PUSH1 0x0 DUP1 PUSH2 0x100 EXP DUP2 SLOAD DUP2 PUSH20 0xFFFFFFFFFFFFFFFFFFFFFFFFFFFFFFFFFFFFFFFF MUL NOT AND SWAP1 DUP4 PUSH20 0xFFFFFFFFFFFFFFFFFFFFFFFFFFFFFFFFFFFFFFFF AND MUL OR SWAP1 SSTORE POP DUP6 PUSH1 0x1 PUSH1 0x0 PUSH2 0x100 EXP DUP2 SLOAD DUP2 PUSH20 0xFFFFFFFFFFFFFFFFFFFFFFFFFFFFFFFFFFFFFFFF MUL NOT AND SWAP1 DUP4 PUSH20 0xFFFFFFFFFFFFFFFFFFFFFFFFFFFFFFFFFFFFFFFF AND MUL OR SWAP1 SSTORE POP DUP5 PUSH1 0x4 SWAP1 DUP1 MLOAD SWAP1 PUSH1 0x20 ADD SWAP1 PUSH3 0xD0 SWAP3 SWAP2 SWAP1 PUSH3 0x156 JUMP JUMPDEST POP DUP4 PUSH1 0x5 SWAP1 DUP1 MLOAD SWAP1 PUSH1 0x20 ADD SWAP1 PUSH3 0xE9 SWAP3 SWAP2 SWAP1 PUSH3 0x156 JUMP JUMPDEST POP DUP3 PUSH1 0x6 SWAP1 DUP1 MLOAD SWAP1 PUSH1 0x20 ADD SWAP1 PUSH3 0x102 SWAP3 SWAP2 SWAP1 PUSH3 0x156 JUMP JUMPDEST POP DUP2 PUSH1 0x7 SWAP1 DUP1 MLOAD SWAP1 PUSH1 0x20 ADD SWAP1 PUSH3 0x11B SWAP3 SWAP2 SWAP1 PUSH3 0x1E7 JUMP JUMPDEST POP DUP1 PUSH1 0x8 PUSH1 0x0 PUSH2 0x100 EXP DUP2 SLOAD DUP2 PUSH1 0xFF MUL NOT AND SWAP1 DUP4 PUSH1 0x7 DUP2 GT ISZERO PUSH3 0x144 JUMPI PUSH3 0x143 PUSH3 0x730 JUMP JUMPDEST JUMPDEST MUL OR SWAP1 SSTORE POP POP POP POP POP POP POP POP PUSH3 0x7C4 JUMP JUMPDEST DUP3 DUP1 SLOAD PUSH3 0x164 SWAP1 PUSH3 0x78E JUMP JUMPDEST SWAP1 PUSH1 0x0 MSTORE PUSH1 0x20 PUSH1 0x0 KECCAK256 SWAP1 PUSH1 0x1F ADD PUSH1 0x20 SWAP1 DIV DUP2 ADD SWAP3 DUP3 PUSH3 0x188 JUMPI PUSH1 0x0 DUP6 SSTORE PUSH3 0x1D4 JUMP JUMPDEST DUP3 PUSH1 0x1F LT PUSH3 0x1A3 JUMPI DUP1 MLOAD PUSH1 0xFF NOT AND DUP4 DUP1 ADD OR DUP6 SSTORE PUSH3 0x1D4 JUMP JUMPDEST DUP3 DUP1 ADD PUSH1 0x1 ADD DUP6 SSTORE DUP3 ISZERO PUSH3 0x1D4 JUMPI SWAP2 DUP3 ADD JUMPDEST DUP3 DUP2 GT ISZERO PUSH3 0x1D3 JUMPI DUP3 MLOAD DUP3 SSTORE SWAP2 PUSH1 0x20 ADD SWAP2 SWAP1 PUSH1 0x1 ADD SWAP1 PUSH3 0x1B6 JUMP JUMPDEST JUMPDEST POP SWAP1 POP PUSH3 0x1E3 SWAP2 SWAP1 PUSH3 0x24E JUMP JUMPDEST POP SWAP1 JUMP JUMPDEST DUP3 DUP1 SLOAD DUP3 DUP3 SSTORE SWAP1 PUSH1 0x0 MSTORE PUSH1 0x20 PUSH1 0x0 KECCAK256 SWAP1 DUP2 ADD SWAP3 DUP3 ISZERO PUSH3 0x23B JUMPI SWAP2 PUSH1 0x20 MUL DUP3 ADD JUMPDEST DUP3 DUP2 GT ISZERO PUSH3 0x23A JUMPI DUP3 MLOAD DUP3 SWAP1 DUP1 MLOAD SWAP1 PUSH1 0x20 ADD SWAP1 PUSH3 0x229 SWAP3 SWAP2 SWAP1 PUSH3 0x156 JUMP JUMPDEST POP SWAP2 PUSH1 0x20 ADD SWAP2 SWAP1 PUSH1 0x1 ADD SWAP1 PUSH3 0x208 JUMP JUMPDEST JUMPDEST POP SWAP1 POP PUSH3 0x24A SWAP2 SWAP1 PUSH3 0x26D JUMP JUMPDEST POP SWAP1 JUMP JUMPDEST JUMPDEST DUP1 DUP3 GT ISZERO PUSH3 0x269 JUMPI PUSH1 0x0 DUP2 PUSH1 0x0 SWAP1 SSTORE POP PUSH1 0x1 ADD PUSH3 0x24F JUMP JUMPDEST POP SWAP1 JUMP JUMPDEST JUMPDEST DUP1 DUP3 GT ISZERO PUSH3 0x291 JUMPI PUSH1 0x0 DUP2 DUP2 PUSH3 0x287 SWAP2 SWAP1 PUSH3 0x295 JUMP JUMPDEST POP PUSH1 0x1 ADD PUSH3 0x26E JUMP JUMPDEST POP SWAP1 JUMP JUMPDEST POP DUP1 SLOAD PUSH3 0x2A3 SWAP1 PUSH3 0x78E JUMP JUMPDEST PUSH1 0x0 DUP3 SSTORE DUP1 PUSH1 0x1F LT PUSH3 0x2B7 JUMPI POP PUSH3 0x2D8 JUMP JUMPDEST PUSH1 0x1F ADD PUSH1 0x20 SWAP1 DIV SWAP1 PUSH1 0x0 MSTORE PUSH1 0x20 PUSH1 0x0 KECCAK256 SWAP1 DUP2 ADD SWAP1 PUSH3 0x2D7 SWAP2 SWAP1 PUSH3 0x24E JUMP JUMPDEST JUMPDEST POP JUMP JUMPDEST PUSH1 0x0 PUSH1 0x40 MLOAD SWAP1 POP SWAP1 JUMP JUMPDEST PUSH1 0x0 DUP1 REVERT JUMPDEST PUSH1 0x0 DUP1 REVERT JUMPDEST PUSH1 0x0 PUSH20 0xFFFFFFFFFFFFFFFFFFFFFFFFFFFFFFFFFFFFFFFF DUP3 AND SWAP1 POP SWAP2 SWAP1 POP JUMP JUMPDEST PUSH1 0x0 PUSH3 0x31C DUP3 PUSH3 0x2EF JUMP JUMPDEST SWAP1 POP SWAP2 SWAP1 POP JUMP JUMPDEST PUSH3 0x32E DUP2 PUSH3 0x30F JUMP JUMPDEST DUP2 EQ PUSH3 0x33A JUMPI PUSH1 0x0 DUP1 REVERT JUMPDEST POP JUMP JUMPDEST PUSH1 0x0 DUP2 MLOAD SWAP1 POP PUSH3 0x34E DUP2 PUSH3 0x323 JUMP JUMPDEST SWAP3 SWAP2 POP POP JUMP JUMPDEST PUSH1 0x0 DUP1 REVERT JUMPDEST PUSH1 0x0 DUP1 REVERT JUMPDEST PUSH1 0x0 PUSH1 0x1F NOT PUSH1 0x1F DUP4 ADD AND SWAP1 POP SWAP2 SWAP1 POP JUMP JUMPDEST PUSH32 0x4E487B7100000000000000000000000000000000000000000000000000000000 PUSH1 0x0 MSTORE PUSH1 0x41 PUSH1 0x4 MSTORE PUSH1 0x24 PUSH1 0x0 REVERT JUMPDEST PUSH3 0x3A9 DUP3 PUSH3 0x35E JUMP JUMPDEST DUP2 ADD DUP2 DUP2 LT PUSH8 0xFFFFFFFFFFFFFFFF DUP3 GT OR ISZERO PUSH3 0x3CB JUMPI PUSH3 0x3CA PUSH3 0x36F JUMP JUMPDEST JUMPDEST DUP1 PUSH1 0x40 MSTORE POP POP POP JUMP JUMPDEST PUSH1 0x0 PUSH3 0x3E0 PUSH3 0x2DB JUMP JUMPDEST SWAP1 POP PUSH3 0x3EE DUP3 DUP3 PUSH3 0x39E JUMP JUMPDEST SWAP2 SWAP1 POP JUMP JUMPDEST PUSH1 0x0 PUSH8 0xFFFFFFFFFFFFFFFF DUP3 GT ISZERO PUSH3 0x411 JUMPI PUSH3 0x410 PUSH3 0x36F JUMP JUMPDEST JUMPDEST PUSH3 0x41C DUP3 PUSH3 0x35E JUMP JUMPDEST SWAP1 POP PUSH1 0x20 DUP2 ADD SWAP1 POP SWAP2 SWAP1 POP JUMP JUMPDEST PUSH1 0x0 JUMPDEST DUP4 DUP2 LT ISZERO PUSH3 0x449 JUMPI DUP1 DUP3 ADD MLOAD DUP2 DUP5 ADD MSTORE PUSH1 0x20 DUP2 ADD SWAP1 POP PUSH3 0x42C JUMP JUMPDEST DUP4 DUP2 GT ISZERO PUSH3 0x459 JUMPI PUSH1 0x0 DUP5 DUP5 ADD MSTORE JUMPDEST POP POP POP POP JUMP JUMPDEST PUSH1 0x0 PUSH3 0x476 PUSH3 0x470 DUP5 PUSH3 0x3F3 JUMP JUMPDEST PUSH3 0x3D4 JUMP JUMPDEST SWAP1 POP DUP3 DUP2 MSTORE PUSH1 0x20 DUP2 ADD DUP5 DUP5 DUP5 ADD GT ISZERO PUSH3 0x495 JUMPI PUSH3 0x494 PUSH3 0x359 JUMP JUMPDEST JUMPDEST PUSH3 0x4A2 DUP5 DUP3 DUP6 PUSH3 0x429 JUMP JUMPDEST POP SWAP4 SWAP3 POP POP POP JUMP JUMPDEST PUSH1 0x0 DUP3 PUSH1 0x1F DUP4 ADD SLT PUSH3 0x4C2 JUMPI PUSH3 0x4C1 PUSH3 0x354 JUMP JUMPDEST JUMPDEST DUP2 MLOAD PUSH3 0x4D4 DUP5 DUP3 PUSH1 0x20 DUP7 ADD PUSH3 0x45F JUMP JUMPDEST SWAP2 POP POP SWAP3 SWAP2 POP POP JUMP JUMPDEST PUSH1 0x0 PUSH8 0xFFFFFFFFFFFFFFFF DUP3 GT ISZERO PUSH3 0x4FB JUMPI PUSH3 0x4FA PUSH3 0x36F JUMP JUMPDEST JUMPDEST PUSH1 0x20 DUP3 MUL SWAP1 POP PUSH1 0x20 DUP2 ADD SWAP1 POP SWAP2 SWAP1 POP JUMP JUMPDEST PUSH1 0x0 DUP1 REVERT JUMPDEST PUSH1 0x0 PUSH3 0x528 PUSH3 0x522 DUP5 PUSH3 0x4DD JUMP JUMPDEST PUSH3 0x3D4 JUMP JUMPDEST SWAP1 POP DUP1 DUP4 DUP3 MSTORE PUSH1 0x20 DUP3 ADD SWAP1 POP PUSH1 0x20 DUP5 MUL DUP4 ADD DUP6 DUP2 GT ISZERO PUSH3 0x54E JUMPI PUSH3 0x54D PUSH3 0x50C JUMP JUMPDEST JUMPDEST DUP4 JUMPDEST DUP2 DUP2 LT ISZERO PUSH3 0x59C JUMPI DUP1 MLOAD PUSH8 0xFFFFFFFFFFFFFFFF DUP2 GT ISZERO PUSH3 0x577 JUMPI PUSH3 0x576 PUSH3 0x354 JUMP JUMPDEST JUMPDEST DUP1 DUP7 ADD PUSH3 0x586 DUP10 DUP3 PUSH3 0x4AA JUMP JUMPDEST DUP6 MSTORE PUSH1 0x20 DUP6 ADD SWAP5 POP POP POP PUSH1 0x20 DUP2 ADD SWAP1 POP PUSH3 0x550 JUMP JUMPDEST POP POP POP SWAP4 SWAP3 POP POP POP JUMP JUMPDEST PUSH1 0x0 DUP3 PUSH1 0x1F DUP4 ADD SLT PUSH3 0x5BE JUMPI PUSH3 0x5BD PUSH3 0x354 JUMP JUMPDEST JUMPDEST DUP2 MLOAD PUSH3 0x5D0 DUP5 DUP3 PUSH1 0x20 DUP7 ADD PUSH3 0x511 JUMP JUMPDEST SWAP2 POP POP SWAP3 SWAP2 POP POP JUMP JUMPDEST PUSH1 0x8 DUP2 LT PUSH3 0x5E7 JUMPI PUSH1 0x0 DUP1 REVERT JUMPDEST POP JUMP JUMPDEST PUSH1 0x0 DUP2 MLOAD SWAP1 POP PUSH3 0x5FB DUP2 PUSH3 0x5D9 JUMP JUMPDEST SWAP3 SWAP2 POP POP JUMP JUMPDEST PUSH1 0x0 DUP1 PUSH1 0x0 DUP1 PUSH1 0x0 DUP1 PUSH1 0x0 PUSH1 0xE0 DUP9 DUP11 SUB SLT ISZERO PUSH3 0x623 JUMPI PUSH3 0x622 PUSH3 0x2E5 JUMP JUMPDEST JUMPDEST PUSH1 0x0 PUSH3 0x633 DUP11 DUP3 DUP12 ADD PUSH3 0x33D JUMP JUMPDEST SWAP8 POP POP PUSH1 0x20 PUSH3 0x646 DUP11 DUP3 DUP12 ADD PUSH3 0x33D JUMP JUMPDEST SWAP7 POP POP PUSH1 0x40 DUP9 ADD MLOAD PUSH8 0xFFFFFFFFFFFFFFFF DUP2 GT ISZERO PUSH3 0x66A JUMPI PUSH3 0x669 PUSH3 0x2EA JUMP JUMPDEST JUMPDEST PUSH3 0x678 DUP11 DUP3 DUP12 ADD PUSH3 0x4AA JUMP JUMPDEST SWAP6 POP POP PUSH1 0x60 DUP9 ADD MLOAD PUSH8 0xFFFFFFFFFFFFFFFF DUP2 GT ISZERO PUSH3 0x69C JUMPI PUSH3 0x69B PUSH3 0x2EA JUMP JUMPDEST JUMPDEST PUSH3 0x6AA DUP11 DUP3 DUP12 ADD PUSH3 0x4AA JUMP JUMPDEST SWAP5 POP POP PUSH1 0x80 DUP9 ADD MLOAD PUSH8 0xFFFFFFFFFFFFFFFF DUP2 GT ISZERO PUSH3 0x6CE JUMPI PUSH3 0x6CD PUSH3 0x2EA JUMP JUMPDEST JUMPDEST PUSH3 0x6DC DUP11 DUP3 DUP12 ADD PUSH3 0x4AA JUMP JUMPDEST SWAP4 POP POP PUSH1 0xA0 DUP9 ADD MLOAD PUSH8 0xFFFFFFFFFFFFFFFF DUP2 GT ISZERO PUSH3 0x700 JUMPI PUSH3 0x6FF PUSH3 0x2EA JUMP JUMPDEST JUMPDEST PUSH3 0x70E DUP11 DUP3 DUP12 ADD PUSH3 0x5A6 JUMP JUMPDEST SWAP3 POP POP PUSH1 0xC0 PUSH3 0x721 DUP11 DUP3 DUP12 ADD PUSH3 0x5EA JUMP JUMPDEST SWAP2 POP POP SWAP3 SWAP6 SWAP9 SWAP2 SWAP5 SWAP8 POP SWAP3 SWAP6 POP JUMP JUMPDEST PUSH32 0x4E487B7100000000000000000000000000000000000000000000000000000000 PUSH1 0x0 MSTORE PUSH1 0x21 PUSH1 0x4 MSTORE PUSH1 0x24 PUSH1 0x0 REVERT JUMPDEST PUSH32 0x4E487B7100000000000000000000000000000000000000000000000000000000 PUSH1 0x0 MSTORE PUSH1 0x22 PUSH1 0x4 MSTORE PUSH1 0x24 PUSH1 0x0 REVERT JUMPDEST PUSH1 0x0 PUSH1 0x2 DUP3 DIV SWAP1 POP PUSH1 0x1 DUP3 AND DUP1 PUSH3 0x7A7 JUMPI PUSH1 0x7F DUP3 AND SWAP2 POP JUMPDEST PUSH1 0x20 DUP3 LT DUP2 EQ ISZERO PUSH3 0x7BE JUMPI PUSH3 0x7BD PUSH3 0x75F JUMP JUMPDEST JUMPDEST POP SWAP2 SWAP1 POP JUMP JUMPDEST PUSH2 0x17DE DUP1 PUSH3 0x7D4 PUSH1 0x0 CODECOPY PUSH1 0x0 RETURN INVALID PUSH1 0x80 PUSH1 0x40 MSTORE CALLVALUE DUP1 ISZERO PUSH2 0x10 JUMPI PUSH1 0x0 DUP1 REVERT JUMPDEST POP PUSH1 0x4 CALLDATASIZE LT PUSH2 0x100 JUMPI PUSH1 0x0 CALLDATALOAD PUSH1 0xE0 SHR DUP1 PUSH4 0x6604B722 GT PUSH2 0x97 JUMPI DUP1 PUSH4 0xA6C3E6B9 GT PUSH2 0x66 JUMPI DUP1 PUSH4 0xA6C3E6B9 EQ PUSH2 0x295 JUMPI DUP1 PUSH4 0xCCCF1CFD EQ PUSH2 0x2B3 JUMPI DUP1 PUSH4 0xE83DDCEA EQ PUSH2 0x2CF JUMPI DUP1 PUSH4 0xF7CBB1B2 EQ PUSH2 0x300 JUMPI PUSH2 0x100 JUMP JUMPDEST DUP1 PUSH4 0x6604B722 EQ PUSH2 0x21F JUMPI DUP1 PUSH4 0x7284E416 EQ PUSH2 0x23B JUMPI DUP1 PUSH4 0x8FBBFF8D EQ PUSH2 0x259 JUMPI DUP1 PUSH4 0xA464D265 EQ PUSH2 0x277 JUMPI PUSH2 0x100 JUMP JUMPDEST DUP1 PUSH4 0x20822ABC GT PUSH2 0xD3 JUMPI DUP1 PUSH4 0x20822ABC EQ PUSH2 0x18F JUMPI DUP1 PUSH4 0x4051DDAC EQ PUSH2 0x1BF JUMPI DUP1 PUSH4 0x4A79D50C EQ PUSH2 0x1E3 JUMPI DUP1 PUSH4 0x4F28BF0E EQ PUSH2 0x201 JUMPI PUSH2 0x100 JUMP JUMPDEST DUP1 PUSH4 0x2A5D5F0 EQ PUSH2 0x105 JUMPI DUP1 PUSH4 0x1435BA3C EQ PUSH2 0x135 JUMPI DUP1 PUSH4 0x1B1E1324 EQ PUSH2 0x153 JUMPI DUP1 PUSH4 0x1C2CD130 EQ PUSH2 0x171 JUMPI JUMPDEST PUSH1 0x0 DUP1 REVERT JUMPDEST PUSH2 0x11F PUSH1 0x4 DUP1 CALLDATASIZE SUB DUP2 ADD SWAP1 PUSH2 0x11A SWAP2 SWAP1 PUSH2 0xF27 JUMP JUMPDEST PUSH2 0x330 JUMP JUMPDEST PUSH1 0x40 MLOAD PUSH2 0x12C SWAP2 SWAP1 PUSH2 0xF95 JUMP JUMPDEST PUSH1 0x40 MLOAD DUP1 SWAP2 SUB SWAP1 RETURN JUMPDEST PUSH2 0x13D PUSH2 0x36F JUMP JUMPDEST PUSH1 0x40 MLOAD PUSH2 0x14A SWAP2 SWAP1 PUSH2 0xFBF JUMP JUMPDEST PUSH1 0x40 MLOAD DUP1 SWAP2 SUB SWAP1 RETURN JUMPDEST PUSH2 0x15B PUSH2 0x37C JUMP JUMPDEST PUSH1 0x40 MLOAD PUSH2 0x168 SWAP2 SWAP1 PUSH2 0x1193 JUMP JUMPDEST PUSH1 0x40 MLOAD DUP1 SWAP2 SUB SWAP1 RETURN JUMPDEST PUSH2 0x179 PUSH2 0x4C3 JUMP JUMPDEST PUSH1 0x40 MLOAD PUSH2 0x186 SWAP2 SWAP1 PUSH2 0x11FF JUMP JUMPDEST PUSH1 0x40 MLOAD DUP1 SWAP2 SUB SWAP1 RETURN JUMPDEST PUSH2 0x1A9 PUSH1 0x4 DUP1 CALLDATASIZE SUB DUP2 ADD SWAP1 PUSH2 0x1A4 SWAP2 SWAP1 PUSH2 0xF27 JUMP JUMPDEST PUSH2 0x551 JUMP JUMPDEST PUSH1 0x40 MLOAD PUSH2 0x1B6 SWAP2 SWAP1 PUSH2 0x11FF JUMP JUMPDEST PUSH1 0x40 MLOAD DUP1 SWAP2 SUB SWAP1 RETURN JUMPDEST PUSH2 0x1C7 PUSH2 0x5FD JUMP JUMPDEST PUSH1 0x40 MLOAD PUSH2 0x1DA SWAP8 SWAP7 SWAP6 SWAP5 SWAP4 SWAP3 SWAP2 SWAP1 PUSH2 0x1369 JUMP JUMPDEST PUSH1 0x40 MLOAD DUP1 SWAP2 SUB SWAP1 RETURN JUMPDEST PUSH2 0x1EB PUSH2 0x8F3 JUMP JUMPDEST PUSH1 0x40 MLOAD PUSH2 0x1F8 SWAP2 SWAP1 PUSH2 0x11FF JUMP JUMPDEST PUSH1 0x40 MLOAD DUP1 SWAP2 SUB SWAP1 RETURN JUMPDEST PUSH2 0x209 PUSH2 0x981 JUMP JUMPDEST PUSH1 0x40 MLOAD PUSH2 0x216 SWAP2 SWAP1 PUSH2 0x13F4 JUMP JUMPDEST PUSH1 0x40 MLOAD DUP1 SWAP2 SUB SWAP1 RETURN JUMPDEST PUSH2 0x239 PUSH1 0x4 DUP1 CALLDATASIZE SUB DUP2 ADD SWAP1 PUSH2 0x234 SWAP2 SWAP1 PUSH2 0x1544 JUMP JUMPDEST PUSH2 0x994 JUMP JUMPDEST STOP JUMPDEST PUSH2 0x243 PUSH2 0xA6E JUMP JUMPDEST PUSH1 0x40 MLOAD PUSH2 0x250 SWAP2 SWAP1 PUSH2 0x11FF JUMP JUMPDEST PUSH1 0x40 MLOAD DUP1 SWAP2 SUB SWAP1 RETURN JUMPDEST PUSH2 0x261 PUSH2 0xAFC JUMP JUMPDEST PUSH1 0x40 MLOAD PUSH2 0x26E SWAP2 SWAP1 PUSH2 0x164B JUMP JUMPDEST PUSH1 0x40 MLOAD DUP1 SWAP2 SUB SWAP1 RETURN JUMPDEST PUSH2 0x27F PUSH2 0xB8A JUMP JUMPDEST PUSH1 0x40 MLOAD PUSH2 0x28C SWAP2 SWAP1 PUSH2 0x166D JUMP JUMPDEST PUSH1 0x40 MLOAD DUP1 SWAP2 SUB SWAP1 RETURN JUMPDEST PUSH2 0x29D PUSH2 0xBB0 JUMP JUMPDEST PUSH1 0x40 MLOAD PUSH2 0x2AA SWAP2 SWAP1 PUSH2 0x166D JUMP JUMPDEST PUSH1 0x40 MLOAD DUP1 SWAP2 SUB SWAP1 RETURN JUMPDEST PUSH2 0x2CD PUSH1 0x4 DUP1 CALLDATASIZE SUB DUP2 ADD SWAP1 PUSH2 0x2C8 SWAP2 SWAP1 PUSH2 0x16B4 JUMP JUMPDEST PUSH2 0xBD4 JUMP JUMPDEST STOP JUMPDEST PUSH2 0x2E9 PUSH1 0x4 DUP1 CALLDATASIZE SUB DUP2 ADD SWAP1 PUSH2 0x2E4 SWAP2 SWAP1 PUSH2 0xF27 JUMP JUMPDEST PUSH2 0xD3E JUMP JUMPDEST PUSH1 0x40 MLOAD PUSH2 0x2F7 SWAP3 SWAP2 SWAP1 PUSH2 0x16E1 JUMP JUMPDEST PUSH1 0x40 MLOAD DUP1 SWAP2 SUB SWAP1 RETURN JUMPDEST PUSH2 0x31A PUSH1 0x4 DUP1 CALLDATASIZE SUB DUP2 ADD SWAP1 PUSH2 0x315 SWAP2 SWAP1 PUSH2 0x16B4 JUMP JUMPDEST PUSH2 0xE1A JUMP JUMPDEST PUSH1 0x40 MLOAD PUSH2 0x327 SWAP2 SWAP1 PUSH2 0x172C JUMP JUMPDEST PUSH1 0x40 MLOAD DUP1 SWAP2 SUB SWAP1 RETURN JUMPDEST PUSH1 0x2 DUP2 DUP2 SLOAD DUP2 LT PUSH2 0x340 JUMPI PUSH1 0x0 DUP1 REVERT JUMPDEST SWAP1 PUSH1 0x0 MSTORE PUSH1 0x20 PUSH1 0x0 KECCAK256 ADD PUSH1 0x0 SWAP2 POP SLOAD SWAP1 PUSH2 0x100 EXP SWAP1 DIV PUSH20 0xFFFFFFFFFFFFFFFFFFFFFFFFFFFFFFFFFFFFFFFF AND DUP2 JUMP JUMPDEST PUSH1 0x0 PUSH1 0x9 DUP1 SLOAD SWAP1 POP SWAP1 POP SWAP1 JUMP JUMPDEST PUSH1 0x60 PUSH1 0x9 DUP1 SLOAD DUP1 PUSH1 0x20 MUL PUSH1 0x20 ADD PUSH1 0x40 MLOAD SWAP1 DUP2 ADD PUSH1 0x40 MSTORE DUP1 SWAP3 SWAP2 SWAP1 DUP2 DUP2 MSTORE PUSH1 0x20 ADD PUSH1 0x0 SWAP1 JUMPDEST DUP3 DUP3 LT ISZERO PUSH2 0x4BA JUMPI DUP4 DUP3 SWAP1 PUSH1 0x0 MSTORE PUSH1 0x20 PUSH1 0x0 KECCAK256 SWAP1 PUSH1 0x2 MUL ADD PUSH1 0x40 MLOAD DUP1 PUSH1 0x40 ADD PUSH1 0x40 MSTORE SWAP1 DUP2 PUSH1 0x0 DUP3 ADD PUSH1 0x0 SWAP1 SLOAD SWAP1 PUSH2 0x100 EXP SWAP1 DIV PUSH20 0xFFFFFFFFFFFFFFFFFFFFFFFFFFFFFFFFFFFFFFFF AND PUSH20 0xFFFFFFFFFFFFFFFFFFFFFFFFFFFFFFFFFFFFFFFF AND PUSH20 0xFFFFFFFFFFFFFFFFFFFFFFFFFFFFFFFFFFFFFFFF AND DUP2 MSTORE PUSH1 0x20 ADD PUSH1 0x1 DUP3 ADD DUP1 SLOAD PUSH2 0x429 SWAP1 PUSH2 0x1776 JUMP JUMPDEST DUP1 PUSH1 0x1F ADD PUSH1 0x20 DUP1 SWAP2 DIV MUL PUSH1 0x20 ADD PUSH1 0x40 MLOAD SWAP1 DUP2 ADD PUSH1 0x40 MSTORE DUP1 SWAP3 SWAP2 SWAP1 DUP2 DUP2 MSTORE PUSH1 0x20 ADD DUP3 DUP1 SLOAD PUSH2 0x455 SWAP1 PUSH2 0x1776 JUMP JUMPDEST DUP1 ISZERO PUSH2 0x4A2 JUMPI DUP1 PUSH1 0x1F LT PUSH2 0x477 JUMPI PUSH2 0x100 DUP1 DUP4 SLOAD DIV MUL DUP4 MSTORE SWAP2 PUSH1 0x20 ADD SWAP2 PUSH2 0x4A2 JUMP JUMPDEST DUP3 ADD SWAP2 SWAP1 PUSH1 0x0 MSTORE PUSH1 0x20 PUSH1 0x0 KECCAK256 SWAP1 JUMPDEST DUP2 SLOAD DUP2 MSTORE SWAP1 PUSH1 0x1 ADD SWAP1 PUSH1 0x20 ADD DUP1 DUP4 GT PUSH2 0x485 JUMPI DUP3 SWAP1 SUB PUSH1 0x1F AND DUP3 ADD SWAP2 JUMPDEST POP POP POP POP POP DUP2 MSTORE POP POP DUP2 MSTORE PUSH1 0x20 ADD SWAP1 PUSH1 0x1 ADD SWAP1 PUSH2 0x3A0 JUMP JUMPDEST POP POP POP POP SWAP1 POP SWAP1 JUMP JUMPDEST PUSH1 0x4 DUP1 SLOAD PUSH2 0x4D0 SWAP1 PUSH2 0x1776 JUMP JUMPDEST DUP1 PUSH1 0x1F ADD PUSH1 0x20 DUP1 SWAP2 DIV MUL PUSH1 0x20 ADD PUSH1 0x40 MLOAD SWAP1 DUP2 ADD PUSH1 0x40 MSTORE DUP1 SWAP3 SWAP2 SWAP1 DUP2 DUP2 MSTORE PUSH1 0x20 ADD DUP3 DUP1 SLOAD PUSH2 0x4FC SWAP1 PUSH2 0x1776 JUMP JUMPDEST DUP1 ISZERO PUSH2 0x549 JUMPI DUP1 PUSH1 0x1F LT PUSH2 0x51E JUMPI PUSH2 0x100 DUP1 DUP4 SLOAD DIV MUL DUP4 MSTORE SWAP2 PUSH1 0x20 ADD SWAP2 PUSH2 0x549 JUMP JUMPDEST DUP3 ADD SWAP2 SWAP1 PUSH1 0x0 MSTORE PUSH1 0x20 PUSH1 0x0 KECCAK256 SWAP1 JUMPDEST DUP2 SLOAD DUP2 MSTORE SWAP1 PUSH1 0x1 ADD SWAP1 PUSH1 0x20 ADD DUP1 DUP4 GT PUSH2 0x52C JUMPI DUP3 SWAP1 SUB PUSH1 0x1F AND DUP3 ADD SWAP2 JUMPDEST POP POP POP POP POP DUP2 JUMP JUMPDEST PUSH1 0x7 DUP2 DUP2 SLOAD DUP2 LT PUSH2 0x561 JUMPI PUSH1 0x0 DUP1 REVERT JUMPDEST SWAP1 PUSH1 0x0 MSTORE PUSH1 0x20 PUSH1 0x0 KECCAK256 ADD PUSH1 0x0 SWAP2 POP SWAP1 POP DUP1 SLOAD PUSH2 0x57C SWAP1 PUSH2 0x1776 JUMP JUMPDEST DUP1 PUSH1 0x1F ADD PUSH1 0x20 DUP1 SWAP2 DIV MUL PUSH1 0x20 ADD PUSH1 0x40 MLOAD SWAP1 DUP2 ADD PUSH1 0x40 MSTORE DUP1 SWAP3 SWAP2 SWAP1 DUP2 DUP2 MSTORE PUSH1 0x20 ADD DUP3 DUP1 SLOAD PUSH2 0x5A8 SWAP1 PUSH2 0x1776 JUMP JUMPDEST DUP1 ISZERO PUSH2 0x5F5 JUMPI DUP1 PUSH1 0x1F LT PUSH2 0x5CA JUMPI PUSH2 0x100 DUP1 DUP4 SLOAD DIV MUL DUP4 MSTORE SWAP2 PUSH1 0x20 ADD SWAP2 PUSH2 0x5F5 JUMP JUMPDEST DUP3 ADD SWAP2 SWAP1 PUSH1 0x0 MSTORE PUSH1 0x20 PUSH1 0x0 KECCAK256 SWAP1 JUMPDEST DUP2 SLOAD DUP2 MSTORE SWAP1 PUSH1 0x1 ADD SWAP1 PUSH1 0x20 ADD DUP1 DUP4 GT PUSH2 0x5D8 JUMPI DUP3 SWAP1 SUB PUSH1 0x1F AND DUP3 ADD SWAP2 JUMPDEST POP POP POP POP POP DUP2 JUMP JUMPDEST PUSH1 0x60 PUSH1 0x0 DUP1 PUSH1 0x60 DUP1 PUSH1 0x60 PUSH1 0x0 PUSH1 0x5 PUSH1 0x0 DUP1 SLOAD SWAP1 PUSH2 0x100 EXP SWAP1 DIV PUSH20 0xFFFFFFFFFFFFFFFFFFFFFFFFFFFFFFFFFFFFFFFF AND PUSH1 0x1 PUSH1 0x0 SWAP1 SLOAD SWAP1 PUSH2 0x100 EXP SWAP1 DIV PUSH20 0xFFFFFFFFFFFFFFFFFFFFFFFFFFFFFFFFFFFFFFFF AND PUSH1 0x4 PUSH1 0x6 PUSH1 0x7 PUSH1 0x8 PUSH1 0x0 SWAP1 SLOAD SWAP1 PUSH2 0x100 EXP SWAP1 DIV PUSH1 0xFF AND DUP7 DUP1 SLOAD PUSH2 0x671 SWAP1 PUSH2 0x1776 JUMP JUMPDEST DUP1 PUSH1 0x1F ADD PUSH1 0x20 DUP1 SWAP2 DIV MUL PUSH1 0x20 ADD PUSH1 0x40 MLOAD SWAP1 DUP2 ADD PUSH1 0x40 MSTORE DUP1 SWAP3 SWAP2 SWAP1 DUP2 DUP2 MSTORE PUSH1 0x20 ADD DUP3 DUP1 SLOAD PUSH2 0x69D SWAP1 PUSH2 0x1776 JUMP JUMPDEST DUP1 ISZERO PUSH2 0x6EA JUMPI DUP1 PUSH1 0x1F LT PUSH2 0x6BF JUMPI PUSH2 0x100 DUP1 DUP4 SLOAD DIV MUL DUP4 MSTORE SWAP2 PUSH1 0x20 ADD SWAP2 PUSH2 0x6EA JUMP JUMPDEST DUP3 ADD SWAP2 SWAP1 PUSH1 0x0 MSTORE PUSH1 0x20 PUSH1 0x0 KECCAK256 SWAP1 JUMPDEST DUP2 SLOAD DUP2 MSTORE SWAP1 PUSH1 0x1 ADD SWAP1 PUSH1 0x20 ADD DUP1 DUP4 GT PUSH2 0x6CD JUMPI DUP3 SWAP1 SUB PUSH1 0x1F AND DUP3 ADD SWAP2 JUMPDEST POP POP POP POP POP SWAP7 POP DUP4 DUP1 SLOAD PUSH2 0x6FD SWAP1 PUSH2 0x1776 JUMP JUMPDEST DUP1 PUSH1 0x1F ADD PUSH1 0x20 DUP1 SWAP2 DIV MUL PUSH1 0x20 ADD PUSH1 0x40 MLOAD SWAP1 DUP2 ADD PUSH1 0x40 MSTORE DUP1 SWAP3 SWAP2 SWAP1 DUP2 DUP2 MSTORE PUSH1 0x20 ADD DUP3 DUP1 SLOAD PUSH2 0x729 SWAP1 PUSH2 0x1776 JUMP JUMPDEST DUP1 ISZERO PUSH2 0x776 JUMPI DUP1 PUSH1 0x1F LT PUSH2 0x74B JUMPI PUSH2 0x100 DUP1 DUP4 SLOAD DIV MUL DUP4 MSTORE SWAP2 PUSH1 0x20 ADD SWAP2 PUSH2 0x776 JUMP JUMPDEST DUP3 ADD SWAP2 SWAP1 PUSH1 0x0 MSTORE PUSH1 0x20 PUSH1 0x0 KECCAK256 SWAP1 JUMPDEST DUP2 SLOAD DUP2 MSTORE SWAP1 PUSH1 0x1 ADD SWAP1 PUSH1 0x20 ADD DUP1 DUP4 GT PUSH2 0x759 JUMPI DUP3 SWAP1 SUB PUSH1 0x1F AND DUP3 ADD SWAP2 JUMPDEST POP POP POP POP POP SWAP4 POP DUP3 DUP1 SLOAD PUSH2 0x789 SWAP1 PUSH2 0x1776 JUMP JUMPDEST DUP1 PUSH1 0x1F ADD PUSH1 0x20 DUP1 SWAP2 DIV MUL PUSH1 0x20 ADD PUSH1 0x40 MLOAD SWAP1 DUP2 ADD PUSH1 0x40 MSTORE DUP1 SWAP3 SWAP2 SWAP1 DUP2 DUP2 MSTORE PUSH1 0x20 ADD DUP3 DUP1 SLOAD PUSH2 0x7B5 SWAP1 PUSH2 0x1776 JUMP JUMPDEST DUP1 ISZERO PUSH2 0x802 JUMPI DUP1 PUSH1 0x1F LT PUSH2 0x7D7 JUMPI PUSH2 0x100 DUP1 DUP4 SLOAD DIV MUL DUP4 MSTORE SWAP2 PUSH1 0x20 ADD SWAP2 PUSH2 0x802 JUMP JUMPDEST DUP3 ADD SWAP2 SWAP1 PUSH1 0x0 MSTORE PUSH1 0x20 PUSH1 0x0 KECCAK256 SWAP1 JUMPDEST DUP2 SLOAD DUP2 MSTORE SWAP1 PUSH1 0x1 ADD SWAP1 PUSH1 0x20 ADD DUP1 DUP4 GT PUSH2 0x7E5 JUMPI DUP3 SWAP1 SUB PUSH1 0x1F AND DUP3 ADD SWAP2 JUMPDEST POP POP POP POP POP SWAP3 POP DUP2 DUP1 SLOAD DUP1 PUSH1 0x20 MUL PUSH1 0x20 ADD PUSH1 0x40 MLOAD SWAP1 DUP2 ADD PUSH1 0x40 MSTORE DUP1 SWAP3 SWAP2 SWAP1 DUP2 DUP2 MSTORE PUSH1 0x20 ADD PUSH1 0x0 SWAP1 JUMPDEST DUP3 DUP3 LT ISZERO PUSH2 0x8D6 JUMPI DUP4 DUP3 SWAP1 PUSH1 0x0 MSTORE PUSH1 0x20 PUSH1 0x0 KECCAK256 ADD DUP1 SLOAD PUSH2 0x849 SWAP1 PUSH2 0x1776 JUMP JUMPDEST DUP1 PUSH1 0x1F ADD PUSH1 0x20 DUP1 SWAP2 DIV MUL PUSH1 0x20 ADD PUSH1 0x40 MLOAD SWAP1 DUP2 ADD PUSH1 0x40 MSTORE DUP1 SWAP3 SWAP2 SWAP1 DUP2 DUP2 MSTORE PUSH1 0x20 ADD DUP3 DUP1 SLOAD PUSH2 0x875 SWAP1 PUSH2 0x1776 JUMP JUMPDEST DUP1 ISZERO PUSH2 0x8C2 JUMPI DUP1 PUSH1 0x1F LT PUSH2 0x897 JUMPI PUSH2 0x100 DUP1 DUP4 SLOAD DIV MUL DUP4 MSTORE SWAP2 PUSH1 0x20 ADD SWAP2 PUSH2 0x8C2 JUMP JUMPDEST DUP3 ADD SWAP2 SWAP1 PUSH1 0x0 MSTORE PUSH1 0x20 PUSH1 0x0 KECCAK256 SWAP1 JUMPDEST DUP2 SLOAD DUP2 MSTORE SWAP1 PUSH1 0x1 ADD SWAP1 PUSH1 0x20 ADD DUP1 DUP4 GT PUSH2 0x8A5 JUMPI DUP3 SWAP1 SUB PUSH1 0x1F AND DUP3 ADD SWAP2 JUMPDEST POP POP POP POP POP DUP2 MSTORE PUSH1 0x20 ADD SWAP1 PUSH1 0x1 ADD SWAP1 PUSH2 0x82A JUMP JUMPDEST POP POP POP POP SWAP2 POP SWAP7 POP SWAP7 POP SWAP7 POP SWAP7 POP SWAP7 POP SWAP7 POP SWAP7 POP SWAP1 SWAP2 SWAP3 SWAP4 SWAP5 SWAP6 SWAP7 JUMP JUMPDEST PUSH1 0x5 DUP1 SLOAD PUSH2 0x900 SWAP1 PUSH2 0x1776 JUMP JUMPDEST DUP1 PUSH1 0x1F ADD PUSH1 0x20 DUP1 SWAP2 DIV MUL PUSH1 0x20 ADD PUSH1 0x40 MLOAD SWAP1 DUP2 ADD PUSH1 0x40 MSTORE DUP1 SWAP3 SWAP2 SWAP1 DUP2 DUP2 MSTORE PUSH1 0x20 ADD DUP3 DUP1 SLOAD PUSH2 0x92C SWAP1 PUSH2 0x1776 JUMP JUMPDEST DUP1 ISZERO PUSH2 0x979 JUMPI DUP1 PUSH1 0x1F LT PUSH2 0x94E JUMPI PUSH2 0x100 DUP1 DUP4 SLOAD DIV MUL DUP4 MSTORE SWAP2 PUSH1 0x20 ADD SWAP2 PUSH2 0x979 JUMP JUMPDEST DUP3 ADD SWAP2 SWAP1 PUSH1 0x0 MSTORE PUSH1 0x20 PUSH1 0x0 KECCAK256 SWAP1 JUMPDEST DUP2 SLOAD DUP2 MSTORE SWAP1 PUSH1 0x1 ADD SWAP1 PUSH1 0x20 ADD DUP1 DUP4 GT PUSH2 0x95C JUMPI DUP3 SWAP1 SUB PUSH1 0x1F AND DUP3 ADD SWAP2 JUMPDEST POP POP POP POP POP DUP2 JUMP JUMPDEST PUSH1 0x8 PUSH1 0x0 SWAP1 SLOAD SWAP1 PUSH2 0x100 EXP SWAP1 DIV PUSH1 0xFF AND DUP2 JUMP JUMPDEST PUSH1 0x3 PUSH1 0x0 CALLER PUSH20 0xFFFFFFFFFFFFFFFFFFFFFFFFFFFFFFFFFFFFFFFF AND PUSH20 0xFFFFFFFFFFFFFFFFFFFFFFFFFFFFFFFFFFFFFFFF AND DUP2 MSTORE PUSH1 0x20 ADD SWAP1 DUP2 MSTORE PUSH1 0x20 ADD PUSH1 0x0 KECCAK256 PUSH1 0x0 SWAP1 SLOAD SWAP1 PUSH2 0x100 EXP SWAP1 DIV PUSH1 0xFF AND PUSH2 0x9EA JUMPI PUSH1 0x0 DUP1 REVERT JUMPDEST PUSH1 0x0 PUSH1 0x9 PUSH1 0x1 DUP2 PUSH1 0x1 DUP2 SLOAD ADD DUP1 DUP3 SSTORE DUP1 SWAP2 POP POP SUB SWAP1 PUSH1 0x0 MSTORE PUSH1 0x20 PUSH1 0x0 KECCAK256 SWAP1 PUSH1 0x2 MUL ADD SWAP1 POP CALLER DUP2 PUSH1 0x0 ADD PUSH1 0x0 PUSH2 0x100 EXP DUP2 SLOAD DUP2 PUSH20 0xFFFFFFFFFFFFFFFFFFFFFFFFFFFFFFFFFFFFFFFF MUL NOT AND SWAP1 DUP4 PUSH20 0xFFFFFFFFFFFFFFFFFFFFFFFFFFFFFFFFFFFFFFFF AND MUL OR SWAP1 SSTORE POP DUP2 DUP2 PUSH1 0x1 ADD SWAP1 DUP1 MLOAD SWAP1 PUSH1 0x20 ADD SWAP1 PUSH2 0xA69 SWAP3 SWAP2 SWAP1 PUSH2 0xE3A JUMP JUMPDEST POP POP POP JUMP JUMPDEST PUSH1 0x6 DUP1 SLOAD PUSH2 0xA7B SWAP1 PUSH2 0x1776 JUMP JUMPDEST DUP1 PUSH1 0x1F ADD PUSH1 0x20 DUP1 SWAP2 DIV MUL PUSH1 0x20 ADD PUSH1 0x40 MLOAD SWAP1 DUP2 ADD PUSH1 0x40 MSTORE DUP1 SWAP3 SWAP2 SWAP1 DUP2 DUP2 MSTORE PUSH1 0x20 ADD DUP3 DUP1 SLOAD PUSH2 0xAA7 SWAP1 PUSH2 0x1776 JUMP JUMPDEST DUP1 ISZERO PUSH2 0xAF4 JUMPI DUP1 PUSH1 0x1F LT PUSH2 0xAC9 JUMPI PUSH2 0x100 DUP1 DUP4 SLOAD DIV MUL DUP4 MSTORE SWAP2 PUSH1 0x20 ADD SWAP2 PUSH2 0xAF4 JUMP JUMPDEST DUP3 ADD SWAP2 SWAP1 PUSH1 0x0 MSTORE PUSH1 0x20 PUSH1 0x0 KECCAK256 SWAP1 JUMPDEST DUP2 SLOAD DUP2 MSTORE SWAP1 PUSH1 0x1 ADD SWAP1 PUSH1 0x20 ADD DUP1 DUP4 GT PUSH2 0xAD7 JUMPI DUP3 SWAP1 SUB PUSH1 0x1F AND DUP3 ADD SWAP2 JUMPDEST POP POP POP POP POP DUP2 JUMP JUMPDEST PUSH1 0x60 PUSH1 0x2 DUP1 SLOAD DUP1 PUSH1 0x20 MUL PUSH1 0x20 ADD PUSH1 0x40 MLOAD SWAP1 DUP2 ADD PUSH1 0x40 MSTORE DUP1 SWAP3 SWAP2 SWAP1 DUP2 DUP2 MSTORE PUSH1 0x20 ADD DUP3 DUP1 SLOAD DUP1 ISZERO PUSH2 0xB80 JUMPI PUSH1 0x20 MUL DUP3 ADD SWAP2 SWAP1 PUSH1 0x0 MSTORE PUSH1 0x20 PUSH1 0x0 KECCAK256 SWAP1 JUMPDEST DUP2 PUSH1 0x0 SWAP1 SLOAD SWAP1 PUSH2 0x100 EXP SWAP1 DIV PUSH20 0xFFFFFFFFFFFFFFFFFFFFFFFFFFFFFFFFFFFFFFFF AND PUSH20 0xFFFFFFFFFFFFFFFFFFFFFFFFFFFFFFFFFFFFFFFF AND DUP2 MSTORE PUSH1 0x20 ADD SWAP1 PUSH1 0x1 ADD SWAP1 DUP1 DUP4 GT PUSH2 0xB36 JUMPI JUMPDEST POP POP POP POP POP SWAP1 POP SWAP1 JUMP JUMPDEST PUSH1 0x1 PUSH1 0x0 SWAP1 SLOAD SWAP1 PUSH2 0x100 EXP SWAP1 DIV PUSH20 0xFFFFFFFFFFFFFFFFFFFFFFFFFFFFFFFFFFFFFFFF AND DUP2 JUMP JUMPDEST PUSH1 0x0 DUP1 SLOAD SWAP1 PUSH2 0x100 EXP SWAP1 DIV PUSH20 0xFFFFFFFFFFFFFFFFFFFFFFFFFFFFFFFFFFFFFFFF AND DUP2 JUMP JUMPDEST PUSH1 0x1 PUSH1 0x0 SWAP1 SLOAD SWAP1 PUSH2 0x100 EXP SWAP1 DIV PUSH20 0xFFFFFFFFFFFFFFFFFFFFFFFFFFFFFFFFFFFFFFFF AND PUSH20 0xFFFFFFFFFFFFFFFFFFFFFFFFFFFFFFFFFFFFFFFF AND CALLER PUSH20 0xFFFFFFFFFFFFFFFFFFFFFFFFFFFFFFFFFFFFFFFF AND EQ PUSH2 0xC2E JUMPI PUSH1 0x0 DUP1 REVERT JUMPDEST PUSH1 0x3 PUSH1 0x0 DUP3 PUSH20 0xFFFFFFFFFFFFFFFFFFFFFFFFFFFFFFFFFFFFFFFF AND PUSH20 0xFFFFFFFFFFFFFFFFFFFFFFFFFFFFFFFFFFFFFFFF AND DUP2 MSTORE PUSH1 0x20 ADD SWAP1 DUP2 MSTORE PUSH1 0x20 ADD PUSH1 0x0 KECCAK256 PUSH1 0x0 SWAP1 SLOAD SWAP1 PUSH2 0x100 EXP SWAP1 DIV PUSH1 0xFF AND PUSH2 0xD3B JUMPI PUSH1 0x1 PUSH1 0x3 PUSH1 0x0 DUP4 PUSH20 0xFFFFFFFFFFFFFFFFFFFFFFFFFFFFFFFFFFFFFFFF AND PUSH20 0xFFFFFFFFFFFFFFFFFFFFFFFFFFFFFFFFFFFFFFFF AND DUP2 MSTORE PUSH1 0x20 ADD SWAP1 DUP2 MSTORE PUSH1 0x20 ADD PUSH1 0x0 KECCAK256 PUSH1 0x0 PUSH2 0x100 EXP DUP2 SLOAD DUP2 PUSH1 0xFF MUL NOT AND SWAP1 DUP4 ISZERO ISZERO MUL OR SWAP1 SSTORE POP PUSH1 0x2 DUP2 SWAP1 DUP1 PUSH1 0x1 DUP2 SLOAD ADD DUP1 DUP3 SSTORE DUP1 SWAP2 POP POP PUSH1 0x1 SWAP1 SUB SWAP1 PUSH1 0x0 MSTORE PUSH1 0x20 PUSH1 0x0 KECCAK256 ADD PUSH1 0x0 SWAP1 SWAP2 SWAP1 SWAP2 SWAP1 SWAP2 PUSH2 0x100 EXP DUP2 SLOAD DUP2 PUSH20 0xFFFFFFFFFFFFFFFFFFFFFFFFFFFFFFFFFFFFFFFF MUL NOT AND SWAP1 DUP4 PUSH20 0xFFFFFFFFFFFFFFFFFFFFFFFFFFFFFFFFFFFFFFFF AND MUL OR SWAP1 SSTORE POP JUMPDEST POP JUMP JUMPDEST PUSH1 0x9 DUP2 DUP2 SLOAD DUP2 LT PUSH2 0xD4E JUMPI PUSH1 0x0 DUP1 REVERT JUMPDEST SWAP1 PUSH1 0x0 MSTORE PUSH1 0x20 PUSH1 0x0 KECCAK256 SWAP1 PUSH1 0x2 MUL ADD PUSH1 0x0 SWAP2 POP SWAP1 POP DUP1 PUSH1 0x0 ADD PUSH1 0x0 SWAP1 SLOAD SWAP1 PUSH2 0x100 EXP SWAP1 DIV PUSH20 0xFFFFFFFFFFFFFFFFFFFFFFFFFFFFFFFFFFFFFFFF AND SWAP1 DUP1 PUSH1 0x1 ADD DUP1 SLOAD PUSH2 0xD97 SWAP1 PUSH2 0x1776 JUMP JUMPDEST DUP1 PUSH1 0x1F ADD PUSH1 0x20 DUP1 SWAP2 DIV MUL PUSH1 0x20 ADD PUSH1 0x40 MLOAD SWAP1 DUP2 ADD PUSH1 0x40 MSTORE DUP1 SWAP3 SWAP2 SWAP1 DUP2 DUP2 MSTORE PUSH1 0x20 ADD DUP3 DUP1 SLOAD PUSH2 0xDC3 SWAP1 PUSH2 0x1776 JUMP JUMPDEST DUP1 ISZERO PUSH2 0xE10 JUMPI DUP1 PUSH1 0x1F LT PUSH2 0xDE5 JUMPI PUSH2 0x100 DUP1 DUP4 SLOAD DIV MUL DUP4 MSTORE SWAP2 PUSH1 0x20 ADD SWAP2 PUSH2 0xE10 JUMP JUMPDEST DUP3 ADD SWAP2 SWAP1 PUSH1 0x0 MSTORE PUSH1 0x20 PUSH1 0x0 KECCAK256 SWAP1 JUMPDEST DUP2 SLOAD DUP2 MSTORE SWAP1 PUSH1 0x1 ADD SWAP1 PUSH1 0x20 ADD DUP1 DUP4 GT PUSH2 0xDF3 JUMPI DUP3 SWAP1 SUB PUSH1 0x1F AND DUP3 ADD SWAP2 JUMPDEST POP POP POP POP POP SWAP1 POP DUP3 JUMP JUMPDEST PUSH1 0x3 PUSH1 0x20 MSTORE DUP1 PUSH1 0x0 MSTORE PUSH1 0x40 PUSH1 0x0 KECCAK256 PUSH1 0x0 SWAP2 POP SLOAD SWAP1 PUSH2 0x100 EXP SWAP1 DIV PUSH1 0xFF AND DUP2 JUMP JUMPDEST DUP3 DUP1 SLOAD PUSH2 0xE46 SWAP1 PUSH2 0x1776 JUMP JUMPDEST SWAP1 PUSH1 0x0 MSTORE PUSH1 0x20 PUSH1 0x0 KECCAK256 SWAP1 PUSH1 0x1F ADD PUSH1 0x20 SWAP1 DIV DUP2 ADD SWAP3 DUP3 PUSH2 0xE68 JUMPI PUSH1 0x0 DUP6 SSTORE PUSH2 0xEAF JUMP JUMPDEST DUP3 PUSH1 0x1F LT PUSH2 0xE81 JUMPI DUP1 MLOAD PUSH1 0xFF NOT AND DUP4 DUP1 ADD OR DUP6 SSTORE PUSH2 0xEAF JUMP JUMPDEST DUP3 DUP1 ADD PUSH1 0x1 ADD DUP6 SSTORE DUP3 ISZERO PUSH2 0xEAF JUMPI SWAP2 DUP3 ADD JUMPDEST DUP3 DUP2 GT ISZERO PUSH2 0xEAE JUMPI DUP3 MLOAD DUP3 SSTORE SWAP2 PUSH1 0x20 ADD SWAP2 SWAP1 PUSH1 0x1 ADD SWAP1 PUSH2 0xE93 JUMP JUMPDEST JUMPDEST POP SWAP1 POP PUSH2 0xEBC SWAP2 SWAP1 PUSH2 0xEC0 JUMP JUMPDEST POP SWAP1 JUMP JUMPDEST JUMPDEST DUP1 DUP3 GT ISZERO PUSH2 0xED9 JUMPI PUSH1 0x0 DUP2 PUSH1 0x0 SWAP1 SSTORE POP PUSH1 0x1 ADD PUSH2 0xEC1 JUMP JUMPDEST POP SWAP1 JUMP JUMPDEST PUSH1 0x0 PUSH1 0x40 MLOAD SWAP1 POP SWAP1 JUMP JUMPDEST PUSH1 0x0 DUP1 REVERT JUMPDEST PUSH1 0x0 DUP1 REVERT JUMPDEST PUSH1 0x0 DUP2 SWAP1 POP SWAP2 SWAP1 POP JUMP JUMPDEST PUSH2 0xF04 DUP2 PUSH2 0xEF1 JUMP JUMPDEST DUP2 EQ PUSH2 0xF0F JUMPI PUSH1 0x0 DUP1 REVERT JUMPDEST POP JUMP JUMPDEST PUSH1 0x0 DUP2 CALLDATALOAD SWAP1 POP PUSH2 0xF21 DUP2 PUSH2 0xEFB JUMP JUMPDEST SWAP3 SWAP2 POP POP JUMP JUMPDEST PUSH1 0x0 PUSH1 0x20 DUP3 DUP5 SUB SLT ISZERO PUSH2 0xF3D JUMPI PUSH2 0xF3C PUSH2 0xEE7 JUMP JUMPDEST JUMPDEST PUSH1 0x0 PUSH2 0xF4B DUP5 DUP3 DUP6 ADD PUSH2 0xF12 JUMP JUMPDEST SWAP2 POP POP SWAP3 SWAP2 POP POP JUMP JUMPDEST PUSH1 0x0 PUSH20 0xFFFFFFFFFFFFFFFFFFFFFFFFFFFFFFFFFFFFFFFF DUP3 AND SWAP1 POP SWAP2 SWAP1 POP JUMP JUMPDEST PUSH1 0x0 PUSH2 0xF7F DUP3 PUSH2 0xF54 JUMP JUMPDEST SWAP1 POP SWAP2 SWAP1 POP JUMP JUMPDEST PUSH2 0xF8F DUP2 PUSH2 0xF74 JUMP JUMPDEST DUP3 MSTORE POP POP JUMP JUMPDEST PUSH1 0x0 PUSH1 0x20 DUP3 ADD SWAP1 POP PUSH2 0xFAA PUSH1 0x0 DUP4 ADD DUP5 PUSH2 0xF86 JUMP JUMPDEST SWAP3 SWAP2 POP POP JUMP JUMPDEST PUSH2 0xFB9 DUP2 PUSH2 0xEF1 JUMP JUMPDEST DUP3 MSTORE POP POP JUMP JUMPDEST PUSH1 0x0 PUSH1 0x20 DUP3 ADD SWAP1 POP PUSH2 0xFD4 PUSH1 0x0 DUP4 ADD DUP5 PUSH2 0xFB0 JUMP JUMPDEST SWAP3 SWAP2 POP POP JUMP JUMPDEST PUSH1 0x0 DUP2 MLOAD SWAP1 POP SWAP2 SWAP1 POP JUMP JUMPDEST PUSH1 0x0 DUP3 DUP3 MSTORE PUSH1 0x20 DUP3 ADD SWAP1 POP SWAP3 SWAP2 POP POP JUMP JUMPDEST PUSH1 0x0 DUP2 SWAP1 POP PUSH1 0x20 DUP3 ADD SWAP1 POP SWAP2 SWAP1 POP JUMP JUMPDEST PUSH1 0x0 PUSH2 0x1011 DUP3 PUSH2 0xF54 JUMP JUMPDEST SWAP1 POP SWAP2 SWAP1 POP JUMP JUMPDEST PUSH2 0x1021 DUP2 PUSH2 0x1006 JUMP JUMPDEST DUP3 MSTORE POP POP JUMP JUMPDEST PUSH1 0x0 DUP2 MLOAD SWAP1 POP SWAP2 SWAP1 POP JUMP JUMPDEST PUSH1 0x0 DUP3 DUP3 MSTORE PUSH1 0x20 DUP3 ADD SWAP1 POP SWAP3 SWAP2 POP POP JUMP JUMPDEST PUSH1 0x0 JUMPDEST DUP4 DUP2 LT ISZERO PUSH2 0x1061 JUMPI DUP1 DUP3 ADD MLOAD DUP2 DUP5 ADD MSTORE PUSH1 0x20 DUP2 ADD SWAP1 POP PUSH2 0x1046 JUMP JUMPDEST DUP4 DUP2 GT ISZERO PUSH2 0x1070 JUMPI PUSH1 0x0 DUP5 DUP5 ADD MSTORE JUMPDEST POP POP POP POP JUMP JUMPDEST PUSH1 0x0 PUSH1 0x1F NOT PUSH1 0x1F DUP4 ADD AND SWAP1 POP SWAP2 SWAP1 POP JUMP JUMPDEST PUSH1 0x0 PUSH2 0x1092 DUP3 PUSH2 0x1027 JUMP JUMPDEST PUSH2 0x109C DUP2 DUP6 PUSH2 0x1032 JUMP JUMPDEST SWAP4 POP PUSH2 0x10AC DUP2 DUP6 PUSH1 0x20 DUP7 ADD PUSH2 0x1043 JUMP JUMPDEST PUSH2 0x10B5 DUP2 PUSH2 0x1076 JUMP JUMPDEST DUP5 ADD SWAP2 POP POP SWAP3 SWAP2 POP POP JUMP JUMPDEST PUSH1 0x0 PUSH1 0x40 DUP4 ADD PUSH1 0x0 DUP4 ADD MLOAD PUSH2 0x10D8 PUSH1 0x0 DUP7 ADD DUP3 PUSH2 0x1018 JUMP JUMPDEST POP PUSH1 0x20 DUP4 ADD MLOAD DUP5 DUP3 SUB PUSH1 0x20 DUP7 ADD MSTORE PUSH2 0x10F0 DUP3 DUP3 PUSH2 0x1087 JUMP JUMPDEST SWAP2 POP POP DUP1 SWAP2 POP POP SWAP3 SWAP2 POP POP JUMP JUMPDEST PUSH1 0x0 PUSH2 0x1109 DUP4 DUP4 PUSH2 0x10C0 JUMP JUMPDEST SWAP1 POP SWAP3 SWAP2 POP POP JUMP JUMPDEST PUSH1 0x0 PUSH1 0x20 DUP3 ADD SWAP1 POP SWAP2 SWAP1 POP JUMP JUMPDEST PUSH1 0x0 PUSH2 0x1129 DUP3 PUSH2 0xFDA JUMP JUMPDEST PUSH2 0x1133 DUP2 DUP6 PUSH2 0xFE5 JUMP JUMPDEST SWAP4 POP DUP4 PUSH1 0x20 DUP3 MUL DUP6 ADD PUSH2 0x1145 DUP6 PUSH2 0xFF6 JUMP JUMPDEST DUP1 PUSH1 0x0 JUMPDEST DUP6 DUP2 LT ISZERO PUSH2 0x1181 JUMPI DUP5 DUP5 SUB DUP10 MSTORE DUP2 MLOAD PUSH2 0x1162 DUP6 DUP3 PUSH2 0x10FD JUMP JUMPDEST SWAP5 POP PUSH2 0x116D DUP4 PUSH2 0x1111 JUMP JUMPDEST SWAP3 POP PUSH1 0x20 DUP11 ADD SWAP10 POP POP PUSH1 0x1 DUP2 ADD SWAP1 POP PUSH2 0x1149 JUMP JUMPDEST POP DUP3 SWAP8 POP DUP8 SWAP6 POP POP POP POP POP POP SWAP3 SWAP2 POP POP JUMP JUMPDEST PUSH1 0x0 PUSH1 0x20 DUP3 ADD SWAP1 POP DUP2 DUP2 SUB PUSH1 0x0 DUP4 ADD MSTORE PUSH2 0x11AD DUP2 DUP5 PUSH2 0x111E JUMP JUMPDEST SWAP1 POP SWAP3 SWAP2 POP POP JUMP JUMPDEST PUSH1 0x0 DUP3 DUP3 MSTORE PUSH1 0x20 DUP3 ADD SWAP1 POP SWAP3 SWAP2 POP POP JUMP JUMPDEST PUSH1 0x0 PUSH2 0x11D1 DUP3 PUSH2 0x1027 JUMP JUMPDEST PUSH2 0x11DB DUP2 DUP6 PUSH2 0x11B5 JUMP JUMPDEST SWAP4 POP PUSH2 0x11EB DUP2 DUP6 PUSH1 0x20 DUP7 ADD PUSH2 0x1043 JUMP JUMPDEST PUSH2 0x11F4 DUP2 PUSH2 0x1076 JUMP JUMPDEST DUP5 ADD SWAP2 POP POP SWAP3 SWAP2 POP POP JUMP JUMPDEST PUSH1 0x0 PUSH1 0x20 DUP3 ADD SWAP1 POP DUP2 DUP2 SUB PUSH1 0x0 DUP4 ADD MSTORE PUSH2 0x1219 DUP2 DUP5 PUSH2 0x11C6 JUMP JUMPDEST SWAP1 POP SWAP3 SWAP2 POP POP JUMP JUMPDEST PUSH2 0x122A DUP2 PUSH2 0x1006 JUMP JUMPDEST DUP3 MSTORE POP POP JUMP JUMPDEST PUSH1 0x0 DUP2 MLOAD SWAP1 POP SWAP2 SWAP1 POP JUMP JUMPDEST PUSH1 0x0 DUP3 DUP3 MSTORE PUSH1 0x20 DUP3 ADD SWAP1 POP SWAP3 SWAP2 POP POP JUMP JUMPDEST PUSH1 0x0 DUP2 SWAP1 POP PUSH1 0x20 DUP3 ADD SWAP1 POP SWAP2 SWAP1 POP JUMP JUMPDEST PUSH1 0x0 PUSH2 0x1268 DUP4 DUP4 PUSH2 0x1087 JUMP JUMPDEST SWAP1 POP SWAP3 SWAP2 POP POP JUMP JUMPDEST PUSH1 0x0 PUSH1 0x20 DUP3 ADD SWAP1 POP SWAP2 SWAP1 POP JUMP JUMPDEST PUSH1 0x0 PUSH2 0x1288 DUP3 PUSH2 0x1230 JUMP JUMPDEST PUSH2 0x1292 DUP2 DUP6 PUSH2 0x123B JUMP JUMPDEST SWAP4 POP DUP4 PUSH1 0x20 DUP3 MUL DUP6 ADD PUSH2 0x12A4 DUP6 PUSH2 0x124C JUMP JUMPDEST DUP1 PUSH1 0x0 JUMPDEST DUP6 DUP2 LT ISZERO PUSH2 0x12E0 JUMPI DUP5 DUP5 SUB DUP10 MSTORE DUP2 MLOAD PUSH2 0x12C1 DUP6 DUP3 PUSH2 0x125C JUMP JUMPDEST SWAP5 POP PUSH2 0x12CC DUP4 PUSH2 0x1270 JUMP JUMPDEST SWAP3 POP PUSH1 0x20 DUP11 ADD SWAP10 POP POP PUSH1 0x1 DUP2 ADD SWAP1 POP PUSH2 0x12A8 JUMP JUMPDEST POP DUP3 SWAP8 POP DUP8 SWAP6 POP POP POP POP POP POP SWAP3 SWAP2 POP POP JUMP JUMPDEST PUSH32 0x4E487B7100000000000000000000000000000000000000000000000000000000 PUSH1 0x0 MSTORE PUSH1 0x21 PUSH1 0x4 MSTORE PUSH1 0x24 PUSH1 0x0 REVERT JUMPDEST PUSH1 0x8 DUP2 LT PUSH2 0x1332 JUMPI PUSH2 0x1331 PUSH2 0x12F2 JUMP JUMPDEST JUMPDEST POP JUMP JUMPDEST PUSH1 0x0 DUP2 SWAP1 POP PUSH2 0x1343 DUP3 PUSH2 0x1321 JUMP JUMPDEST SWAP2 SWAP1 POP JUMP JUMPDEST PUSH1 0x0 PUSH2 0x1353 DUP3 PUSH2 0x1335 JUMP JUMPDEST SWAP1 POP SWAP2 SWAP1 POP JUMP JUMPDEST PUSH2 0x1363 DUP2 PUSH2 0x1348 JUMP JUMPDEST DUP3 MSTORE POP POP JUMP JUMPDEST PUSH1 0x0 PUSH1 0xE0 DUP3 ADD SWAP1 POP DUP2 DUP2 SUB PUSH1 0x0 DUP4 ADD MSTORE PUSH2 0x1383 DUP2 DUP11 PUSH2 0x11C6 JUMP JUMPDEST SWAP1 POP PUSH2 0x1392 PUSH1 0x20 DUP4 ADD DUP10 PUSH2 0x1221 JUMP JUMPDEST PUSH2 0x139F PUSH1 0x40 DUP4 ADD DUP9 PUSH2 0x1221 JUMP JUMPDEST DUP2 DUP2 SUB PUSH1 0x60 DUP4 ADD MSTORE PUSH2 0x13B1 DUP2 DUP8 PUSH2 0x11C6 JUMP JUMPDEST SWAP1 POP DUP2 DUP2 SUB PUSH1 0x80 DUP4 ADD MSTORE PUSH2 0x13C5 DUP2 DUP7 PUSH2 0x11C6 JUMP JUMPDEST SWAP1 POP DUP2 DUP2 SUB PUSH1 0xA0 DUP4 ADD MSTORE PUSH2 0x13D9 DUP2 DUP6 PUSH2 0x127D JUMP JUMPDEST SWAP1 POP PUSH2 0x13E8 PUSH1 0xC0 DUP4 ADD DUP5 PUSH2 0x135A JUMP JUMPDEST SWAP9 SWAP8 POP POP POP POP POP POP POP POP JUMP JUMPDEST PUSH1 0x0 PUSH1 0x20 DUP3 ADD SWAP1 POP PUSH2 0x1409 PUSH1 0x0 DUP4 ADD DUP5 PUSH2 0x135A JUMP JUMPDEST SWAP3 SWAP2 POP POP JUMP JUMPDEST PUSH1 0x0 DUP1 REVERT JUMPDEST PUSH1 0x0 DUP1 REVERT JUMPDEST PUSH32 0x4E487B7100000000000000000000000000000000000000000000000000000000 PUSH1 0x0 MSTORE PUSH1 0x41 PUSH1 0x4 MSTORE PUSH1 0x24 PUSH1 0x0 REVERT JUMPDEST PUSH2 0x1451 DUP3 PUSH2 0x1076 JUMP JUMPDEST DUP2 ADD DUP2 DUP2 LT PUSH8 0xFFFFFFFFFFFFFFFF DUP3 GT OR ISZERO PUSH2 0x1470 JUMPI PUSH2 0x146F PUSH2 0x1419 JUMP JUMPDEST JUMPDEST DUP1 PUSH1 0x40 MSTORE POP POP POP JUMP JUMPDEST PUSH1 0x0 PUSH2 0x1483 PUSH2 0xEDD JUMP JUMPDEST SWAP1 POP PUSH2 0x148F DUP3 DUP3 PUSH2 0x1448 JUMP JUMPDEST SWAP2 SWAP1 POP JUMP JUMPDEST PUSH1 0x0 PUSH8 0xFFFFFFFFFFFFFFFF DUP3 GT ISZERO PUSH2 0x14AF JUMPI PUSH2 0x14AE PUSH2 0x1419 JUMP JUMPDEST JUMPDEST PUSH2 0x14B8 DUP3 PUSH2 0x1076 JUMP JUMPDEST SWAP1 POP PUSH1 0x20 DUP2 ADD SWAP1 POP SWAP2 SWAP1 POP JUMP JUMPDEST DUP3 DUP2 DUP4 CALLDATACOPY PUSH1 0x0 DUP4 DUP4 ADD MSTORE POP POP POP JUMP JUMPDEST PUSH1 0x0 PUSH2 0x14E7 PUSH2 0x14E2 DUP5 PUSH2 0x1494 JUMP JUMPDEST PUSH2 0x1479 JUMP JUMPDEST SWAP1 POP DUP3 DUP2 MSTORE PUSH1 0x20 DUP2 ADD DUP5 DUP5 DUP5 ADD GT ISZERO PUSH2 0x1503 JUMPI PUSH2 0x1502 PUSH2 0x1414 JUMP JUMPDEST JUMPDEST PUSH2 0x150E DUP5 DUP3 DUP6 PUSH2 0x14C5 JUMP JUMPDEST POP SWAP4 SWAP3 POP POP POP JUMP JUMPDEST PUSH1 0x0 DUP3 PUSH1 0x1F DUP4 ADD SLT PUSH2 0x152B JUMPI PUSH2 0x152A PUSH2 0x140F JUMP JUMPDEST JUMPDEST DUP2 CALLDATALOAD PUSH2 0x153B DUP5 DUP3 PUSH1 0x20 DUP7 ADD PUSH2 0x14D4 JUMP JUMPDEST SWAP2 POP POP SWAP3 SWAP2 POP POP JUMP JUMPDEST PUSH1 0x0 PUSH1 0x20 DUP3 DUP5 SUB SLT ISZERO PUSH2 0x155A JUMPI PUSH2 0x1559 PUSH2 0xEE7 JUMP JUMPDEST JUMPDEST PUSH1 0x0 DUP3 ADD CALLDATALOAD PUSH8 0xFFFFFFFFFFFFFFFF DUP2 GT ISZERO PUSH2 0x1578 JUMPI PUSH2 0x1577 PUSH2 0xEEC JUMP JUMPDEST JUMPDEST PUSH2 0x1584 DUP5 DUP3 DUP6 ADD PUSH2 0x1516 JUMP JUMPDEST SWAP2 POP POP SWAP3 SWAP2 POP POP JUMP JUMPDEST PUSH1 0x0 DUP2 MLOAD SWAP1 POP SWAP2 SWAP1 POP JUMP JUMPDEST PUSH1 0x0 DUP3 DUP3 MSTORE PUSH1 0x20 DUP3 ADD SWAP1 POP SWAP3 SWAP2 POP POP JUMP JUMPDEST PUSH1 0x0 DUP2 SWAP1 POP PUSH1 0x20 DUP3 ADD SWAP1 POP SWAP2 SWAP1 POP JUMP JUMPDEST PUSH2 0x15C2 DUP2 PUSH2 0xF74 JUMP JUMPDEST DUP3 MSTORE POP POP JUMP JUMPDEST PUSH1 0x0 PUSH2 0x15D4 DUP4 DUP4 PUSH2 0x15B9 JUMP JUMPDEST PUSH1 0x20 DUP4 ADD SWAP1 POP SWAP3 SWAP2 POP POP JUMP JUMPDEST PUSH1 0x0 PUSH1 0x20 DUP3 ADD SWAP1 POP SWAP2 SWAP1 POP JUMP JUMPDEST PUSH1 0x0 PUSH2 0x15F8 DUP3 PUSH2 0x158D JUMP JUMPDEST PUSH2 0x1602 DUP2 DUP6 PUSH2 0x1598 JUMP JUMPDEST SWAP4 POP PUSH2 0x160D DUP4 PUSH2 0x15A9 JUMP JUMPDEST DUP1 PUSH1 0x0 JUMPDEST DUP4 DUP2 LT ISZERO PUSH2 0x163E JUMPI DUP2 MLOAD PUSH2 0x1625 DUP9 DUP3 PUSH2 0x15C8 JUMP JUMPDEST SWAP8 POP PUSH2 0x1630 DUP4 PUSH2 0x15E0 JUMP JUMPDEST SWAP3 POP POP PUSH1 0x1 DUP2 ADD SWAP1 POP PUSH2 0x1611 JUMP JUMPDEST POP DUP6 SWAP4 POP POP POP POP SWAP3 SWAP2 POP POP JUMP JUMPDEST PUSH1 0x0 PUSH1 0x20 DUP3 ADD SWAP1 POP DUP2 DUP2 SUB PUSH1 0x0 DUP4 ADD MSTORE PUSH2 0x1665 DUP2 DUP5 PUSH2 0x15ED JUMP JUMPDEST SWAP1 POP SWAP3 SWAP2 POP POP JUMP JUMPDEST PUSH1 0x0 PUSH1 0x20 DUP3 ADD SWAP1 POP PUSH2 0x1682 PUSH1 0x0 DUP4 ADD DUP5 PUSH2 0x1221 JUMP JUMPDEST SWAP3 SWAP2 POP POP JUMP JUMPDEST PUSH2 0x1691 DUP2 PUSH2 0x1006 JUMP JUMPDEST DUP2 EQ PUSH2 0x169C JUMPI PUSH1 0x0 DUP1 REVERT JUMPDEST POP JUMP JUMPDEST PUSH1 0x0 DUP2 CALLDATALOAD SWAP1 POP PUSH2 0x16AE DUP2 PUSH2 0x1688 JUMP JUMPDEST SWAP3 SWAP2 POP POP JUMP JUMPDEST PUSH1 0x0 PUSH1 0x20 DUP3 DUP5 SUB SLT ISZERO PUSH2 0x16CA JUMPI PUSH2 0x16C9 PUSH2 0xEE7 JUMP JUMPDEST JUMPDEST PUSH1 0x0 PUSH2 0x16D8 DUP5 DUP3 DUP6 ADD PUSH2 0x169F JUMP JUMPDEST SWAP2 POP POP SWAP3 SWAP2 POP POP JUMP JUMPDEST PUSH1 0x0 PUSH1 0x40 DUP3 ADD SWAP1 POP PUSH2 0x16F6 PUSH1 0x0 DUP4 ADD DUP6 PUSH2 0x1221 JUMP JUMPDEST DUP2 DUP2 SUB PUSH1 0x20 DUP4 ADD MSTORE PUSH2 0x1708 DUP2 DUP5 PUSH2 0x11C6 JUMP JUMPDEST SWAP1 POP SWAP4 SWAP3 POP POP POP JUMP JUMPDEST PUSH1 0x0 DUP2 ISZERO ISZERO SWAP1 POP SWAP2 SWAP1 POP JUMP JUMPDEST PUSH2 0x1726 DUP2 PUSH2 0x1711 JUMP JUMPDEST DUP3 MSTORE POP POP JUMP JUMPDEST PUSH1 0x0 PUSH1 0x20 DUP3 ADD SWAP1 POP PUSH2 0x1741 PUSH1 0x0 DUP4 ADD DUP5 PUSH2 0x171D JUMP JUMPDEST SWAP3 SWAP2 POP POP JUMP JUMPDEST PUSH32 0x4E487B7100000000000000000000000000000000000000000000000000000000 PUSH1 0x0 MSTORE PUSH1 0x22 PUSH1 0x4 MSTORE PUSH1 0x24 PUSH1 0x0 REVERT JUMPDEST PUSH1 0x0 PUSH1 0x2 DUP3 DIV SWAP1 POP PUSH1 0x1 DUP3 AND DUP1 PUSH2 0x178E JUMPI PUSH1 0x7F DUP3 AND SWAP2 POP JUMPDEST PUSH1 0x20 DUP3 LT DUP2 EQ ISZERO PUSH2 0x17A2 JUMPI PUSH2 0x17A1 PUSH2 0x1747 JUMP JUMPDEST JUMPDEST POP SWAP2 SWAP1 POP JUMP INVALID LOG2 PUSH5 0x6970667358 0x22 SLT KECCAK256 0xA5 0x21 0xD4 SWAP4 0xC6 0x26 0xE 0xE3 0xC5 0xAE MSTORE8 DUP11 0xEC 0xBC SUB PUSH19 0x65E8658BD6D002D922453DEDD9307DFC64736F PUSH13 0x63430008090033000000000000 "},"gasEstimates":{"creation":{"codeDepositCost":"1222000","executionCost":"infinite","totalCost":"infinite"},"external":{"assignReviewer(address)":"77848","author()":"2533","description()":"infinite","doccid()":"infinite","editor()":"2603","field()":"2649","getReviewersList()":"infinite","getReviews()":"infinite","getReviewsCount()":"2491","getSummary()":"infinite","reviewers(address)":"2933","reviewersList(uint256)":"4980","reviews(uint256)":"infinite","submitReview(string)":"infinite","tags(uint256)":"infinite","title()":"infinite"}},"methodIdentifiers":{"assignReviewer(address)":"cccf1cfd","author()":"a6c3e6b9","description()":"7284e416","doccid()":"1c2cd130","editor()":"a464d265","field()":"4f28bf0e","getReviewersList()":"8fbbff8d","getReviews()":"1b1e1324","getReviewsCount()":"1435ba3c","getSummary()":"4051ddac","reviewers(address)":"f7cbb1b2","reviewersList(uint256)":"02a5d5f0","reviews(uint256)":"e83ddcea","submitReview(string)":"6604b722","tags(uint256)":"20822abc","title()":"4a79d50c"}},"storageLayout":{"storage":[{"astId":75,"contract":"Manuscript.sol:Manuscript","label":"author","offset":0,"slot":"0","type":"t_address"},{"astId":77,"contract":"Manuscript.sol:Manuscript","label":"editor","offset":0,"slot":"1","type":"t_address"},{"astId":80,"contract":"Manuscript.sol:Manuscript","label":"reviewersList","offset":0,"slot":"2","type":"t_array(t_address_payable)dyn_storage"},{"astId":84,"contract":"Manuscript.sol:Manuscript","label":"reviewers","offset":0,"slot":"3","type":"t_mapping(t_address,t_bool)"},{"astId":86,"contract":"Manuscript.sol:Manuscript","label":"doccid","offset":0,"slot":"4","type":"t_string_storage"},{"astId":88,"contract":"Manuscript.sol:Manuscript","label":"title","offset":0,"slot":"5","type":"t_string_storage"},{"astId":90,"contract":"Manuscript.sol:Manuscript","label":"description","offset":0,"slot":"6","type":"t_string_storage"},{"astId":93,"contract":"Manuscript.sol:Manuscript","label":"tags","offset":0,"slot":"7","type":"t_array(t_string_storage)dyn_storage"},{"astId":96,"contract":"Manuscript.sol:Manuscript","label":"field","offset":0,"slot":"8","type":"t_enum(FieldResearch)10"},{"astId":105,"contract":"Manuscript.sol:Manuscript","label":"reviews","offset":0,"slot":"9","type":"t_array(t_struct(Review)101_storage)dyn_storage"}],"types":{"t_address":{"encoding":"inplace","label":"address","numberOfBytes":"20"},"t_address_payable":{"encoding":"inplace","label":"address payable","numberOfBytes":"20"},"t_array(t_address_payable)dyn_storage":{"base":"t_address_payable","encoding":"dynamic_array","label":"address payable[]","numberOfBytes":"32"},"t_array(t_string_storage)dyn_storage":{"base":"t_string_storage","encoding":"dynamic_array","label":"string[]","numberOfBytes":"32"},"t_array(t_struct(Review)101_storage)dyn_storage":{"base":"t_struct(Review)101_storage","encoding":"dynamic_array","label":"struct Manuscript.Review[]","numberOfBytes":"32"},"t_bool":{"encoding":"inplace","label":"bool","numberOfBytes":"1"},"t_enum(FieldResearch)10":{"encoding":"inplace","label":"enum FieldResearchDef.FieldResearch","numberOfBytes":"1"},"t_mapping(t_address,t_bool)":{"encoding":"mapping","key":"t_address","label":"mapping(address => bool)","numberOfBytes":"32","value":"t_bool"},"t_string_storage":{"encoding":"bytes","label":"string","numberOfBytes":"32"},"t_struct(Review)101_storage":{"encoding":"inplace","label":"struct Manuscript.Review","members":[{"astId":98,"contract":"Manuscript.sol:Manuscript","label":"reviewer","offset":0,"slot":"0","type":"t_address"},{"astId":100,"contract":"Manuscript.sol:Manuscript","label":"doccid","offset":0,"slot":"1","type":"t_string_storage"}],"numberOfBytes":"64"}}},"userdoc":{"kind":"user","methods":{},"version":1}}